{"abi":[{"type":"constructor","inputs":[{"name":"_registryCoordinator","type":"address","internalType":"contract IRegistryCoordinator"},{"name":"_taskResponseWindowBlock","type":"uint32","internalType":"uint32"}],"stateMutability":"nonpayable"},{"type":"function","name":"aggregator","inputs":[],"outputs":[{"name":"","type":"address","internalType":"address"}],"stateMutability":"view"},{"type":"function","name":"allTaskHashes","inputs":[{"name":"","type":"uint32","internalType":"uint32"}],"outputs":[{"name":"","type":"bytes32","internalType":"bytes32"}],"stateMutability":"view"},{"type":"function","name":"allTaskResponses","inputs":[{"name":"","type":"uint32","internalType":"uint32"}],"outputs":[{"name":"","type":"bytes32","internalType":"bytes32"}],"stateMutability":"view"},{"type":"function","name":"blsApkRegistry","inputs":[],"outputs":[{"name":"","type":"address","internalType":"contract IBLSApkRegistry"}],"stateMutability":"view"},{"type":"function","name":"checkSignatures","inputs":[{"name":"msgHash","type":"bytes32","internalType":"bytes32"},{"name":"quorumNumbers","type":"bytes","internalType":"bytes"},{"name":"referenceBlockNumber","type":"uint32","internalType":"uint32"},{"name":"params","type":"tuple","internalType":"struct IBLSSignatureChecker.NonSignerStakesAndSignature","components":[{"name":"nonSignerQuorumBitmapIndices","type":"uint32[]","internalType":"uint32[]"},{"name":"nonSignerPubkeys","type":"tuple[]","internalType":"struct BN254.G1Point[]","components":[{"name":"X","type":"uint256","internalType":"uint256"},{"name":"Y","type":"uint256","internalType":"uint256"}]},{"name":"quorumApks","type":"tuple[]","internalType":"struct BN254.G1Point[]","components":[{"name":"X","type":"uint256","internalType":"uint256"},{"name":"Y","type":"uint256","internalType":"uint256"}]},{"name":"apkG2","type":"tuple","internalType":"struct BN254.G2Point","components":[{"name":"X","type":"uint256[2]","internalType":"uint256[2]"},{"name":"Y","type":"uint256[2]","internalType":"uint256[2]"}]},{"name":"sigma","type":"tuple","internalType":"struct BN254.G1Point","components":[{"name":"X","type":"uint256","internalType":"uint256"},{"name":"Y","type":"uint256","internalType":"uint256"}]},{"name":"quorumApkIndices","type":"uint32[]","internalType":"uint32[]"},{"name":"totalStakeIndices","type":"uint32[]","internalType":"uint32[]"},{"name":"nonSignerStakeIndices","type":"uint32[][]","internalType":"uint32[][]"}]}],"outputs":[{"name":"","type":"tuple","internalType":"struct IBLSSignatureChecker.QuorumStakeTotals","components":[{"name":"signedStakeForQuorum","type":"uint96[]","internalType":"uint96[]"},{"name":"totalStakeForQuorum","type":"uint96[]","internalType":"uint96[]"}]},{"name":"","type":"bytes32","internalType":"bytes32"}],"stateMutability":"view"},{"type":"function","name":"createNewTask","inputs":[{"name":"blockNumber","type":"uint256","internalType":"uint256"},{"name":"quorumThresholdPercentage","type":"uint32","internalType":"uint32"},{"name":"quorumNumbers","type":"bytes","internalType":"bytes"}],"outputs":[],"stateMutability":"nonpayable"},{"type":"function","name":"delegation","inputs":[],"outputs":[{"name":"","type":"address","internalType":"contract IDelegationManager"}],"stateMutability":"view"},{"type":"function","name":"generator","inputs":[],"outputs":[{"name":"","type":"address","internalType":"address"}],"stateMutability":"view"},{"type":"function","name":"getCheckSignaturesIndices","inputs":[{"name":"registryCoordinator","type":"address","internalType":"contract IRegistryCoordinator"},{"name":"referenceBlockNumber","type":"uint32","internalType":"uint32"},{"name":"quorumNumbers","type":"bytes","internalType":"bytes"},{"name":"nonSignerOperatorIds","type":"bytes32[]","internalType":"bytes32[]"}],"outputs":[{"name":"","type":"tuple","internalType":"struct OperatorStateRetriever.CheckSignaturesIndices","components":[{"name":"nonSignerQuorumBitmapIndices","type":"uint32[]","internalType":"uint32[]"},{"name":"quorumApkIndices","type":"uint32[]","internalType":"uint32[]"},{"name":"totalStakeIndices","type":"uint32[]","internalType":"uint32[]"},{"name":"nonSignerStakeIndices","type":"uint32[][]","internalType":"uint32[][]"}]}],"stateMutability":"view"},{"type":"function","name":"getLatestPendingStateHash","inputs":[],"outputs":[{"name":"","type":"bytes32","internalType":"bytes32"}],"stateMutability":"view"},{"type":"function","name":"getOperatorState","inputs":[{"name":"registryCoordinator","type":"address","internalType":"contract IRegistryCoordinator"},{"name":"quorumNumbers","type":"bytes","internalType":"bytes"},{"name":"blockNumber","type":"uint32","internalType":"uint32"}],"outputs":[{"name":"","type":"tuple[][]","internalType":"struct OperatorStateRetriever.Operator[][]","components":[{"name":"operator","type":"address","internalType":"address"},{"name":"operatorId","type":"bytes32","internalType":"bytes32"},{"name":"stake","type":"uint96","internalType":"uint96"}]}],"stateMutability":"view"},{"type":"function","name":"getOperatorState","inputs":[{"name":"registryCoordinator","type":"address","internalType":"contract IRegistryCoordinator"},{"name":"operatorId","type":"bytes32","internalType":"bytes32"},{"name":"blockNumber","type":"uint32","internalType":"uint32"}],"outputs":[{"name":"","type":"uint256","internalType":"uint256"},{"name":"","type":"tuple[][]","internalType":"struct OperatorStateRetriever.Operator[][]","components":[{"name":"operator","type":"address","internalType":"address"},{"name":"operatorId","type":"bytes32","internalType":"bytes32"},{"name":"stake","type":"uint96","internalType":"uint96"}]}],"stateMutability":"view"},{"type":"function","name":"getQuorumBitmapsAtBlockNumber","inputs":[{"name":"registryCoordinator","type":"address","internalType":"contract IRegistryCoordinator"},{"name":"operatorIds","type":"bytes32[]","internalType":"bytes32[]"},{"name":"blockNumber","type":"uint32","internalType":"uint32"}],"outputs":[{"name":"","type":"uint256[]","internalType":"uint256[]"}],"stateMutability":"view"},{"type":"function","name":"getTaskResponseWindowBlock","inputs":[],"outputs":[{"name":"","type":"uint32","internalType":"uint32"}],"stateMutability":"view"},{"type":"function","name":"indexToTaskStatus","inputs":[{"name":"","type":"uint32","internalType":"uint32"}],"outputs":[{"name":"","type":"uint8","internalType":"enum FinalizerTaskManager.TaskStatus"}],"stateMutability":"view"},{"type":"function","name":"initialize","inputs":[{"name":"_pauserRegistry","type":"address","internalType":"contract IPauserRegistry"},{"name":"initialOwner","type":"address","internalType":"address"},{"name":"_aggregator","type":"address","internalType":"address"},{"name":"_generator","type":"address","internalType":"address"}],"outputs":[],"stateMutability":"nonpayable"},{"type":"function","name":"latestTaskNum","inputs":[],"outputs":[{"name":"","type":"uint32","internalType":"uint32"}],"stateMutability":"view"},{"type":"function","name":"owner","inputs":[],"outputs":[{"name":"","type":"address","internalType":"address"}],"stateMutability":"view"},{"type":"function","name":"pause","inputs":[{"name":"newPausedStatus","type":"uint256","internalType":"uint256"}],"outputs":[],"stateMutability":"nonpayable"},{"type":"function","name":"pauseAll","inputs":[],"outputs":[],"stateMutability":"nonpayable"},{"type":"function","name":"paused","inputs":[{"name":"index","type":"uint8","internalType":"uint8"}],"outputs":[{"name":"","type":"bool","internalType":"bool"}],"stateMutability":"view"},{"type":"function","name":"paused","inputs":[],"outputs":[{"name":"","type":"uint256","internalType":"uint256"}],"stateMutability":"view"},{"type":"function","name":"pauserRegistry","inputs":[],"outputs":[{"name":"","type":"address","internalType":"contract IPauserRegistry"}],"stateMutability":"view"},{"type":"function","name":"registryCoordinator","inputs":[],"outputs":[{"name":"","type":"address","internalType":"contract IRegistryCoordinator"}],"stateMutability":"view"},{"type":"function","name":"renounceOwnership","inputs":[],"outputs":[],"stateMutability":"nonpayable"},{"type":"function","name":"respondToTask","inputs":[{"name":"task","type":"tuple","internalType":"struct IFinalizerTaskManager.Task","components":[{"name":"blockNumber","type":"uint256","internalType":"uint256"},{"name":"taskCreatedBlock","type":"uint32","internalType":"uint32"},{"name":"lastCompletedTaskCreatedBlock","type":"uint32","internalType":"uint32"},{"name":"quorumNumbers","type":"bytes","internalType":"bytes"},{"name":"quorumThresholdPercentage","type":"uint32","internalType":"uint32"},{"name":"lastCompletedTaskQuorumNumbers","type":"bytes","internalType":"bytes"},{"name":"lastCompletedTaskQuorumThresholdPercentage","type":"uint32","internalType":"uint32"}]},{"name":"taskResponse","type":"tuple","internalType":"struct IFinalizerTaskManager.TaskResponse","components":[{"name":"referenceTaskIndex","type":"uint32","internalType":"uint32"},{"name":"referenceTask","type":"tuple","internalType":"struct IFinalizerTaskManager.Task","components":[{"name":"blockNumber","type":"uint256","internalType":"uint256"},{"name":"taskCreatedBlock","type":"uint32","internalType":"uint32"},{"name":"lastCompletedTaskCreatedBlock","type":"uint32","internalType":"uint32"},{"name":"quorumNumbers","type":"bytes","internalType":"bytes"},{"name":"quorumThresholdPercentage","type":"uint32","internalType":"uint32"},{"name":"lastCompletedTaskQuorumNumbers","type":"bytes","internalType":"bytes"},{"name":"lastCompletedTaskQuorumThresholdPercentage","type":"uint32","internalType":"uint32"}]},{"name":"blockHash","type":"bytes32","internalType":"bytes32"},{"name":"storageProofHash","type":"bytes32","internalType":"bytes32"},{"name":"pendingStateHash","type":"bytes32","internalType":"bytes32"}]},{"name":"nonSignerStakesAndSignature","type":"tuple","internalType":"struct IBLSSignatureChecker.NonSignerStakesAndSignature","components":[{"name":"nonSignerQuorumBitmapIndices","type":"uint32[]","internalType":"uint32[]"},{"name":"nonSignerPubkeys","type":"tuple[]","internalType":"struct BN254.G1Point[]","components":[{"name":"X","type":"uint256","internalType":"uint256"},{"name":"Y","type":"uint256","internalType":"uint256"}]},{"name":"quorumApks","type":"tuple[]","internalType":"struct BN254.G1Point[]","components":[{"name":"X","type":"uint256","internalType":"uint256"},{"name":"Y","type":"uint256","internalType":"uint256"}]},{"name":"apkG2","type":"tuple","internalType":"struct BN254.G2Point","components":[{"name":"X","type":"uint256[2]","internalType":"uint256[2]"},{"name":"Y","type":"uint256[2]","internalType":"uint256[2]"}]},{"name":"sigma","type":"tuple","internalType":"struct BN254.G1Point","components":[{"name":"X","type":"uint256","internalType":"uint256"},{"name":"Y","type":"uint256","internalType":"uint256"}]},{"name":"quorumApkIndices","type":"uint32[]","internalType":"uint32[]"},{"name":"totalStakeIndices","type":"uint32[]","internalType":"uint32[]"},{"name":"nonSignerStakeIndices","type":"uint32[][]","internalType":"uint32[][]"}]}],"outputs":[],"stateMutability":"nonpayable"},{"type":"function","name":"setPauserRegistry","inputs":[{"name":"newPauserRegistry","type":"address","internalType":"contract IPauserRegistry"}],"outputs":[],"stateMutability":"nonpayable"},{"type":"function","name":"setStaleStakesForbidden","inputs":[{"name":"value","type":"bool","internalType":"bool"}],"outputs":[],"stateMutability":"nonpayable"},{"type":"function","name":"stakeRegistry","inputs":[],"outputs":[{"name":"","type":"address","internalType":"contract IStakeRegistry"}],"stateMutability":"view"},{"type":"function","name":"staleStakesForbidden","inputs":[],"outputs":[{"name":"","type":"bool","internalType":"bool"}],"stateMutability":"view"},{"type":"function","name":"taskNumber","inputs":[],"outputs":[{"name":"","type":"uint32","internalType":"uint32"}],"stateMutability":"view"},{"type":"function","name":"transferOwnership","inputs":[{"name":"newOwner","type":"address","internalType":"address"}],"outputs":[],"stateMutability":"nonpayable"},{"type":"function","name":"trySignatureAndApkVerification","inputs":[{"name":"msgHash","type":"bytes32","internalType":"bytes32"},{"name":"apk","type":"tuple","internalType":"struct BN254.G1Point","components":[{"name":"X","type":"uint256","internalType":"uint256"},{"name":"Y","type":"uint256","internalType":"uint256"}]},{"name":"apkG2","type":"tuple","internalType":"struct BN254.G2Point","components":[{"name":"X","type":"uint256[2]","internalType":"uint256[2]"},{"name":"Y","type":"uint256[2]","internalType":"uint256[2]"}]},{"name":"sigma","type":"tuple","internalType":"struct BN254.G1Point","components":[{"name":"X","type":"uint256","internalType":"uint256"},{"name":"Y","type":"uint256","internalType":"uint256"}]}],"outputs":[{"name":"pairingSuccessful","type":"bool","internalType":"bool"},{"name":"siganatureIsValid","type":"bool","internalType":"bool"}],"stateMutability":"view"},{"type":"function","name":"unpause","inputs":[{"name":"newPausedStatus","type":"uint256","internalType":"uint256"}],"outputs":[],"stateMutability":"nonpayable"},{"type":"event","name":"Initialized","inputs":[{"name":"version","type":"uint8","indexed":false,"internalType":"uint8"}],"anonymous":false},{"type":"event","name":"NewTaskCreated","inputs":[{"name":"taskIndex","type":"uint32","indexed":true,"internalType":"uint32"},{"name":"task","type":"tuple","indexed":false,"internalType":"struct IFinalizerTaskManager.Task","components":[{"name":"blockNumber","type":"uint256","internalType":"uint256"},{"name":"taskCreatedBlock","type":"uint32","internalType":"uint32"},{"name":"lastCompletedTaskCreatedBlock","type":"uint32","internalType":"uint32"},{"name":"quorumNumbers","type":"bytes","internalType":"bytes"},{"name":"quorumThresholdPercentage","type":"uint32","internalType":"uint32"},{"name":"lastCompletedTaskQuorumNumbers","type":"bytes","internalType":"bytes"},{"name":"lastCompletedTaskQuorumThresholdPercentage","type":"uint32","internalType":"uint32"}]}],"anonymous":false},{"type":"event","name":"OwnershipTransferred","inputs":[{"name":"previousOwner","type":"address","indexed":true,"internalType":"address"},{"name":"newOwner","type":"address","indexed":true,"internalType":"address"}],"anonymous":false},{"type":"event","name":"Paused","inputs":[{"name":"account","type":"address","indexed":true,"internalType":"address"},{"name":"newPausedStatus","type":"uint256","indexed":false,"internalType":"uint256"}],"anonymous":false},{"type":"event","name":"PauserRegistrySet","inputs":[{"name":"pauserRegistry","type":"address","indexed":false,"internalType":"contract IPauserRegistry"},{"name":"newPauserRegistry","type":"address","indexed":false,"internalType":"contract IPauserRegistry"}],"anonymous":false},{"type":"event","name":"StaleStakesForbiddenUpdate","inputs":[{"name":"value","type":"bool","indexed":false,"internalType":"bool"}],"anonymous":false},{"type":"event","name":"TaskCompleted","inputs":[{"name":"taskIndex","type":"uint32","indexed":true,"internalType":"uint32"},{"name":"blockHash","type":"bytes32","indexed":true,"internalType":"bytes32"}],"anonymous":false},{"type":"event","name":"TaskResponded","inputs":[{"name":"taskResponse","type":"tuple","indexed":false,"internalType":"struct IFinalizerTaskManager.TaskResponse","components":[{"name":"referenceTaskIndex","type":"uint32","internalType":"uint32"},{"name":"referenceTask","type":"tuple","internalType":"struct IFinalizerTaskManager.Task","components":[{"name":"blockNumber","type":"uint256","internalType":"uint256"},{"name":"taskCreatedBlock","type":"uint32","internalType":"uint32"},{"name":"lastCompletedTaskCreatedBlock","type":"uint32","internalType":"uint32"},{"name":"quorumNumbers","type":"bytes","internalType":"bytes"},{"name":"quorumThresholdPercentage","type":"uint32","internalType":"uint32"},{"name":"lastCompletedTaskQuorumNumbers","type":"bytes","internalType":"bytes"},{"name":"lastCompletedTaskQuorumThresholdPercentage","type":"uint32","internalType":"uint32"}]},{"name":"blockHash","type":"bytes32","internalType":"bytes32"},{"name":"storageProofHash","type":"bytes32","internalType":"bytes32"},{"name":"pendingStateHash","type":"bytes32","internalType":"bytes32"}]},{"name":"taskResponseMetadata","type":"tuple","indexed":false,"internalType":"struct IFinalizerTaskManager.TaskResponseMetadata","components":[{"name":"taskResponsedBlock","type":"uint32","internalType":"uint32"},{"name":"hashOfNonSigners","type":"bytes32","internalType":"bytes32"},{"name":"quroumStakeTotals","type":"uint96[]","internalType":"uint96[]"},{"name":"quroumStakeSigned","type":"uint96[]","internalType":"uint96[]"}]}],"anonymous":false},{"type":"event","name":"Unpaused","inputs":[{"name":"account","type":"address","indexed":true,"internalType":"address"},{"name":"newPausedStatus","type":"uint256","indexed":false,"internalType":"uint256"}],"anonymous":false}],"bytecode":{"object":"0x6101206040523480156200001257600080fd5b5060405162005cf138038062005cf18339810160408190526200003591620001f7565b81806001600160a01b03166080816001600160a01b031681525050806001600160a01b031663683048356040518163ffffffff1660e01b8152600401602060405180830381865afa1580156200008f573d6000803e3d6000fd5b505050506040513d601f19601f82011682018060405250810190620000b591906200023e565b6001600160a01b031660a0816001600160a01b031681525050806001600160a01b0316635df459466040518163ffffffff1660e01b8152600401602060405180830381865afa1580156200010d573d6000803e3d6000fd5b505050506040513d601f19601f820116820180604052508101906200013391906200023e565b6001600160a01b031660c0816001600160a01b03168152505060a0516001600160a01b031663df5cf7236040518163ffffffff1660e01b8152600401602060405180830381865afa1580156200018d573d6000803e3d6000fd5b505050506040513d601f19601f82011682018060405250810190620001b391906200023e565b6001600160a01b031660e052506097805460ff1916600117905563ffffffff16610100525062000265565b6001600160a01b0381168114620001f457600080fd5b50565b600080604083850312156200020b57600080fd5b82516200021881620001de565b602084015190925063ffffffff811681146200023357600080fd5b809150509250929050565b6000602082840312156200025157600080fd5b81516200025e81620001de565b9392505050565b60805160a05160c05160e05161010051615a08620002e9600039600081816105610152612ed9015260008181610517015261230c0152600081816103a201526124ef0152600081816103c9015281816126c5015261288701526000818161040301528181610dc801528181611fd70152818161216f01526123a90152615a086000f3fe608060405234801561001057600080fd5b50600436106102065760003560e01c80636d14a9871161011a57806399dba0c4116100ad578063ec1b16981161007c578063ec1b169814610539578063f2fde38b1461054c578063f5c9899d1461055f578063f8c8765e14610585578063fabc1cbc1461059857600080fd5b806399dba0c4146104b4578063b98d0908146104e4578063cefdc1d4146104f1578063df5cf7231461051257600080fd5b80637afa1eed116100e95780637afa1eed1461046d578063886f1195146104805780638b00ce7c146104935780638da5cb5b146104a357600080fd5b80636d14a987146103fe5780636efb463614610425578063715018a61461044657806372d18e8d1461044e57600080fd5b8063416c7e5e1161019d5780635c1556621161016c5780635c155662146103755780635c975abb146103955780635df459461461039d57806368304835146103c45780636b92787e146103eb57600080fd5b8063416c7e5e146103075780634f739f741461031a578063595c6a671461033a5780635ac86ab71461034257600080fd5b8063245a7bfc116101d9578063245a7bfc146102745780632cb223d5146102a75780632d89f6fc146102c75780633563b0d1146102e757600080fd5b80630373408d1461020b57806310d67a2f14610222578063136439dd14610237578063171f1d5b1461024a575b600080fd5b60d1545b6040519081526020015b60405180910390f35b6102356102303660046143be565b6105ab565b005b6102356102453660046143db565b610667565b61025d610258366004614559565b6107a6565b604080519215158352901515602083015201610219565b60cf5461028f9064010000000090046001600160a01b031681565b6040516001600160a01b039091168152602001610219565b61020f6102b53660046145c7565b60cb6020526000908152604090205481565b61020f6102d53660046145c7565b60ca6020526000908152604090205481565b6102fa6102f53660046145e4565b610930565b604051610219919061473f565b610235610315366004614767565b610dc6565b61032d6103283660046147cc565b610f3b565b60405161021991906148d0565b610235611661565b61036561035036600461499a565b606654600160ff9092169190911b9081161490565b6040519015158152602001610219565b6103886103833660046149da565b611728565b6040516102199190614a8b565b60665461020f565b61028f7f000000000000000000000000000000000000000000000000000000000000000081565b61028f7f000000000000000000000000000000000000000000000000000000000000000081565b6102356103f9366004614acf565b6118f0565b61028f7f000000000000000000000000000000000000000000000000000000000000000081565b610438610433366004614da6565b611c24565b604051610219929190614e66565b610235612b3c565b60c95463ffffffff165b60405163ffffffff9091168152602001610219565b60d05461028f906001600160a01b031681565b60655461028f906001600160a01b031681565b60c9546104589063ffffffff1681565b6033546001600160a01b031661028f565b6104d76104c23660046145c7565b60cc6020526000908152604090205460ff1681565b6040516102199190614ec5565b6097546103659060ff1681565b6105046104ff366004614eed565b612b50565b604051610219929190614f2f565b61028f7f000000000000000000000000000000000000000000000000000000000000000081565b610235610547366004614f50565b612ce2565b61023561055a3660046143be565b613212565b7f0000000000000000000000000000000000000000000000000000000000000000610458565b610235610593366004614fe7565b613288565b6102356105a63660046143db565b6133ee565b606560009054906101000a90046001600160a01b03166001600160a01b031663eab66d7a6040518163ffffffff1660e01b8152600401602060405180830381865afa1580156105fe573d6000803e3d6000fd5b505050506040513d601f19601f820116820180604052508101906106229190615043565b6001600160a01b0316336001600160a01b03161461065b5760405162461bcd60e51b815260040161065290615060565b60405180910390fd5b6106648161354a565b50565b60655460405163237dfb4760e11b81523360048201526001600160a01b03909116906346fbf68e90602401602060405180830381865afa1580156106af573d6000803e3d6000fd5b505050506040513d601f19601f820116820180604052508101906106d391906150aa565b6106ef5760405162461bcd60e51b8152600401610652906150c7565b606654818116146107685760405162461bcd60e51b815260206004820152603860248201527f5061757361626c652e70617573653a20696e76616c696420617474656d70742060448201527f746f20756e70617573652066756e6374696f6e616c69747900000000000000006064820152608401610652565b606681905560405181815233907fab40a374bc51de372200a8bc981af8c9ecdc08dfdaef0bb6e09f88f3c616ef3d906020015b60405180910390a250565b60008060007f30644e72e131a029b85045b68181585d2833e84879b9709143e1f593f0000001878760000151886020015188600001516000600281106107ee576107ee61510f565b60200201518951600160200201518a602001516000600281106108135761081361510f565b60200201518b6020015160016002811061082f5761082f61510f565b602090810291909101518c518d83015160405161088c9a99989796959401988952602089019790975260408801959095526060870193909352608086019190915260a085015260c084015260e08301526101008201526101200190565b6040516020818303038152906040528051906020012060001c6108af9190615125565b90506109226108c86108c18884613641565b86906136d8565b6108d061376c565b61091861090985610903604080518082018252600080825260209182015281518083019092526001825260029082015290565b90613641565b6109128c61382c565b906136d8565b886201d4c06138bc565b909890975095505050505050565b60606000846001600160a01b031663683048356040518163ffffffff1660e01b8152600401602060405180830381865afa158015610972573d6000803e3d6000fd5b505050506040513d601f19601f820116820180604052508101906109969190615043565b90506000856001600160a01b0316639e9923c26040518163ffffffff1660e01b8152600401602060405180830381865afa1580156109d8573d6000803e3d6000fd5b505050506040513d601f19601f820116820180604052508101906109fc9190615043565b90506000866001600160a01b0316635df459466040518163ffffffff1660e01b8152600401602060405180830381865afa158015610a3e573d6000803e3d6000fd5b505050506040513d601f19601f82011682018060405250810190610a629190615043565b9050600086516001600160401b03811115610a7f57610a7f6143f4565b604051908082528060200260200182016040528015610ab257816020015b6060815260200190600190039081610a9d5790505b50905060005b8751811015610dba576000888281518110610ad557610ad561510f565b0160200151604051638902624560e01b815260f89190911c6004820181905263ffffffff8a16602483015291506000906001600160a01b03871690638902624590604401600060405180830381865afa158015610b36573d6000803e3d6000fd5b505050506040513d6000823e601f3d908101601f19168201604052610b5e9190810190615147565b905080516001600160401b03811115610b7957610b796143f4565b604051908082528060200260200182016040528015610bc457816020015b6040805160608101825260008082526020808301829052928201528252600019909201910181610b975790505b50848481518110610bd757610bd761510f565b602002602001018190525060005b8151811015610da4576040518060600160405280876001600160a01b03166347b314e8858581518110610c1a57610c1a61510f565b60200260200101516040518263ffffffff1660e01b8152600401610c4091815260200190565b602060405180830381865afa158015610c5d573d6000803e3d6000fd5b505050506040513d601f19601f82011682018060405250810190610c819190615043565b6001600160a01b03168152602001838381518110610ca157610ca161510f565b60200260200101518152602001896001600160a01b031663fa28c627858581518110610ccf57610ccf61510f565b60209081029190910101516040516001600160e01b031960e084901b168152600481019190915260ff8816602482015263ffffffff8f166044820152606401602060405180830381865afa158015610d2b573d6000803e3d6000fd5b505050506040513d601f19601f82011682018060405250810190610d4f91906151d7565b6001600160601b0316815250858581518110610d6d57610d6d61510f565b60200260200101518281518110610d8657610d8661510f565b60200260200101819052508080610d9c90615216565b915050610be5565b5050508080610db290615216565b915050610ab8565b50979650505050505050565b7f00000000000000000000000000000000000000000000000000000000000000006001600160a01b0316638da5cb5b6040518163ffffffff1660e01b8152600401602060405180830381865afa158015610e24573d6000803e3d6000fd5b505050506040513d601f19601f82011682018060405250810190610e489190615043565b6001600160a01b0316336001600160a01b031614610ef45760405162461bcd60e51b815260206004820152605c60248201527f424c535369676e6174757265436865636b65722e6f6e6c79436f6f7264696e6160448201527f746f724f776e65723a2063616c6c6572206973206e6f7420746865206f776e6560648201527f72206f6620746865207265676973747279436f6f7264696e61746f7200000000608482015260a401610652565b6097805460ff19168215159081179091556040519081527f40e4ed880a29e0f6ddce307457fb75cddf4feef7d3ecb0301bfdf4976a0e2dfc9060200160405180910390a150565b610f666040518060800160405280606081526020016060815260200160608152602001606081525090565b6000876001600160a01b031663683048356040518163ffffffff1660e01b8152600401602060405180830381865afa158015610fa6573d6000803e3d6000fd5b505050506040513d601f19601f82011682018060405250810190610fca9190615043565b9050610ff76040518060800160405280606081526020016060815260200160608152602001606081525090565b6040516361c8a12f60e11b81526001600160a01b038a169063c391425e90611027908b9089908990600401615231565b600060405180830381865afa158015611044573d6000803e3d6000fd5b505050506040513d6000823e601f3d908101601f1916820160405261106c919081019061527b565b81526040516340e03a8160e11b81526001600160a01b038316906381c075029061109e908b908b908b90600401615332565b600060405180830381865afa1580156110bb573d6000803e3d6000fd5b505050506040513d6000823e601f3d908101601f191682016040526110e3919081019061527b565b6040820152856001600160401b03811115611100576111006143f4565b60405190808252806020026020018201604052801561113357816020015b606081526020019060019003908161111e5790505b50606082015260005b60ff8116871115611572576000856001600160401b03811115611161576111616143f4565b60405190808252806020026020018201604052801561118a578160200160208202803683370190505b5083606001518360ff16815181106111a4576111a461510f565b602002602001018190525060005b868110156114725760008c6001600160a01b03166304ec63518a8a858181106111dd576111dd61510f565b905060200201358e886000015186815181106111fb576111fb61510f565b60200260200101516040518463ffffffff1660e01b81526004016112389392919092835263ffffffff918216602084015216604082015260600190565b602060405180830381865afa158015611255573d6000803e3d6000fd5b505050506040513d601f19601f82011682018060405250810190611279919061535b565b90506001600160c01b03811661131d5760405162461bcd60e51b815260206004820152605c60248201527f4f70657261746f7253746174655265747269657665722e676574436865636b5360448201527f69676e617475726573496e64696365733a206f70657261746f72206d7573742060648201527f6265207265676973746572656420617420626c6f636b6e756d62657200000000608482015260a401610652565b8a8a8560ff168181106113325761133261510f565b6001600160c01b03841692013560f81c9190911c60019081161415905061145f57856001600160a01b031663dd9846b98a8a858181106113745761137461510f565b905060200201358d8d8860ff168181106113905761139061510f565b6040516001600160e01b031960e087901b1681526004810194909452919091013560f81c60248301525063ffffffff8f166044820152606401602060405180830381865afa1580156113e6573d6000803e3d6000fd5b505050506040513d601f19601f8201168201806040525081019061140a9190615384565b85606001518560ff16815181106114235761142361510f565b6020026020010151848151811061143c5761143c61510f565b63ffffffff909216602092830291909101909101528261145b81615216565b9350505b508061146a81615216565b9150506111b2565b506000816001600160401b0381111561148d5761148d6143f4565b6040519080825280602002602001820160405280156114b6578160200160208202803683370190505b50905060005b828110156115375784606001518460ff16815181106114dd576114dd61510f565b602002602001015181815181106114f6576114f661510f565b60200260200101518282815181106115105761151061510f565b63ffffffff909216602092830291909101909101528061152f81615216565b9150506114bc565b508084606001518460ff16815181106115525761155261510f565b60200260200101819052505050808061156a906153a1565b91505061113c565b506000896001600160a01b0316635df459466040518163ffffffff1660e01b8152600401602060405180830381865afa1580156115b3573d6000803e3d6000fd5b505050506040513d601f19601f820116820180604052508101906115d79190615043565b60405163354952a360e21b81529091506001600160a01b0382169063d5254a8c9061160a908b908b908e906004016153c1565b600060405180830381865afa158015611627573d6000803e3d6000fd5b505050506040513d6000823e601f3d908101601f1916820160405261164f919081019061527b565b60208301525098975050505050505050565b60655460405163237dfb4760e11b81523360048201526001600160a01b03909116906346fbf68e90602401602060405180830381865afa1580156116a9573d6000803e3d6000fd5b505050506040513d601f19601f820116820180604052508101906116cd91906150aa565b6116e95760405162461bcd60e51b8152600401610652906150c7565b600019606681905560405190815233907fab40a374bc51de372200a8bc981af8c9ecdc08dfdaef0bb6e09f88f3c616ef3d9060200160405180910390a2565b60606000846001600160a01b031663c391425e84866040518363ffffffff1660e01b815260040161175a9291906153eb565b600060405180830381865afa158015611777573d6000803e3d6000fd5b505050506040513d6000823e601f3d908101601f1916820160405261179f919081019061527b565b9050600084516001600160401b038111156117bc576117bc6143f4565b6040519080825280602002602001820160405280156117e5578160200160208202803683370190505b50905060005b85518110156118e657866001600160a01b03166304ec63518783815181106118155761181561510f565b6020026020010151878685815181106118305761183061510f565b60200260200101516040518463ffffffff1660e01b815260040161186d9392919092835263ffffffff918216602084015216604082015260600190565b602060405180830381865afa15801561188a573d6000803e3d6000fd5b505050506040513d601f19601f820116820180604052508101906118ae919061535b565b6001600160c01b03168282815181106118c9576118c961510f565b6020908102919091010152806118de81615216565b9150506117eb565b5095945050505050565b60d0546001600160a01b031633146119325760405162461bcd60e51b8152602060048201526005602482015264417574683160d81b6044820152606401610652565b60cd5463ffffffff16431480159061194957504315155b6119bb5760405162461bcd60e51b815260206004820152603960248201527f43616e2774206372656174652061207461736b20696e207468652073616d652060448201527f626c6f636b206173206120636f6d706c65746564207461736b000000000000006064820152608401610652565b6040805160e0810182526000818301819052606080830181905260a083015260c082015285815263ffffffff43811660208084019190915290861660808301528251601f85018290048202810182019093528383529091908490849081908401838280828437600092019190915250505050606082015260cd5463ffffffff16604082015260ce8054611a4d9061543f565b80601f0160208091040260200160405190810160405280929190818152602001828054611a799061543f565b8015611ac65780601f10611a9b57610100808354040283529160200191611ac6565b820191906000526020600020905b815481529060010190602001808311611aa957829003601f168201915b505050505060a082015260cf5463ffffffff90811660c083015260c9541615611b585760c954600090611b019060019063ffffffff1661547a565b9050600163ffffffff8216600090815260cc602052604090205460ff166003811115611b2f57611b2f614eaf565b1415611b565763ffffffff8116600090815260cc60205260409020805460ff191660021790555b505b80604051602001611b6991906154ec565b60408051808303601f19018152828252805160209182012060c9805463ffffffff908116600090815260ca85528581209390935581548116835260cc909352929020805460ff19166001179055905416907f933fbdf390ba7173f9bf83f5459edf1ae41ae5edbde6c8f9b374d979d30900be90611be79084906154ec565b60405180910390a260c954611c039063ffffffff16600161557f565b60c9805463ffffffff191663ffffffff929092169190911790555050505050565b6040805180820190915260608082526020820152600084611c9b5760405162461bcd60e51b815260206004820152603760248201526000805160206159b383398151915260448201527f7265733a20656d7074792071756f72756d20696e7075740000000000000000006064820152608401610652565b60408301515185148015611cb3575060a08301515185145b8015611cc3575060c08301515185145b8015611cd3575060e08301515185145b611d3d5760405162461bcd60e51b815260206004820152604160248201526000805160206159b383398151915260448201527f7265733a20696e7075742071756f72756d206c656e677468206d69736d6174636064820152600d60fb1b608482015260a401610652565b82515160208401515114611db55760405162461bcd60e51b8152602060048201526044602482018190526000805160206159b3833981519152908201527f7265733a20696e707574206e6f6e7369676e6572206c656e677468206d69736d6064820152630c2e8c6d60e31b608482015260a401610652565b4363ffffffff168463ffffffff1610611e245760405162461bcd60e51b815260206004820152603c60248201526000805160206159b383398151915260448201527f7265733a20696e76616c6964207265666572656e636520626c6f636b000000006064820152608401610652565b6040805180820182526000808252602080830191909152825180840190935260608084529083015290866001600160401b03811115611e6557611e656143f4565b604051908082528060200260200182016040528015611e8e578160200160208202803683370190505b506020820152866001600160401b03811115611eac57611eac6143f4565b604051908082528060200260200182016040528015611ed5578160200160208202803683370190505b50815260408051808201909152606080825260208201528560200151516001600160401b03811115611f0957611f096143f4565b604051908082528060200260200182016040528015611f32578160200160208202803683370190505b5081526020860151516001600160401b03811115611f5257611f526143f4565b604051908082528060200260200182016040528015611f7b578160200160208202803683370190505b508160200181905250600061204d8a8a8080601f0160208091040260200160405190810160405280939291908181526020018383808284376000920191909152505060408051639aa1653d60e01b815290516001600160a01b037f0000000000000000000000000000000000000000000000000000000000000000169350639aa1653d925060048083019260209291908290030181865afa158015612024573d6000803e3d6000fd5b505050506040513d601f19601f8201168201806040525081019061204891906155a7565b613ae0565b905060005b8760200151518110156122e857612097886020015182815181106120785761207861510f565b6020026020010151805160009081526020918201519091526040902090565b836020015182815181106120ad576120ad61510f565b6020908102919091010152801561216d5760208301516120ce6001836155c4565b815181106120de576120de61510f565b602002602001015160001c836020015182815181106120ff576120ff61510f565b602002602001015160001c1161216d576040805162461bcd60e51b81526020600482015260248101919091526000805160206159b383398151915260448201527f7265733a206e6f6e5369676e65725075626b657973206e6f7420736f727465646064820152608401610652565b7f00000000000000000000000000000000000000000000000000000000000000006001600160a01b03166304ec6351846020015183815181106121b2576121b261510f565b60200260200101518b8b6000015185815181106121d1576121d161510f565b60200260200101516040518463ffffffff1660e01b815260040161220e9392919092835263ffffffff918216602084015216604082015260600190565b602060405180830381865afa15801561222b573d6000803e3d6000fd5b505050506040513d601f19601f8201168201806040525081019061224f919061535b565b6001600160c01b03168360000151828151811061226e5761226e61510f565b6020026020010181815250506122d46108c16122a8848660000151858151811061229a5761229a61510f565b602002602001015116613b73565b8a6020015184815181106122be576122be61510f565b6020026020010151613b9e90919063ffffffff16565b9450806122e081615216565b915050612052565b50506122f383613c82565b60975490935060ff1660008161230a57600061238c565b7f00000000000000000000000000000000000000000000000000000000000000006001600160a01b031663c448feb86040518163ffffffff1660e01b8152600401602060405180830381865afa158015612368573d6000803e3d6000fd5b505050506040513d601f19601f8201168201806040525081019061238c91906155db565b905060005b8a811015612a0b5782156124ed578963ffffffff16827f00000000000000000000000000000000000000000000000000000000000000006001600160a01b031663249a0c428f8f868181106123e8576123e861510f565b60405160e085901b6001600160e01b031916815292013560f81c600483015250602401602060405180830381865afa158015612428573d6000803e3d6000fd5b505050506040513d601f19601f8201168201806040525081019061244c91906155db565b61245691906155f4565b10156124ed5760405162461bcd60e51b815260206004820152606660248201526000805160206159b383398151915260448201527f7265733a205374616b6552656769737472792075706461746573206d7573742060648201527f62652077697468696e207769746864726177616c44656c6179426c6f636b732060848201526577696e646f7760d01b60a482015260c401610652565b7f00000000000000000000000000000000000000000000000000000000000000006001600160a01b03166368bccaac8d8d8481811061252e5761252e61510f565b9050013560f81c60f81b60f81c8c8c60a0015185815181106125525761255261510f565b60209081029190910101516040516001600160e01b031960e086901b16815260ff909316600484015263ffffffff9182166024840152166044820152606401602060405180830381865afa1580156125ae573d6000803e3d6000fd5b505050506040513d601f19601f820116820180604052508101906125d2919061560c565b6001600160401b0319166125f58a6040015183815181106120785761207861510f565b67ffffffffffffffff1916146126915760405162461bcd60e51b815260206004820152606160248201526000805160206159b383398151915260448201527f7265733a2071756f72756d41706b206861736820696e2073746f72616765206460648201527f6f6573206e6f74206d617463682070726f76696465642071756f72756d2061706084820152606b60f81b60a482015260c401610652565b6126c1896040015182815181106126aa576126aa61510f565b6020026020010151876136d890919063ffffffff16565b95507f00000000000000000000000000000000000000000000000000000000000000006001600160a01b031663c8294c568d8d848181106127045761270461510f565b9050013560f81c60f81b60f81c8c8c60c0015185815181106127285761272861510f565b60209081029190910101516040516001600160e01b031960e086901b16815260ff909316600484015263ffffffff9182166024840152166044820152606401602060405180830381865afa158015612784573d6000803e3d6000fd5b505050506040513d601f19601f820116820180604052508101906127a891906151d7565b856020015182815181106127be576127be61510f565b6001600160601b039092166020928302919091018201528501518051829081106127ea576127ea61510f565b6020026020010151856000015182815181106128085761280861510f565b60200260200101906001600160601b031690816001600160601b0316815250506000805b8a60200151518110156129f657612880866000015182815181106128525761285261510f565b60200260200101518f8f8681811061286c5761286c61510f565b600192013560f81c9290921c811614919050565b156129e4577f00000000000000000000000000000000000000000000000000000000000000006001600160a01b031663f2be94ae8f8f868181106128c6576128c661510f565b9050013560f81c60f81b60f81c8e896020015185815181106128ea576128ea61510f565b60200260200101518f60e0015188815181106129085761290861510f565b602002602001015187815181106129215761292161510f565b60209081029190910101516040516001600160e01b031960e087901b16815260ff909416600485015263ffffffff92831660248501526044840191909152166064820152608401602060405180830381865afa158015612985573d6000803e3d6000fd5b505050506040513d601f19601f820116820180604052508101906129a991906151d7565b87518051859081106129bd576129bd61510f565b602002602001018181516129d19190615637565b6001600160601b03169052506001909101905b806129ee81615216565b91505061282c565b50508080612a0390615216565b915050612391565b505050600080612a258c868a606001518b608001516107a6565b9150915081612a965760405162461bcd60e51b815260206004820152604360248201526000805160206159b383398151915260448201527f7265733a2070616972696e6720707265636f6d70696c652063616c6c206661696064820152621b195960ea1b608482015260a401610652565b80612af75760405162461bcd60e51b815260206004820152603960248201526000805160206159b383398151915260448201527f7265733a207369676e617475726520697320696e76616c6964000000000000006064820152608401610652565b50506000878260200151604051602001612b12929190615657565b60408051808303601f190181529190528051602090910120929b929a509198505050505050505050565b612b44613d1d565b612b4e6000613d77565b565b6040805160018082528183019092526000916060918391602080830190803683370190505090508481600081518110612b8b57612b8b61510f565b60209081029190910101526040516361c8a12f60e11b81526000906001600160a01b0388169063c391425e90612bc790889086906004016153eb565b600060405180830381865afa158015612be4573d6000803e3d6000fd5b505050506040513d6000823e601f3d908101601f19168201604052612c0c919081019061527b565b600081518110612c1e57612c1e61510f565b60209081029190910101516040516304ec635160e01b81526004810188905263ffffffff87811660248301529091166044820181905291506000906001600160a01b038916906304ec635190606401602060405180830381865afa158015612c8a573d6000803e3d6000fd5b505050506040513d601f19601f82011682018060405250810190612cae919061535b565b6001600160c01b031690506000612cc482613dc9565b905081612cd28a838a610930565b9550955050505050935093915050565b60cf5464010000000090046001600160a01b03163314612d2c5760405162461bcd60e51b8152602060048201526005602482015264041757468360dc1b6044820152606401610652565b6000612d3e60408501602086016145c7565b9050366000612d50606087018761569f565b90925090506000612d6760a08801608089016145c7565b905060ca6000612d7a60208901896145c7565b63ffffffff1663ffffffff1681526020019081526020016000205487604051602001612da691906157e2565b6040516020818303038152906040528051906020012014612e2f5760405162461bcd60e51b815260206004820152603d60248201527f737570706c696564207461736b20646f6573206e6f74206d617463682074686560448201527f206f6e65207265636f7264656420696e2074686520636f6e74726163740000006064820152608401610652565b600160cc6000612e4260208a018a6145c7565b63ffffffff16815260208101919091526040016000205460ff166003811115612e6d57612e6d614eaf565b14612e8a5760405162461bcd60e51b8152600401610652906157f5565b600060cb81612e9c60208a018a6145c7565b63ffffffff1663ffffffff1681526020019081526020016000205414612ed45760405162461bcd60e51b8152600401610652906157f5565b612efe7f00000000000000000000000000000000000000000000000000000000000000008561557f565b63ffffffff164363ffffffff161115612f6f5760405162461bcd60e51b815260206004820152602d60248201527f41676772656761746f722068617320726573706f6e64656420746f207468652060448201526c7461736b20746f6f206c61746560981b6064820152608401610652565b600086604051602001612f8291906158ae565b604051602081830303815290604052805190602001209050600080612faa8387878a8c611c24565b6040805160808101825263ffffffff43168152602080820184905280850151828401528451606083015291519395509193509091612fec918c918491016158c1565b6040516020818303038152906040528051906020012060cb60008c600001602081019061301991906145c7565b63ffffffff1663ffffffff168152602001908152602001600020819055507f85ce7d7f483a7817c920b8157377a90f35a14c3219cb442a397c74ef7a5f81658a826040516130689291906158c1565b60405180910390a160005b86811015613109578560ff16846020015182815181106130955761309561510f565b60200260200101516130a79190615922565b6001600160601b03166064856000015183815181106130c8576130c861510f565b60200260200101516001600160601b03166130e39190615951565b10156130f757505050505050505050505050565b8061310181615216565b915050613073565b5060808a013560d155600360cc600061312560208e018e6145c7565b63ffffffff16815260208101919091526040016000205460ff16600381111561315057613150614eaf565b50613163905060408c0160208d016145c7565b60cd805463ffffffff191663ffffffff9290921691909117905561318a60608c018c61569f565b6131969160ce91614236565b506131a760a08c0160808d016145c7565b60cf805463ffffffff191663ffffffff9290921691909117905560408a01356131d360208c018c6145c7565b63ffffffff167f8378be8a33cf3a493910a16e275cd96af4f048c5eb1a2c2962d4066e697fea8060405160405180910390a35050505050505050505050565b61321a613d1d565b6001600160a01b03811661327f5760405162461bcd60e51b815260206004820152602660248201527f4f776e61626c653a206e6577206f776e657220697320746865207a65726f206160448201526564647265737360d01b6064820152608401610652565b61066481613d77565b600054610100900460ff16158080156132a85750600054600160ff909116105b806132c25750303b1580156132c2575060005460ff166001145b6133255760405162461bcd60e51b815260206004820152602e60248201527f496e697469616c697a61626c653a20636f6e747261637420697320616c72656160448201526d191e481a5b9a5d1a585b1a5e995960921b6064820152608401610652565b6000805460ff191660011790558015613348576000805461ff0019166101001790555b613353856000613e95565b61335c84613d77565b60cf8054640100000000600160c01b0319166401000000006001600160a01b03868116919091029190911790915560d080546001600160a01b03191691841691909117905580156133e7576000805461ff0019169055604051600181527f7f26b83ff96e1f2b6a682f133852f6798a09c465da95921460cefb38474024989060200160405180910390a15b5050505050565b606560009054906101000a90046001600160a01b03166001600160a01b031663eab66d7a6040518163ffffffff1660e01b8152600401602060405180830381865afa158015613441573d6000803e3d6000fd5b505050506040513d601f19601f820116820180604052508101906134659190615043565b6001600160a01b0316336001600160a01b0316146134955760405162461bcd60e51b815260040161065290615060565b6066541981196066541916146135135760405162461bcd60e51b815260206004820152603860248201527f5061757361626c652e756e70617573653a20696e76616c696420617474656d7060448201527f7420746f2070617573652066756e6374696f6e616c69747900000000000000006064820152608401610652565b606681905560405181815233907f3582d1828e26bf56bd801502bc021ac0bc8afb57c826e4986b45593c8fad389c9060200161079b565b6001600160a01b0381166135d85760405162461bcd60e51b815260206004820152604960248201527f5061757361626c652e5f73657450617573657252656769737472793a206e657760448201527f50617573657252656769737472792063616e6e6f7420626520746865207a65726064820152686f206164647265737360b81b608482015260a401610652565b606554604080516001600160a01b03928316815291831660208301527f6e9fcd539896fca60e8b0f01dd580233e48a6b0f7df013b89ba7f565869acdb6910160405180910390a1606580546001600160a01b0319166001600160a01b0392909216919091179055565b604080518082019091526000808252602082015261365d6142ba565b835181526020808501519082015260408082018490526000908360608460076107d05a03fa905080801561369057613692565bfe5b50806136d05760405162461bcd60e51b815260206004820152600d60248201526c1958cb5b5d5b0b59985a5b1959609a1b6044820152606401610652565b505092915050565b60408051808201909152600080825260208201526136f46142d8565b835181526020808501518183015283516040808401919091529084015160608301526000908360808460066107d05a03fa90508080156136905750806136d05760405162461bcd60e51b815260206004820152600d60248201526c1958cb5859190b59985a5b1959609a1b6044820152606401610652565b6137746142f6565b50604080516080810182527f198e9393920d483a7260bfb731fb5d25f1aa493335a9e71297e485b7aef312c28183019081527f1800deef121f1e76426a00665e5c4479674322d4f75edadd46debd5cd992f6ed6060830152815281518083019092527f275dc4a288d1afb3cbb1ac09187524c7db36395df7be3b99e673b13a075a65ec82527f1d9befcd05a5323e6da4d435f3b617cdb3af83285c2df711ef39c01571827f9d60208381019190915281019190915290565b60408051808201909152600080825260208201526000808061385c60008051602061599383398151915286615125565b90505b61386881613f7f565b90935091506000805160206159938339815191528283098314156138a2576040805180820190915290815260208101919091529392505050565b60008051602061599383398151915260018208905061385f565b6040805180820182528681526020808201869052825180840190935286835282018490526000918291906138ee61431b565b60005b6002811015613ab3576000613907826006615951565b905084826002811061391b5761391b61510f565b6020020151518361392d8360006155f4565b600c811061393d5761393d61510f565b60200201528482600281106139545761395461510f565b6020020151602001518382600161396b91906155f4565b600c811061397b5761397b61510f565b60200201528382600281106139925761399261510f565b60200201515151836139a58360026155f4565b600c81106139b5576139b561510f565b60200201528382600281106139cc576139cc61510f565b60200201515160016020020151836139e58360036155f4565b600c81106139f5576139f561510f565b6020020152838260028110613a0c57613a0c61510f565b602002015160200151600060028110613a2757613a2761510f565b602002015183613a388360046155f4565b600c8110613a4857613a4861510f565b6020020152838260028110613a5f57613a5f61510f565b602002015160200151600160028110613a7a57613a7a61510f565b602002015183613a8b8360056155f4565b600c8110613a9b57613a9b61510f565b60200201525080613aab81615216565b9150506138f1565b50613abc61433a565b60006020826101808560088cfa9151919c9115159b50909950505050505050505050565b600080613aec84614001565b9050808360ff166001901b11613b6a5760405162461bcd60e51b815260206004820152603f60248201527f4269746d61705574696c732e6f72646572656442797465734172726179546f4260448201527f69746d61703a206269746d61702065786365656473206d61782076616c7565006064820152608401610652565b90505b92915050565b6000805b8215613b6d57613b886001846155c4565b9092169180613b9681615970565b915050613b77565b60408051808201909152600080825260208201526102008261ffff1610613bfa5760405162461bcd60e51b815260206004820152601060248201526f7363616c61722d746f6f2d6c6172676560801b6044820152606401610652565b8161ffff1660011415613c0e575081613b6d565b6040805180820190915260008082526020820181905284906001905b8161ffff168661ffff1610613c7757600161ffff871660ff83161c81161415613c5a57613c5784846136d8565b93505b613c6483846136d8565b92506201fffe600192831b169101613c2a565b509195945050505050565b60408051808201909152600080825260208201528151158015613ca757506020820151155b15613cc5575050604080518082019091526000808252602082015290565b6040518060400160405280836000015181526020016000805160206159938339815191528460200151613cf89190615125565b613d10906000805160206159938339815191526155c4565b905292915050565b919050565b6033546001600160a01b03163314612b4e5760405162461bcd60e51b815260206004820181905260248201527f4f776e61626c653a2063616c6c6572206973206e6f7420746865206f776e65726044820152606401610652565b603380546001600160a01b038381166001600160a01b0319831681179093556040519116919082907f8be0079c531659141344cd1fd0a4f28419497f9722a3daafe3b4186f6b6457e090600090a35050565b6060600080613dd784613b73565b61ffff166001600160401b03811115613df257613df26143f4565b6040519080825280601f01601f191660200182016040528015613e1c576020820181803683370190505b5090506000805b825182108015613e34575061010081105b15613e8b576001811b935085841615613e7b578060f81b838381518110613e5d57613e5d61510f565b60200101906001600160f81b031916908160001a9053508160010191505b613e8481615216565b9050613e23565b5090949350505050565b6065546001600160a01b0316158015613eb657506001600160a01b03821615155b613f385760405162461bcd60e51b815260206004820152604760248201527f5061757361626c652e5f696e697469616c697a655061757365723a205f696e6960448201527f7469616c697a6550617573657228292063616e206f6e6c792062652063616c6c6064820152666564206f6e636560c81b608482015260a401610652565b606681905560405181815233907fab40a374bc51de372200a8bc981af8c9ecdc08dfdaef0bb6e09f88f3c616ef3d9060200160405180910390a2613f7b8261354a565b5050565b60008080600080516020615993833981519152600360008051602061599383398151915286600080516020615993833981519152888909090890506000613ff5827f0c19139cb84c680a6e14116da060561765e05aa45a1c72a34f082305b61f3f5260008051602061599383398151915261418e565b91959194509092505050565b60006101008251111561408a5760405162461bcd60e51b8152602060048201526044602482018190527f4269746d61705574696c732e6f72646572656442797465734172726179546f42908201527f69746d61703a206f7264657265644279746573417272617920697320746f6f206064820152636c6f6e6760e01b608482015260a401610652565b815161409857506000919050565b600080836000815181106140ae576140ae61510f565b0160200151600160f89190911c81901b92505b8451811015614185578481815181106140dc576140dc61510f565b0160200151600160f89190911c1b91508282116141715760405162461bcd60e51b815260206004820152604760248201527f4269746d61705574696c732e6f72646572656442797465734172726179546f4260448201527f69746d61703a206f72646572656442797465734172726179206973206e6f74206064820152661bdc99195c995960ca1b608482015260a401610652565b9181179161417e81615216565b90506140c1565b50909392505050565b60008061419961433a565b6141a1614358565b602080825281810181905260408201819052606082018890526080820187905260a082018690528260c08360056107d05a03fa925082801561369057508261422b5760405162461bcd60e51b815260206004820152601a60248201527f424e3235342e6578704d6f643a2063616c6c206661696c7572650000000000006044820152606401610652565b505195945050505050565b8280546142429061543f565b90600052602060002090601f01602090048101928261426457600085556142aa565b82601f1061427d5782800160ff198235161785556142aa565b828001600101855582156142aa579182015b828111156142aa57823582559160200191906001019061428f565b506142b6929150614376565b5090565b60405180606001604052806003906020820280368337509192915050565b60405180608001604052806004906020820280368337509192915050565b604051806040016040528061430961438b565b815260200161431661438b565b905290565b604051806101800160405280600c906020820280368337509192915050565b60405180602001604052806001906020820280368337509192915050565b6040518060c001604052806006906020820280368337509192915050565b5b808211156142b65760008155600101614377565b60405180604001604052806002906020820280368337509192915050565b6001600160a01b038116811461066457600080fd5b6000602082840312156143d057600080fd5b8135613b6a816143a9565b6000602082840312156143ed57600080fd5b5035919050565b634e487b7160e01b600052604160045260246000fd5b604080519081016001600160401b038111828210171561442c5761442c6143f4565b60405290565b60405161010081016001600160401b038111828210171561442c5761442c6143f4565b604051601f8201601f191681016001600160401b038111828210171561447d5761447d6143f4565b604052919050565b60006040828403121561449757600080fd5b61449f61440a565b9050813581526020820135602082015292915050565b600082601f8301126144c657600080fd5b604051604081018181106001600160401b03821117156144e8576144e86143f4565b80604052508060408401858111156144ff57600080fd5b845b81811015613c77578035835260209283019201614501565b60006080828403121561452b57600080fd5b61453361440a565b905061453f83836144b5565b815261454e83604084016144b5565b602082015292915050565b600080600080610120858703121561457057600080fd5b843593506145818660208701614485565b92506145908660608701614519565b915061459f8660e08701614485565b905092959194509250565b63ffffffff8116811461066457600080fd5b8035613d18816145aa565b6000602082840312156145d957600080fd5b8135613b6a816145aa565b6000806000606084860312156145f957600080fd5b8335614604816143a9565b92506020848101356001600160401b038082111561462157600080fd5b818701915087601f83011261463557600080fd5b813581811115614647576146476143f4565b614659601f8201601f19168501614455565b9150808252888482850101111561466f57600080fd5b8084840185840137600084828401015250809450505050614692604085016145bc565b90509250925092565b600081518084526020808501808196508360051b810191508286016000805b86811015614731578385038a52825180518087529087019087870190845b8181101561471c57835180516001600160a01b031684528a8101518b8501526040908101516001600160601b031690840152928901926060909201916001016146d8565b50509a87019a955050918501916001016146ba565b509298975050505050505050565b602081526000614752602083018461469b565b9392505050565b801515811461066457600080fd5b60006020828403121561477957600080fd5b8135613b6a81614759565b60008083601f84011261479657600080fd5b5081356001600160401b038111156147ad57600080fd5b6020830191508360208285010111156147c557600080fd5b9250929050565b600080600080600080608087890312156147e557600080fd5b86356147f0816143a9565b95506020870135614800816145aa565b945060408701356001600160401b038082111561481c57600080fd5b6148288a838b01614784565b9096509450606089013591508082111561484157600080fd5b818901915089601f83011261485557600080fd5b81358181111561486457600080fd5b8a60208260051b850101111561487957600080fd5b6020830194508093505050509295509295509295565b600081518084526020808501945080840160005b838110156148c557815163ffffffff16875295820195908201906001016148a3565b509495945050505050565b6000602080835283516080828501526148ec60a085018261488f565b905081850151601f1980868403016040870152614909838361488f565b92506040870151915080868403016060870152614926838361488f565b60608801518782038301608089015280518083529194508501925084840190600581901b8501860160005b8281101561497d578487830301845261496b82875161488f565b95880195938801939150600101614951565b509998505050505050505050565b60ff8116811461066457600080fd5b6000602082840312156149ac57600080fd5b8135613b6a8161498b565b60006001600160401b038211156149d0576149d06143f4565b5060051b60200190565b6000806000606084860312156149ef57600080fd5b83356149fa816143a9565b92506020848101356001600160401b03811115614a1657600080fd5b8501601f81018713614a2757600080fd5b8035614a3a614a35826149b7565b614455565b81815260059190911b82018301908381019089831115614a5957600080fd5b928401925b82841015614a7757833582529284019290840190614a5e565b8096505050505050614692604085016145bc565b6020808252825182820181905260009190848201906040850190845b81811015614ac357835183529284019291840191600101614aa7565b50909695505050505050565b60008060008060608587031215614ae557600080fd5b843593506020850135614af7816145aa565b925060408501356001600160401b03811115614b1257600080fd5b614b1e87828801614784565b95989497509550505050565b600082601f830112614b3b57600080fd5b81356020614b4b614a35836149b7565b82815260059290921b84018101918181019086841115614b6a57600080fd5b8286015b84811015614b8e578035614b81816145aa565b8352918301918301614b6e565b509695505050505050565b600082601f830112614baa57600080fd5b81356020614bba614a35836149b7565b82815260069290921b84018101918181019086841115614bd957600080fd5b8286015b84811015614b8e57614bef8882614485565b835291830191604001614bdd565b600082601f830112614c0e57600080fd5b81356020614c1e614a35836149b7565b82815260059290921b84018101918181019086841115614c3d57600080fd5b8286015b84811015614b8e5780356001600160401b03811115614c605760008081fd5b614c6e8986838b0101614b2a565b845250918301918301614c41565b60006101808284031215614c8f57600080fd5b614c97614432565b905081356001600160401b0380821115614cb057600080fd5b614cbc85838601614b2a565b83526020840135915080821115614cd257600080fd5b614cde85838601614b99565b60208401526040840135915080821115614cf757600080fd5b614d0385838601614b99565b6040840152614d158560608601614519565b6060840152614d278560e08601614485565b6080840152610120840135915080821115614d4157600080fd5b614d4d85838601614b2a565b60a0840152610140840135915080821115614d6757600080fd5b614d7385838601614b2a565b60c0840152610160840135915080821115614d8d57600080fd5b50614d9a84828501614bfd565b60e08301525092915050565b600080600080600060808688031215614dbe57600080fd5b8535945060208601356001600160401b0380821115614ddc57600080fd5b614de889838a01614784565b909650945060408801359150614dfd826145aa565b90925060608701359080821115614e1357600080fd5b50614e2088828901614c7c565b9150509295509295909350565b600081518084526020808501945080840160005b838110156148c55781516001600160601b031687529582019590820190600101614e41565b6040815260008351604080840152614e816080840182614e2d565b90506020850151603f19848303016060850152614e9e8282614e2d565b925050508260208301529392505050565b634e487b7160e01b600052602160045260246000fd5b6020810160048310614ee757634e487b7160e01b600052602160045260246000fd5b91905290565b600080600060608486031215614f0257600080fd5b8335614f0d816143a9565b9250602084013591506040840135614f24816145aa565b809150509250925092565b828152604060208201526000614f48604083018461469b565b949350505050565b600080600060608486031215614f6557600080fd5b83356001600160401b0380821115614f7c57600080fd5b9085019060e08288031215614f9057600080fd5b90935060208501359080821115614fa657600080fd5b9085019060a08288031215614fba57600080fd5b90925060408501359080821115614fd057600080fd5b50614fdd86828701614c7c565b9150509250925092565b60008060008060808587031215614ffd57600080fd5b8435615008816143a9565b93506020850135615018816143a9565b92506040850135615028816143a9565b91506060850135615038816143a9565b939692955090935050565b60006020828403121561505557600080fd5b8151613b6a816143a9565b6020808252602a908201527f6d73672e73656e646572206973206e6f74207065726d697373696f6e6564206160408201526939903ab73830bab9b2b960b11b606082015260800190565b6000602082840312156150bc57600080fd5b8151613b6a81614759565b60208082526028908201527f6d73672e73656e646572206973206e6f74207065726d697373696f6e6564206160408201526739903830bab9b2b960c11b606082015260800190565b634e487b7160e01b600052603260045260246000fd5b60008261514257634e487b7160e01b600052601260045260246000fd5b500690565b6000602080838503121561515a57600080fd5b82516001600160401b0381111561517057600080fd5b8301601f8101851361518157600080fd5b805161518f614a35826149b7565b81815260059190911b820183019083810190878311156151ae57600080fd5b928401925b828410156151cc578351825292840192908401906151b3565b979650505050505050565b6000602082840312156151e957600080fd5b81516001600160601b0381168114613b6a57600080fd5b634e487b7160e01b600052601160045260246000fd5b600060001982141561522a5761522a615200565b5060010190565b63ffffffff84168152604060208201819052810182905260006001600160fb1b0383111561525e57600080fd5b8260051b8085606085013760009201606001918252509392505050565b6000602080838503121561528e57600080fd5b82516001600160401b038111156152a457600080fd5b8301601f810185136152b557600080fd5b80516152c3614a35826149b7565b81815260059190911b820183019083810190878311156152e257600080fd5b928401925b828410156151cc5783516152fa816145aa565b825292840192908401906152e7565b81835281816020850137506000828201602090810191909152601f909101601f19169091010190565b63ffffffff84168152604060208201526000615352604083018486615309565b95945050505050565b60006020828403121561536d57600080fd5b81516001600160c01b0381168114613b6a57600080fd5b60006020828403121561539657600080fd5b8151613b6a816145aa565b600060ff821660ff8114156153b8576153b8615200565b60010192915050565b6040815260006153d5604083018587615309565b905063ffffffff83166020830152949350505050565b60006040820163ffffffff851683526020604081850152818551808452606086019150828701935060005b8181101561543257845183529383019391830191600101615416565b5090979650505050505050565b600181811c9082168061545357607f821691505b6020821081141561547457634e487b7160e01b600052602260045260246000fd5b50919050565b600063ffffffff8381169083168181101561549757615497615200565b039392505050565b6000815180845260005b818110156154c5576020818501810151868301820152016154a9565b818111156154d7576000602083870101525b50601f01601f19169290920160200192915050565b60208152815160208201526000602083015163ffffffff80821660408501528060408601511660608501526060850151915060e0608085015261553361010085018361549f565b91508060808601511660a08501525060a0840151601f198483030160c085015261555d828261549f565b91505060c084015161557760e085018263ffffffff169052565b509392505050565b600063ffffffff80831681851680830382111561559e5761559e615200565b01949350505050565b6000602082840312156155b957600080fd5b8151613b6a8161498b565b6000828210156155d6576155d6615200565b500390565b6000602082840312156155ed57600080fd5b5051919050565b6000821982111561560757615607615200565b500190565b60006020828403121561561e57600080fd5b815167ffffffffffffffff1981168114613b6a57600080fd5b60006001600160601b038381169083168181101561549757615497615200565b63ffffffff60e01b8360e01b1681526000600482018351602080860160005b8381101561569257815185529382019390820190600101615676565b5092979650505050505050565b6000808335601e198436030181126156b657600080fd5b8301803591506001600160401b038211156156d057600080fd5b6020019150368190038213156147c557600080fd5b6000808335601e198436030181126156fc57600080fd5b83016020810192503590506001600160401b0381111561571b57600080fd5b8036038313156147c557600080fd5b803582526000602082013561573e816145aa565b63ffffffff908116602085015260408301359061575a826145aa565b808216604086015261576f60608501856156e5565b925060e0606087015261578660e087018483615309565b9250506080840135615797816145aa565b811660808601526157ab60a08501856156e5565b86840360a08801526157be848284615309565b9350505060c08401356157d0816145aa565b1660c094909401939093525090919050565b602081526000614752602083018461572a565b6020808252602c908201527f41676772656761746f722068617320616c726561647920726573706f6e64656460408201526b20746f20746865207461736b60a01b606082015260800190565b6000813561584e816145aa565b63ffffffff16835260208201353683900360de1901811261586e57600080fd5b60a0602085015261588460a0850184830161572a565b90506040830135604085015260608301356060850152608083013560808501528091505092915050565b6020815260006147526020830184615841565b6040815260006158d46040830185615841565b828103602084015263ffffffff8451168152602084015160208201526040840151608060408301526159096080830182614e2d565b9050606085015182820360608401526151cc8282614e2d565b60006001600160601b038083168185168183048111821515161561594857615948615200565b02949350505050565b600081600019048311821515161561596b5761596b615200565b500290565b600061ffff8083168181141561598857615988615200565b600101939250505056fe30644e72e131a029b85045b68181585d97816a916871ca8d3c208c16d87cfd47424c535369676e6174757265436865636b65722e636865636b5369676e617475a2646970667358221220c68a43ea0b307c1710c33ee441a45cad1e8ea4c996ba629fcb9f08ffbabc7bd364736f6c634300080c0033","linkReferences":{}},"methodIdentifiers":{"aggregator()":"245a7bfc","allTaskHashes(uint32)":"2d89f6fc","allTaskResponses(uint32)":"2cb223d5","blsApkRegistry()":"5df45946","checkSignatures(bytes32,bytes,uint32,(uint32[],(uint256,uint256)[],(uint256,uint256)[],(uint256[2],uint256[2]),(uint256,uint256),uint32[],uint32[],uint32[][]))":"6efb4636","createNewTask(uint256,uint32,bytes)":"6b92787e","delegation()":"df5cf723","generator()":"7afa1eed","getCheckSignaturesIndices(address,uint32,bytes,bytes32[])":"4f739f74","getLatestPendingStateHash()":"0373408d","getOperatorState(address,bytes,uint32)":"3563b0d1","getOperatorState(address,bytes32,uint32)":"cefdc1d4","getQuorumBitmapsAtBlockNumber(address,bytes32[],uint32)":"5c155662","getTaskResponseWindowBlock()":"f5c9899d","indexToTaskStatus(uint32)":"99dba0c4","initialize(address,address,address,address)":"f8c8765e","latestTaskNum()":"8b00ce7c","owner()":"8da5cb5b","pause(uint256)":"136439dd","pauseAll()":"595c6a67","paused()":"5c975abb","paused(uint8)":"5ac86ab7","pauserRegistry()":"886f1195","registryCoordinator()":"6d14a987","renounceOwnership()":"715018a6","respondToTask((uint256,uint32,uint32,bytes,uint32,bytes,uint32),(uint32,(uint256,uint32,uint32,bytes,uint32,bytes,uint32),bytes32,bytes32,bytes32),(uint32[],(uint256,uint256)[],(uint256,uint256)[],(uint256[2],uint256[2]),(uint256,uint256),uint32[],uint32[],uint32[][]))":"ec1b1698","setPauserRegistry(address)":"10d67a2f","setStaleStakesForbidden(bool)":"416c7e5e","stakeRegistry()":"68304835","staleStakesForbidden()":"b98d0908","taskNumber()":"72d18e8d","transferOwnership(address)":"f2fde38b","trySignatureAndApkVerification(bytes32,(uint256,uint256),(uint256[2],uint256[2]),(uint256,uint256))":"171f1d5b","unpause(uint256)":"fabc1cbc"},"id":125}