{"abi":[{"type":"constructor","inputs":[{"name":"_registryCoordinator","type":"address","internalType":"contract IRegistryCoordinator"},{"name":"_taskResponseWindowBlock","type":"uint32","internalType":"uint32"}],"stateMutability":"nonpayable"},{"type":"function","name":"aggregator","inputs":[],"outputs":[{"name":"","type":"address","internalType":"address"}],"stateMutability":"view"},{"type":"function","name":"allTaskHashes","inputs":[{"name":"","type":"uint32","internalType":"uint32"}],"outputs":[{"name":"","type":"bytes32","internalType":"bytes32"}],"stateMutability":"view"},{"type":"function","name":"allTaskResponses","inputs":[{"name":"","type":"uint32","internalType":"uint32"}],"outputs":[{"name":"","type":"bytes32","internalType":"bytes32"}],"stateMutability":"view"},{"type":"function","name":"blsApkRegistry","inputs":[],"outputs":[{"name":"","type":"address","internalType":"contract IBLSApkRegistry"}],"stateMutability":"view"},{"type":"function","name":"checkSignatures","inputs":[{"name":"msgHash","type":"bytes32","internalType":"bytes32"},{"name":"quorumNumbers","type":"bytes","internalType":"bytes"},{"name":"referenceBlockNumber","type":"uint32","internalType":"uint32"},{"name":"params","type":"tuple","internalType":"struct IBLSSignatureChecker.NonSignerStakesAndSignature","components":[{"name":"nonSignerQuorumBitmapIndices","type":"uint32[]","internalType":"uint32[]"},{"name":"nonSignerPubkeys","type":"tuple[]","internalType":"struct BN254.G1Point[]","components":[{"name":"X","type":"uint256","internalType":"uint256"},{"name":"Y","type":"uint256","internalType":"uint256"}]},{"name":"quorumApks","type":"tuple[]","internalType":"struct BN254.G1Point[]","components":[{"name":"X","type":"uint256","internalType":"uint256"},{"name":"Y","type":"uint256","internalType":"uint256"}]},{"name":"apkG2","type":"tuple","internalType":"struct BN254.G2Point","components":[{"name":"X","type":"uint256[2]","internalType":"uint256[2]"},{"name":"Y","type":"uint256[2]","internalType":"uint256[2]"}]},{"name":"sigma","type":"tuple","internalType":"struct BN254.G1Point","components":[{"name":"X","type":"uint256","internalType":"uint256"},{"name":"Y","type":"uint256","internalType":"uint256"}]},{"name":"quorumApkIndices","type":"uint32[]","internalType":"uint32[]"},{"name":"totalStakeIndices","type":"uint32[]","internalType":"uint32[]"},{"name":"nonSignerStakeIndices","type":"uint32[][]","internalType":"uint32[][]"}]}],"outputs":[{"name":"","type":"tuple","internalType":"struct IBLSSignatureChecker.QuorumStakeTotals","components":[{"name":"signedStakeForQuorum","type":"uint96[]","internalType":"uint96[]"},{"name":"totalStakeForQuorum","type":"uint96[]","internalType":"uint96[]"}]},{"name":"","type":"bytes32","internalType":"bytes32"}],"stateMutability":"view"},{"type":"function","name":"createNewTask","inputs":[{"name":"blockNumber","type":"uint256","internalType":"uint256"},{"name":"quorumThresholdPercentage","type":"uint32","internalType":"uint32"},{"name":"quorumNumbers","type":"bytes","internalType":"bytes"}],"outputs":[],"stateMutability":"nonpayable"},{"type":"function","name":"delegation","inputs":[],"outputs":[{"name":"","type":"address","internalType":"contract IDelegationManager"}],"stateMutability":"view"},{"type":"function","name":"dummyForTaskResponseType","inputs":[{"name":"taskResponse","type":"tuple","internalType":"struct IFinalizerTaskManager.TaskResponse","components":[{"name":"referenceTaskIndex","type":"uint32","internalType":"uint32"},{"name":"quorumApkUpdateG1X","type":"uint256","internalType":"uint256"},{"name":"quorumApkUpdateG1Y","type":"uint256","internalType":"uint256"},{"name":"operatorsRemoved","type":"bytes32[]","internalType":"bytes32[]"},{"name":"blockHash","type":"bytes32","internalType":"bytes32"},{"name":"storageProofHash","type":"bytes32","internalType":"bytes32"},{"name":"pendingStateHash","type":"bytes32","internalType":"bytes32"}]}],"outputs":[],"stateMutability":"view"},{"type":"function","name":"generator","inputs":[],"outputs":[{"name":"","type":"address","internalType":"address"}],"stateMutability":"view"},{"type":"function","name":"getCheckSignaturesIndices","inputs":[{"name":"registryCoordinator","type":"address","internalType":"contract IRegistryCoordinator"},{"name":"referenceBlockNumber","type":"uint32","internalType":"uint32"},{"name":"quorumNumbers","type":"bytes","internalType":"bytes"},{"name":"nonSignerOperatorIds","type":"bytes32[]","internalType":"bytes32[]"}],"outputs":[{"name":"","type":"tuple","internalType":"struct OperatorStateRetriever.CheckSignaturesIndices","components":[{"name":"nonSignerQuorumBitmapIndices","type":"uint32[]","internalType":"uint32[]"},{"name":"quorumApkIndices","type":"uint32[]","internalType":"uint32[]"},{"name":"totalStakeIndices","type":"uint32[]","internalType":"uint32[]"},{"name":"nonSignerStakeIndices","type":"uint32[][]","internalType":"uint32[][]"}]}],"stateMutability":"view"},{"type":"function","name":"getLatestPendingStateHash","inputs":[],"outputs":[{"name":"","type":"bytes32","internalType":"bytes32"}],"stateMutability":"view"},{"type":"function","name":"getOperatorState","inputs":[{"name":"registryCoordinator","type":"address","internalType":"contract IRegistryCoordinator"},{"name":"quorumNumbers","type":"bytes","internalType":"bytes"},{"name":"blockNumber","type":"uint32","internalType":"uint32"}],"outputs":[{"name":"","type":"tuple[][]","internalType":"struct OperatorStateRetriever.Operator[][]","components":[{"name":"operator","type":"address","internalType":"address"},{"name":"operatorId","type":"bytes32","internalType":"bytes32"},{"name":"stake","type":"uint96","internalType":"uint96"}]}],"stateMutability":"view"},{"type":"function","name":"getOperatorState","inputs":[{"name":"registryCoordinator","type":"address","internalType":"contract IRegistryCoordinator"},{"name":"operatorId","type":"bytes32","internalType":"bytes32"},{"name":"blockNumber","type":"uint32","internalType":"uint32"}],"outputs":[{"name":"","type":"uint256","internalType":"uint256"},{"name":"","type":"tuple[][]","internalType":"struct OperatorStateRetriever.Operator[][]","components":[{"name":"operator","type":"address","internalType":"address"},{"name":"operatorId","type":"bytes32","internalType":"bytes32"},{"name":"stake","type":"uint96","internalType":"uint96"}]}],"stateMutability":"view"},{"type":"function","name":"getQuorumBitmapsAtBlockNumber","inputs":[{"name":"registryCoordinator","type":"address","internalType":"contract IRegistryCoordinator"},{"name":"operatorIds","type":"bytes32[]","internalType":"bytes32[]"},{"name":"blockNumber","type":"uint32","internalType":"uint32"}],"outputs":[{"name":"","type":"uint256[]","internalType":"uint256[]"}],"stateMutability":"view"},{"type":"function","name":"getTaskResponseWindowBlock","inputs":[],"outputs":[{"name":"","type":"uint32","internalType":"uint32"}],"stateMutability":"view"},{"type":"function","name":"initialize","inputs":[{"name":"_pauserRegistry","type":"address","internalType":"contract IPauserRegistry"},{"name":"initialOwner","type":"address","internalType":"address"},{"name":"_aggregator","type":"address","internalType":"address"},{"name":"_generator","type":"address","internalType":"address"}],"outputs":[],"stateMutability":"nonpayable"},{"type":"function","name":"latestTaskNum","inputs":[],"outputs":[{"name":"","type":"uint32","internalType":"uint32"}],"stateMutability":"view"},{"type":"function","name":"owner","inputs":[],"outputs":[{"name":"","type":"address","internalType":"address"}],"stateMutability":"view"},{"type":"function","name":"pause","inputs":[{"name":"newPausedStatus","type":"uint256","internalType":"uint256"}],"outputs":[],"stateMutability":"nonpayable"},{"type":"function","name":"pauseAll","inputs":[],"outputs":[],"stateMutability":"nonpayable"},{"type":"function","name":"paused","inputs":[{"name":"index","type":"uint8","internalType":"uint8"}],"outputs":[{"name":"","type":"bool","internalType":"bool"}],"stateMutability":"view"},{"type":"function","name":"paused","inputs":[],"outputs":[{"name":"","type":"uint256","internalType":"uint256"}],"stateMutability":"view"},{"type":"function","name":"pauserRegistry","inputs":[],"outputs":[{"name":"","type":"address","internalType":"contract IPauserRegistry"}],"stateMutability":"view"},{"type":"function","name":"registryCoordinator","inputs":[],"outputs":[{"name":"","type":"address","internalType":"contract IRegistryCoordinator"}],"stateMutability":"view"},{"type":"function","name":"renounceOwnership","inputs":[],"outputs":[],"stateMutability":"nonpayable"},{"type":"function","name":"respondToTask","inputs":[{"name":"task","type":"tuple","internalType":"struct IFinalizerTaskManager.Task","components":[{"name":"blockNumber","type":"uint256","internalType":"uint256"},{"name":"taskCreatedBlock","type":"uint32","internalType":"uint32"},{"name":"quorumNumbers","type":"bytes","internalType":"bytes"},{"name":"quorumThresholdPercentage","type":"uint32","internalType":"uint32"}]},{"name":"taskResponse","type":"tuple","internalType":"struct IFinalizerTaskManager.TaskResponse","components":[{"name":"referenceTaskIndex","type":"uint32","internalType":"uint32"},{"name":"quorumApkUpdateG1X","type":"uint256","internalType":"uint256"},{"name":"quorumApkUpdateG1Y","type":"uint256","internalType":"uint256"},{"name":"operatorsRemoved","type":"bytes32[]","internalType":"bytes32[]"},{"name":"blockHash","type":"bytes32","internalType":"bytes32"},{"name":"storageProofHash","type":"bytes32","internalType":"bytes32"},{"name":"pendingStateHash","type":"bytes32","internalType":"bytes32"}]},{"name":"nonSignerStakesAndSignature","type":"tuple","internalType":"struct IBLSSignatureChecker.NonSignerStakesAndSignature","components":[{"name":"nonSignerQuorumBitmapIndices","type":"uint32[]","internalType":"uint32[]"},{"name":"nonSignerPubkeys","type":"tuple[]","internalType":"struct BN254.G1Point[]","components":[{"name":"X","type":"uint256","internalType":"uint256"},{"name":"Y","type":"uint256","internalType":"uint256"}]},{"name":"quorumApks","type":"tuple[]","internalType":"struct BN254.G1Point[]","components":[{"name":"X","type":"uint256","internalType":"uint256"},{"name":"Y","type":"uint256","internalType":"uint256"}]},{"name":"apkG2","type":"tuple","internalType":"struct BN254.G2Point","components":[{"name":"X","type":"uint256[2]","internalType":"uint256[2]"},{"name":"Y","type":"uint256[2]","internalType":"uint256[2]"}]},{"name":"sigma","type":"tuple","internalType":"struct BN254.G1Point","components":[{"name":"X","type":"uint256","internalType":"uint256"},{"name":"Y","type":"uint256","internalType":"uint256"}]},{"name":"quorumApkIndices","type":"uint32[]","internalType":"uint32[]"},{"name":"totalStakeIndices","type":"uint32[]","internalType":"uint32[]"},{"name":"nonSignerStakeIndices","type":"uint32[][]","internalType":"uint32[][]"}]}],"outputs":[],"stateMutability":"nonpayable"},{"type":"function","name":"setPauserRegistry","inputs":[{"name":"newPauserRegistry","type":"address","internalType":"contract IPauserRegistry"}],"outputs":[],"stateMutability":"nonpayable"},{"type":"function","name":"setStaleStakesForbidden","inputs":[{"name":"value","type":"bool","internalType":"bool"}],"outputs":[],"stateMutability":"nonpayable"},{"type":"function","name":"stakeRegistry","inputs":[],"outputs":[{"name":"","type":"address","internalType":"contract IStakeRegistry"}],"stateMutability":"view"},{"type":"function","name":"staleStakesForbidden","inputs":[],"outputs":[{"name":"","type":"bool","internalType":"bool"}],"stateMutability":"view"},{"type":"function","name":"taskNumber","inputs":[],"outputs":[{"name":"","type":"uint32","internalType":"uint32"}],"stateMutability":"view"},{"type":"function","name":"transferOwnership","inputs":[{"name":"newOwner","type":"address","internalType":"address"}],"outputs":[],"stateMutability":"nonpayable"},{"type":"function","name":"trySignatureAndApkVerification","inputs":[{"name":"msgHash","type":"bytes32","internalType":"bytes32"},{"name":"apk","type":"tuple","internalType":"struct BN254.G1Point","components":[{"name":"X","type":"uint256","internalType":"uint256"},{"name":"Y","type":"uint256","internalType":"uint256"}]},{"name":"apkG2","type":"tuple","internalType":"struct BN254.G2Point","components":[{"name":"X","type":"uint256[2]","internalType":"uint256[2]"},{"name":"Y","type":"uint256[2]","internalType":"uint256[2]"}]},{"name":"sigma","type":"tuple","internalType":"struct BN254.G1Point","components":[{"name":"X","type":"uint256","internalType":"uint256"},{"name":"Y","type":"uint256","internalType":"uint256"}]}],"outputs":[{"name":"pairingSuccessful","type":"bool","internalType":"bool"},{"name":"siganatureIsValid","type":"bool","internalType":"bool"}],"stateMutability":"view"},{"type":"function","name":"unpause","inputs":[{"name":"newPausedStatus","type":"uint256","internalType":"uint256"}],"outputs":[],"stateMutability":"nonpayable"},{"type":"event","name":"Initialized","inputs":[{"name":"version","type":"uint8","indexed":false,"internalType":"uint8"}],"anonymous":false},{"type":"event","name":"NewTaskCreated","inputs":[{"name":"taskIndex","type":"uint32","indexed":true,"internalType":"uint32"},{"name":"task","type":"tuple","indexed":false,"internalType":"struct IFinalizerTaskManager.Task","components":[{"name":"blockNumber","type":"uint256","internalType":"uint256"},{"name":"taskCreatedBlock","type":"uint32","internalType":"uint32"},{"name":"quorumNumbers","type":"bytes","internalType":"bytes"},{"name":"quorumThresholdPercentage","type":"uint32","internalType":"uint32"}]}],"anonymous":false},{"type":"event","name":"OwnershipTransferred","inputs":[{"name":"previousOwner","type":"address","indexed":true,"internalType":"address"},{"name":"newOwner","type":"address","indexed":true,"internalType":"address"}],"anonymous":false},{"type":"event","name":"Paused","inputs":[{"name":"account","type":"address","indexed":true,"internalType":"address"},{"name":"newPausedStatus","type":"uint256","indexed":false,"internalType":"uint256"}],"anonymous":false},{"type":"event","name":"PauserRegistrySet","inputs":[{"name":"pauserRegistry","type":"address","indexed":false,"internalType":"contract IPauserRegistry"},{"name":"newPauserRegistry","type":"address","indexed":false,"internalType":"contract IPauserRegistry"}],"anonymous":false},{"type":"event","name":"StaleStakesForbiddenUpdate","inputs":[{"name":"value","type":"bool","indexed":false,"internalType":"bool"}],"anonymous":false},{"type":"event","name":"TaskCompleted","inputs":[{"name":"taskIndex","type":"uint32","indexed":true,"internalType":"uint32"},{"name":"blockHash","type":"bytes32","indexed":true,"internalType":"bytes32"}],"anonymous":false},{"type":"event","name":"TaskResponded","inputs":[{"name":"taskResponse","type":"tuple","indexed":false,"internalType":"struct IFinalizerTaskManager.TaskResponse","components":[{"name":"referenceTaskIndex","type":"uint32","internalType":"uint32"},{"name":"quorumApkUpdateG1X","type":"uint256","internalType":"uint256"},{"name":"quorumApkUpdateG1Y","type":"uint256","internalType":"uint256"},{"name":"operatorsRemoved","type":"bytes32[]","internalType":"bytes32[]"},{"name":"blockHash","type":"bytes32","internalType":"bytes32"},{"name":"storageProofHash","type":"bytes32","internalType":"bytes32"},{"name":"pendingStateHash","type":"bytes32","internalType":"bytes32"}]},{"name":"taskResponseMetadata","type":"tuple","indexed":false,"internalType":"struct IFinalizerTaskManager.TaskResponseMetadata","components":[{"name":"taskResponsedBlock","type":"uint32","internalType":"uint32"},{"name":"hashOfNonSigners","type":"bytes32","internalType":"bytes32"},{"name":"quroumStakeTotals","type":"uint96[]","internalType":"uint96[]"},{"name":"quroumStakeSigned","type":"uint96[]","internalType":"uint96[]"}]}],"anonymous":false},{"type":"event","name":"Unpaused","inputs":[{"name":"account","type":"address","indexed":true,"internalType":"address"},{"name":"newPausedStatus","type":"uint256","indexed":false,"internalType":"uint256"}],"anonymous":false}],"bytecode":{"object":"0x6101206040523480156200001257600080fd5b50604051620058bd380380620058bd8339810160408190526200003591620001f7565b81806001600160a01b03166080816001600160a01b031681525050806001600160a01b031663683048356040518163ffffffff1660e01b8152600401602060405180830381865afa1580156200008f573d6000803e3d6000fd5b505050506040513d601f19601f82011682018060405250810190620000b591906200023e565b6001600160a01b031660a0816001600160a01b031681525050806001600160a01b0316635df459466040518163ffffffff1660e01b8152600401602060405180830381865afa1580156200010d573d6000803e3d6000fd5b505050506040513d601f19601f820116820180604052508101906200013391906200023e565b6001600160a01b031660c0816001600160a01b03168152505060a0516001600160a01b031663df5cf7236040518163ffffffff1660e01b8152600401602060405180830381865afa1580156200018d573d6000803e3d6000fd5b505050506040513d601f19601f82011682018060405250810190620001b391906200023e565b6001600160a01b031660e052506097805460ff1916600117905563ffffffff16610100525062000265565b6001600160a01b0381168114620001f457600080fd5b50565b600080604083850312156200020b57600080fd5b82516200021881620001de565b602084015190925063ffffffff811681146200023357600080fd5b809150509250929050565b6000602082840312156200025157600080fd5b81516200025e81620001de565b9392505050565b60805160a05160c05160e051610100516155d4620002e96000396000818161053a015261110201526000818161050301526125ca0152600081816103be01526127ad0152600081816103e5015281816129830152612b4501526000818161041f01528181610d9e015281816122950152818161242d015261266701526155d46000f3fe608060405234801561001057600080fd5b50600436106102065760003560e01c8063683048351161011a5780638b00ce7c116100ad578063df5cf7231161007c578063df5cf723146104fe578063f2fde38b14610525578063f5c9899d14610538578063f8c8765e1461055e578063fabc1cbc1461057157600080fd5b80638b00ce7c146104af5780638da5cb5b146104bf578063b98d0908146104d0578063cefdc1d4146104dd57600080fd5b8063715018a6116100e9578063715018a61461046257806372d18e8d1461046a5780637afa1eed14610489578063886f11951461049c57600080fd5b806368304835146103e05780636b92787e146104075780636d14a9871461041a5780636efb46361461044157600080fd5b8063416c7e5e1161019d578063595c6a671161016c578063595c6a67146103565780635ac86ab71461035e5780635c155662146103915780635c975abb146103b15780635df45946146103b957600080fd5b8063416c7e5e146102ff5780634c7c09fe146103125780634f46f44c146103235780634f739f741461033657600080fd5b8063245a7bfc116101d9578063245a7bfc146102745780632cb223d51461029f5780632d89f6fc146102bf5780633563b0d1146102df57600080fd5b80630373408d1461020b57806310d67a2f14610222578063136439dd14610237578063171f1d5b1461024a575b600080fd5b60ce545b6040519081526020015b60405180910390f35b61023561023036600461409e565b610584565b005b6102356102453660046140bb565b61063d565b61025d610258366004614239565b61077c565b604080519215158352901515602083015201610219565b60cc54610287906001600160a01b031681565b6040516001600160a01b039091168152602001610219565b61020f6102ad3660046142a7565b60cb6020526000908152604090205481565b61020f6102cd3660046142a7565b60ca6020526000908152604090205481565b6102f26102ed3660046142c4565b610906565b604051610219919061441f565b61023561030d366004614447565b610d9c565b61023561032036600461447c565b50565b61023561033136600461475c565b610f11565b610349610344366004614833565b61138c565b6040516102199190614937565b610235611ab2565b61038161036c366004614a01565b606654600160ff9092169190911b9081161490565b6040519015158152602001610219565b6103a461039f366004614a1e565b611b79565b6040516102199190614aca565b60665461020f565b6102877f000000000000000000000000000000000000000000000000000000000000000081565b6102877f000000000000000000000000000000000000000000000000000000000000000081565b610235610415366004614b0e565b611d41565b6102877f000000000000000000000000000000000000000000000000000000000000000081565b61045461044f366004614b69565b611ee2565b604051610219929190614c29565b610235612dfa565b60c95463ffffffff165b60405163ffffffff9091168152602001610219565b60cd54610287906001600160a01b031681565b606554610287906001600160a01b031681565b60c9546104749063ffffffff1681565b6033546001600160a01b0316610287565b6097546103819060ff1681565b6104f06104eb366004614c72565b612e0e565b604051610219929190614cb4565b6102877f000000000000000000000000000000000000000000000000000000000000000081565b61023561053336600461409e565b612fa0565b7f0000000000000000000000000000000000000000000000000000000000000000610474565b61023561056c366004614ccd565b613016565b61023561057f3660046140bb565b613167565b606560009054906101000a90046001600160a01b03166001600160a01b031663eab66d7a6040518163ffffffff1660e01b8152600401602060405180830381865afa1580156105d7573d6000803e3d6000fd5b505050506040513d601f19601f820116820180604052508101906105fb9190614d29565b6001600160a01b0316336001600160a01b0316146106345760405162461bcd60e51b815260040161062b90614d46565b60405180910390fd5b610320816132c3565b60655460405163237dfb4760e11b81523360048201526001600160a01b03909116906346fbf68e90602401602060405180830381865afa158015610685573d6000803e3d6000fd5b505050506040513d601f19601f820116820180604052508101906106a99190614d90565b6106c55760405162461bcd60e51b815260040161062b90614dad565b6066548181161461073e5760405162461bcd60e51b815260206004820152603860248201527f5061757361626c652e70617573653a20696e76616c696420617474656d70742060448201527f746f20756e70617573652066756e6374696f6e616c6974790000000000000000606482015260840161062b565b606681905560405181815233907fab40a374bc51de372200a8bc981af8c9ecdc08dfdaef0bb6e09f88f3c616ef3d906020015b60405180910390a250565b60008060007f30644e72e131a029b85045b68181585d2833e84879b9709143e1f593f0000001878760000151886020015188600001516000600281106107c4576107c4614df5565b60200201518951600160200201518a602001516000600281106107e9576107e9614df5565b60200201518b6020015160016002811061080557610805614df5565b602090810291909101518c518d8301516040516108629a99989796959401988952602089019790975260408801959095526060870193909352608086019190915260a085015260c084015260e08301526101008201526101200190565b6040516020818303038152906040528051906020012060001c6108859190614e0b565b90506108f861089e61089788846133ba565b8690613451565b6108a66134e5565b6108ee6108df856108d9604080518082018252600080825260209182015281518083019092526001825260029082015290565b906133ba565b6108e88c6135a5565b90613451565b886201d4c0613635565b909890975095505050505050565b60606000846001600160a01b031663683048356040518163ffffffff1660e01b8152600401602060405180830381865afa158015610948573d6000803e3d6000fd5b505050506040513d601f19601f8201168201806040525081019061096c9190614d29565b90506000856001600160a01b0316639e9923c26040518163ffffffff1660e01b8152600401602060405180830381865afa1580156109ae573d6000803e3d6000fd5b505050506040513d601f19601f820116820180604052508101906109d29190614d29565b90506000866001600160a01b0316635df459466040518163ffffffff1660e01b8152600401602060405180830381865afa158015610a14573d6000803e3d6000fd5b505050506040513d601f19601f82011682018060405250810190610a389190614d29565b9050600086516001600160401b03811115610a5557610a556140d4565b604051908082528060200260200182016040528015610a8857816020015b6060815260200190600190039081610a735790505b50905060005b8751811015610d90576000888281518110610aab57610aab614df5565b0160200151604051638902624560e01b815260f89190911c6004820181905263ffffffff8a16602483015291506000906001600160a01b03871690638902624590604401600060405180830381865afa158015610b0c573d6000803e3d6000fd5b505050506040513d6000823e601f3d908101601f19168201604052610b349190810190614e2d565b905080516001600160401b03811115610b4f57610b4f6140d4565b604051908082528060200260200182016040528015610b9a57816020015b6040805160608101825260008082526020808301829052928201528252600019909201910181610b6d5790505b50848481518110610bad57610bad614df5565b602002602001018190525060005b8151811015610d7a576040518060600160405280876001600160a01b03166347b314e8858581518110610bf057610bf0614df5565b60200260200101516040518263ffffffff1660e01b8152600401610c1691815260200190565b602060405180830381865afa158015610c33573d6000803e3d6000fd5b505050506040513d601f19601f82011682018060405250810190610c579190614d29565b6001600160a01b03168152602001838381518110610c7757610c77614df5565b60200260200101518152602001896001600160a01b031663fa28c627858581518110610ca557610ca5614df5565b60209081029190910101516040516001600160e01b031960e084901b168152600481019190915260ff8816602482015263ffffffff8f166044820152606401602060405180830381865afa158015610d01573d6000803e3d6000fd5b505050506040513d601f19601f82011682018060405250810190610d259190614ebd565b6001600160601b0316815250858581518110610d4357610d43614df5565b60200260200101518281518110610d5c57610d5c614df5565b60200260200101819052508080610d7290614efc565b915050610bbb565b5050508080610d8890614efc565b915050610a8e565b50979650505050505050565b7f00000000000000000000000000000000000000000000000000000000000000006001600160a01b0316638da5cb5b6040518163ffffffff1660e01b8152600401602060405180830381865afa158015610dfa573d6000803e3d6000fd5b505050506040513d601f19601f82011682018060405250810190610e1e9190614d29565b6001600160a01b0316336001600160a01b031614610eca5760405162461bcd60e51b815260206004820152605c60248201527f424c535369676e6174757265436865636b65722e6f6e6c79436f6f7264696e6160448201527f746f724f776e65723a2063616c6c6572206973206e6f7420746865206f776e6560648201527f72206f6620746865207265676973747279436f6f7264696e61746f7200000000608482015260a40161062b565b6097805460ff19168215159081179091556040519081527f40e4ed880a29e0f6ddce307457fb75cddf4feef7d3ecb0301bfdf4976a0e2dfc9060200160405180910390a150565b60cc546001600160a01b03163314610f6b5760405162461bcd60e51b815260206004820152601d60248201527f41676772656761746f72206d757374206265207468652063616c6c6572000000604482015260640161062b565b6000610f7d60408501602086016142a7565b9050366000610f8f6040870187614f17565b90925090506000610fa660808801606089016142a7565b905060ca6000610fb960208901896142a7565b63ffffffff1663ffffffff1681526020019081526020016000205487604051602001610fe59190614f86565b604051602081830303815290604052805190602001201461106e5760405162461bcd60e51b815260206004820152603d60248201527f737570706c696564207461736b20646f6573206e6f74206d617463682074686560448201527f206f6e65207265636f7264656420696e2074686520636f6e7472616374000000606482015260840161062b565b600060cb8161108060208a018a6142a7565b63ffffffff1663ffffffff16815260200190815260200160002054146110fd5760405162461bcd60e51b815260206004820152602c60248201527f41676772656761746f722068617320616c726561647920726573706f6e64656460448201526b20746f20746865207461736b60a01b606482015260840161062b565b6111277f000000000000000000000000000000000000000000000000000000000000000085615027565b63ffffffff164363ffffffff1611156111985760405162461bcd60e51b815260206004820152602d60248201527f41676772656761746f722068617320726573706f6e64656420746f207468652060448201526c7461736b20746f6f206c61746560981b606482015260840161062b565b6000866040516020016111ab9190615134565b6040516020818303038152906040528051906020012090506000806111d38387878a8c611ee2565b6040805160808101825263ffffffff43168152602080820184905280850151828401528451606083015291519395509193509091611215918c91849101615147565b6040516020818303038152906040528051906020012060cb60008c600001602081019061124291906142a7565b63ffffffff1663ffffffff168152602001908152602001600020819055507f7cd2ac51840b5a1ff50156dd4acf3465918b2b8748aab3109cbaf7a77a9606568a82604051611291929190615147565b60405180910390a160005b86811015611332578560ff16846020015182815181106112be576112be614df5565b60200260200101516112d091906151a8565b6001600160601b03166064856000015183815181106112f1576112f1614df5565b60200260200101516001600160601b031661130c91906151d7565b101561132057505050505050505050505050565b8061132a81614efc565b91505061129c565b5060c08a013560ce5560808a013561134d60208c018c6142a7565b63ffffffff167f8378be8a33cf3a493910a16e275cd96af4f048c5eb1a2c2962d4066e697fea8060405160405180910390a35050505050505050505050565b6113b76040518060800160405280606081526020016060815260200160608152602001606081525090565b6000876001600160a01b031663683048356040518163ffffffff1660e01b8152600401602060405180830381865afa1580156113f7573d6000803e3d6000fd5b505050506040513d601f19601f8201168201806040525081019061141b9190614d29565b90506114486040518060800160405280606081526020016060815260200160608152602001606081525090565b6040516361c8a12f60e11b81526001600160a01b038a169063c391425e90611478908b90899089906004016151f6565b600060405180830381865afa158015611495573d6000803e3d6000fd5b505050506040513d6000823e601f3d908101601f191682016040526114bd919081019061521f565b81526040516340e03a8160e11b81526001600160a01b038316906381c07502906114ef908b908b908b906004016152ad565b600060405180830381865afa15801561150c573d6000803e3d6000fd5b505050506040513d6000823e601f3d908101601f19168201604052611534919081019061521f565b6040820152856001600160401b03811115611551576115516140d4565b60405190808252806020026020018201604052801561158457816020015b606081526020019060019003908161156f5790505b50606082015260005b60ff81168711156119c3576000856001600160401b038111156115b2576115b26140d4565b6040519080825280602002602001820160405280156115db578160200160208202803683370190505b5083606001518360ff16815181106115f5576115f5614df5565b602002602001018190525060005b868110156118c35760008c6001600160a01b03166304ec63518a8a8581811061162e5761162e614df5565b905060200201358e8860000151868151811061164c5761164c614df5565b60200260200101516040518463ffffffff1660e01b81526004016116899392919092835263ffffffff918216602084015216604082015260600190565b602060405180830381865afa1580156116a6573d6000803e3d6000fd5b505050506040513d601f19601f820116820180604052508101906116ca91906152cd565b90506001600160c01b03811661176e5760405162461bcd60e51b815260206004820152605c60248201527f4f70657261746f7253746174655265747269657665722e676574436865636b5360448201527f69676e617475726573496e64696365733a206f70657261746f72206d7573742060648201527f6265207265676973746572656420617420626c6f636b6e756d62657200000000608482015260a40161062b565b8a8a8560ff1681811061178357611783614df5565b6001600160c01b03841692013560f81c9190911c6001908116141590506118b057856001600160a01b031663dd9846b98a8a858181106117c5576117c5614df5565b905060200201358d8d8860ff168181106117e1576117e1614df5565b6040516001600160e01b031960e087901b1681526004810194909452919091013560f81c60248301525063ffffffff8f166044820152606401602060405180830381865afa158015611837573d6000803e3d6000fd5b505050506040513d601f19601f8201168201806040525081019061185b91906152f6565b85606001518560ff168151811061187457611874614df5565b6020026020010151848151811061188d5761188d614df5565b63ffffffff90921660209283029190910190910152826118ac81614efc565b9350505b50806118bb81614efc565b915050611603565b506000816001600160401b038111156118de576118de6140d4565b604051908082528060200260200182016040528015611907578160200160208202803683370190505b50905060005b828110156119885784606001518460ff168151811061192e5761192e614df5565b6020026020010151818151811061194757611947614df5565b602002602001015182828151811061196157611961614df5565b63ffffffff909216602092830291909101909101528061198081614efc565b91505061190d565b508084606001518460ff16815181106119a3576119a3614df5565b6020026020010181905250505080806119bb90615313565b91505061158d565b506000896001600160a01b0316635df459466040518163ffffffff1660e01b8152600401602060405180830381865afa158015611a04573d6000803e3d6000fd5b505050506040513d601f19601f82011682018060405250810190611a289190614d29565b60405163354952a360e21b81529091506001600160a01b0382169063d5254a8c90611a5b908b908b908e90600401615333565b600060405180830381865afa158015611a78573d6000803e3d6000fd5b505050506040513d6000823e601f3d908101601f19168201604052611aa0919081019061521f565b60208301525098975050505050505050565b60655460405163237dfb4760e11b81523360048201526001600160a01b03909116906346fbf68e90602401602060405180830381865afa158015611afa573d6000803e3d6000fd5b505050506040513d601f19601f82011682018060405250810190611b1e9190614d90565b611b3a5760405162461bcd60e51b815260040161062b90614dad565b600019606681905560405190815233907fab40a374bc51de372200a8bc981af8c9ecdc08dfdaef0bb6e09f88f3c616ef3d9060200160405180910390a2565b60606000846001600160a01b031663c391425e84866040518363ffffffff1660e01b8152600401611bab92919061535d565b600060405180830381865afa158015611bc8573d6000803e3d6000fd5b505050506040513d6000823e601f3d908101601f19168201604052611bf0919081019061521f565b9050600084516001600160401b03811115611c0d57611c0d6140d4565b604051908082528060200260200182016040528015611c36578160200160208202803683370190505b50905060005b8551811015611d3757866001600160a01b03166304ec6351878381518110611c6657611c66614df5565b602002602001015187868581518110611c8157611c81614df5565b60200260200101516040518463ffffffff1660e01b8152600401611cbe9392919092835263ffffffff918216602084015216604082015260600190565b602060405180830381865afa158015611cdb573d6000803e3d6000fd5b505050506040513d601f19601f82011682018060405250810190611cff91906152cd565b6001600160c01b0316828281518110611d1a57611d1a614df5565b602090810291909101015280611d2f81614efc565b915050611c3c565b5095945050505050565b60cd546001600160a01b03163314611da55760405162461bcd60e51b815260206004820152602160248201527f5461736b2067656e657261746f72206d757374206265207468652063616c6c656044820152603960f91b606482015260840161062b565b611ddc604051806080016040528060008152602001600063ffffffff16815260200160608152602001600063ffffffff1681525090565b84815263ffffffff438116602080840191909152908516606083015260408051601f850183900483028101830190915283815290849084908190840183828082843760009201919091525050505060408083019190915251611e429082906020016153b1565b60408051601f19818403018152828252805160209182012060c9805463ffffffff908116600090815260ca90945293909220555416907f1695b8d06ec800b4615e745cfb5bd00c1f2875615d42925c3b5afa543bb24c4890611ea59084906153b1565b60405180910390a260c954611ec19063ffffffff166001615027565b60c9805463ffffffff191663ffffffff929092169190911790555050505050565b6040805180820190915260608082526020820152600084611f595760405162461bcd60e51b8152602060048201526037602482015260008051602061557f83398151915260448201527f7265733a20656d7074792071756f72756d20696e707574000000000000000000606482015260840161062b565b60408301515185148015611f71575060a08301515185145b8015611f81575060c08301515185145b8015611f91575060e08301515185145b611ffb5760405162461bcd60e51b8152602060048201526041602482015260008051602061557f83398151915260448201527f7265733a20696e7075742071756f72756d206c656e677468206d69736d6174636064820152600d60fb1b608482015260a40161062b565b825151602084015151146120735760405162461bcd60e51b81526020600482015260446024820181905260008051602061557f833981519152908201527f7265733a20696e707574206e6f6e7369676e6572206c656e677468206d69736d6064820152630c2e8c6d60e31b608482015260a40161062b565b4363ffffffff168463ffffffff16106120e25760405162461bcd60e51b815260206004820152603c602482015260008051602061557f83398151915260448201527f7265733a20696e76616c6964207265666572656e636520626c6f636b00000000606482015260840161062b565b6040805180820182526000808252602080830191909152825180840190935260608084529083015290866001600160401b03811115612123576121236140d4565b60405190808252806020026020018201604052801561214c578160200160208202803683370190505b506020820152866001600160401b0381111561216a5761216a6140d4565b604051908082528060200260200182016040528015612193578160200160208202803683370190505b50815260408051808201909152606080825260208201528560200151516001600160401b038111156121c7576121c76140d4565b6040519080825280602002602001820160405280156121f0578160200160208202803683370190505b5081526020860151516001600160401b03811115612210576122106140d4565b604051908082528060200260200182016040528015612239578160200160208202803683370190505b508160200181905250600061230b8a8a8080601f0160208091040260200160405190810160405280939291908181526020018383808284376000920191909152505060408051639aa1653d60e01b815290516001600160a01b037f0000000000000000000000000000000000000000000000000000000000000000169350639aa1653d925060048083019260209291908290030181865afa1580156122e2573d6000803e3d6000fd5b505050506040513d601f19601f82011682018060405250810190612306919061543c565b613859565b905060005b8760200151518110156125a6576123558860200151828151811061233657612336614df5565b6020026020010151805160009081526020918201519091526040902090565b8360200151828151811061236b5761236b614df5565b6020908102919091010152801561242b57602083015161238c600183615459565b8151811061239c5761239c614df5565b602002602001015160001c836020015182815181106123bd576123bd614df5565b602002602001015160001c1161242b576040805162461bcd60e51b815260206004820152602481019190915260008051602061557f83398151915260448201527f7265733a206e6f6e5369676e65725075626b657973206e6f7420736f72746564606482015260840161062b565b7f00000000000000000000000000000000000000000000000000000000000000006001600160a01b03166304ec63518460200151838151811061247057612470614df5565b60200260200101518b8b60000151858151811061248f5761248f614df5565b60200260200101516040518463ffffffff1660e01b81526004016124cc9392919092835263ffffffff918216602084015216604082015260600190565b602060405180830381865afa1580156124e9573d6000803e3d6000fd5b505050506040513d601f19601f8201168201806040525081019061250d91906152cd565b6001600160c01b03168360000151828151811061252c5761252c614df5565b602002602001018181525050612592610897612566848660000151858151811061255857612558614df5565b6020026020010151166138ec565b8a60200151848151811061257c5761257c614df5565b602002602001015161391790919063ffffffff16565b94508061259e81614efc565b915050612310565b50506125b1836139fb565b60975490935060ff166000816125c857600061264a565b7f00000000000000000000000000000000000000000000000000000000000000006001600160a01b031663c448feb86040518163ffffffff1660e01b8152600401602060405180830381865afa158015612626573d6000803e3d6000fd5b505050506040513d601f19601f8201168201806040525081019061264a9190615470565b905060005b8a811015612cc95782156127ab578963ffffffff16827f00000000000000000000000000000000000000000000000000000000000000006001600160a01b031663249a0c428f8f868181106126a6576126a6614df5565b60405160e085901b6001600160e01b031916815292013560f81c600483015250602401602060405180830381865afa1580156126e6573d6000803e3d6000fd5b505050506040513d601f19601f8201168201806040525081019061270a9190615470565b6127149190615489565b10156127ab5760405162461bcd60e51b8152602060048201526066602482015260008051602061557f83398151915260448201527f7265733a205374616b6552656769737472792075706461746573206d7573742060648201527f62652077697468696e207769746864726177616c44656c6179426c6f636b732060848201526577696e646f7760d01b60a482015260c40161062b565b7f00000000000000000000000000000000000000000000000000000000000000006001600160a01b03166368bccaac8d8d848181106127ec576127ec614df5565b9050013560f81c60f81b60f81c8c8c60a00151858151811061281057612810614df5565b60209081029190910101516040516001600160e01b031960e086901b16815260ff909316600484015263ffffffff9182166024840152166044820152606401602060405180830381865afa15801561286c573d6000803e3d6000fd5b505050506040513d601f19601f8201168201806040525081019061289091906154a1565b6001600160401b0319166128b38a60400151838151811061233657612336614df5565b67ffffffffffffffff19161461294f5760405162461bcd60e51b8152602060048201526061602482015260008051602061557f83398151915260448201527f7265733a2071756f72756d41706b206861736820696e2073746f72616765206460648201527f6f6573206e6f74206d617463682070726f76696465642071756f72756d2061706084820152606b60f81b60a482015260c40161062b565b61297f8960400151828151811061296857612968614df5565b60200260200101518761345190919063ffffffff16565b95507f00000000000000000000000000000000000000000000000000000000000000006001600160a01b031663c8294c568d8d848181106129c2576129c2614df5565b9050013560f81c60f81b60f81c8c8c60c0015185815181106129e6576129e6614df5565b60209081029190910101516040516001600160e01b031960e086901b16815260ff909316600484015263ffffffff9182166024840152166044820152606401602060405180830381865afa158015612a42573d6000803e3d6000fd5b505050506040513d601f19601f82011682018060405250810190612a669190614ebd565b85602001518281518110612a7c57612a7c614df5565b6001600160601b03909216602092830291909101820152850151805182908110612aa857612aa8614df5565b602002602001015185600001518281518110612ac657612ac6614df5565b60200260200101906001600160601b031690816001600160601b0316815250506000805b8a6020015151811015612cb457612b3e86600001518281518110612b1057612b10614df5565b60200260200101518f8f86818110612b2a57612b2a614df5565b600192013560f81c9290921c811614919050565b15612ca2577f00000000000000000000000000000000000000000000000000000000000000006001600160a01b031663f2be94ae8f8f86818110612b8457612b84614df5565b9050013560f81c60f81b60f81c8e89602001518581518110612ba857612ba8614df5565b60200260200101518f60e001518881518110612bc657612bc6614df5565b60200260200101518781518110612bdf57612bdf614df5565b60209081029190910101516040516001600160e01b031960e087901b16815260ff909416600485015263ffffffff92831660248501526044840191909152166064820152608401602060405180830381865afa158015612c43573d6000803e3d6000fd5b505050506040513d601f19601f82011682018060405250810190612c679190614ebd565b8751805185908110612c7b57612c7b614df5565b60200260200101818151612c8f91906154cc565b6001600160601b03169052506001909101905b80612cac81614efc565b915050612aea565b50508080612cc190614efc565b91505061264f565b505050600080612ce38c868a606001518b6080015161077c565b9150915081612d545760405162461bcd60e51b8152602060048201526043602482015260008051602061557f83398151915260448201527f7265733a2070616972696e6720707265636f6d70696c652063616c6c206661696064820152621b195960ea1b608482015260a40161062b565b80612db55760405162461bcd60e51b8152602060048201526039602482015260008051602061557f83398151915260448201527f7265733a207369676e617475726520697320696e76616c696400000000000000606482015260840161062b565b50506000878260200151604051602001612dd09291906154f4565b60408051808303601f190181529190528051602090910120929b929a509198505050505050505050565b612e02613a96565b612e0c6000613af0565b565b6040805160018082528183019092526000916060918391602080830190803683370190505090508481600081518110612e4957612e49614df5565b60209081029190910101526040516361c8a12f60e11b81526000906001600160a01b0388169063c391425e90612e85908890869060040161535d565b600060405180830381865afa158015612ea2573d6000803e3d6000fd5b505050506040513d6000823e601f3d908101601f19168201604052612eca919081019061521f565b600081518110612edc57612edc614df5565b60209081029190910101516040516304ec635160e01b81526004810188905263ffffffff87811660248301529091166044820181905291506000906001600160a01b038916906304ec635190606401602060405180830381865afa158015612f48573d6000803e3d6000fd5b505050506040513d601f19601f82011682018060405250810190612f6c91906152cd565b6001600160c01b031690506000612f8282613b42565b905081612f908a838a610906565b9550955050505050935093915050565b612fa8613a96565b6001600160a01b03811661300d5760405162461bcd60e51b815260206004820152602660248201527f4f776e61626c653a206e6577206f776e657220697320746865207a65726f206160448201526564647265737360d01b606482015260840161062b565b61032081613af0565b600054610100900460ff16158080156130365750600054600160ff909116105b806130505750303b158015613050575060005460ff166001145b6130b35760405162461bcd60e51b815260206004820152602e60248201527f496e697469616c697a61626c653a20636f6e747261637420697320616c72656160448201526d191e481a5b9a5d1a585b1a5e995960921b606482015260840161062b565b6000805460ff1916600117905580156130d6576000805461ff0019166101001790555b6130e1856000613c0e565b6130ea84613af0565b60cc80546001600160a01b038086166001600160a01b03199283161790925560cd8054928516929091169190911790558015613160576000805461ff0019169055604051600181527f7f26b83ff96e1f2b6a682f133852f6798a09c465da95921460cefb38474024989060200160405180910390a15b5050505050565b606560009054906101000a90046001600160a01b03166001600160a01b031663eab66d7a6040518163ffffffff1660e01b8152600401602060405180830381865afa1580156131ba573d6000803e3d6000fd5b505050506040513d601f19601f820116820180604052508101906131de9190614d29565b6001600160a01b0316336001600160a01b03161461320e5760405162461bcd60e51b815260040161062b90614d46565b60665419811960665419161461328c5760405162461bcd60e51b815260206004820152603860248201527f5061757361626c652e756e70617573653a20696e76616c696420617474656d7060448201527f7420746f2070617573652066756e6374696f6e616c6974790000000000000000606482015260840161062b565b606681905560405181815233907f3582d1828e26bf56bd801502bc021ac0bc8afb57c826e4986b45593c8fad389c90602001610771565b6001600160a01b0381166133515760405162461bcd60e51b815260206004820152604960248201527f5061757361626c652e5f73657450617573657252656769737472793a206e657760448201527f50617573657252656769737472792063616e6e6f7420626520746865207a65726064820152686f206164647265737360b81b608482015260a40161062b565b606554604080516001600160a01b03928316815291831660208301527f6e9fcd539896fca60e8b0f01dd580233e48a6b0f7df013b89ba7f565869acdb6910160405180910390a1606580546001600160a01b0319166001600160a01b0392909216919091179055565b60408051808201909152600080825260208201526133d6613faf565b835181526020808501519082015260408082018490526000908360608460076107d05a03fa90508080156134095761340b565bfe5b50806134495760405162461bcd60e51b815260206004820152600d60248201526c1958cb5b5d5b0b59985a5b1959609a1b604482015260640161062b565b505092915050565b604080518082019091526000808252602082015261346d613fcd565b835181526020808501518183015283516040808401919091529084015160608301526000908360808460066107d05a03fa90508080156134095750806134495760405162461bcd60e51b815260206004820152600d60248201526c1958cb5859190b59985a5b1959609a1b604482015260640161062b565b6134ed613feb565b50604080516080810182527f198e9393920d483a7260bfb731fb5d25f1aa493335a9e71297e485b7aef312c28183019081527f1800deef121f1e76426a00665e5c4479674322d4f75edadd46debd5cd992f6ed6060830152815281518083019092527f275dc4a288d1afb3cbb1ac09187524c7db36395df7be3b99e673b13a075a65ec82527f1d9befcd05a5323e6da4d435f3b617cdb3af83285c2df711ef39c01571827f9d60208381019190915281019190915290565b6040805180820190915260008082526020820152600080806135d560008051602061555f83398151915286614e0b565b90505b6135e181613cf8565b909350915060008051602061555f83398151915282830983141561361b576040805180820190915290815260208101919091529392505050565b60008051602061555f8339815191526001820890506135d8565b604080518082018252868152602080820186905282518084019093528683528201849052600091829190613667614010565b60005b600281101561382c5760006136808260066151d7565b905084826002811061369457613694614df5565b602002015151836136a6836000615489565b600c81106136b6576136b6614df5565b60200201528482600281106136cd576136cd614df5565b602002015160200151838260016136e49190615489565b600c81106136f4576136f4614df5565b602002015283826002811061370b5761370b614df5565b602002015151518361371e836002615489565b600c811061372e5761372e614df5565b602002015283826002811061374557613745614df5565b602002015151600160200201518361375e836003615489565b600c811061376e5761376e614df5565b602002015283826002811061378557613785614df5565b6020020151602001516000600281106137a0576137a0614df5565b6020020151836137b1836004615489565b600c81106137c1576137c1614df5565b60200201528382600281106137d8576137d8614df5565b6020020151602001516001600281106137f3576137f3614df5565b602002015183613804836005615489565b600c811061381457613814614df5565b6020020152508061382481614efc565b91505061366a565b5061383561402f565b60006020826101808560088cfa9151919c9115159b50909950505050505050505050565b60008061386584613d7a565b9050808360ff166001901b116138e35760405162461bcd60e51b815260206004820152603f60248201527f4269746d61705574696c732e6f72646572656442797465734172726179546f4260448201527f69746d61703a206269746d61702065786365656473206d61782076616c756500606482015260840161062b565b90505b92915050565b6000805b82156138e657613901600184615459565b909216918061390f8161553c565b9150506138f0565b60408051808201909152600080825260208201526102008261ffff16106139735760405162461bcd60e51b815260206004820152601060248201526f7363616c61722d746f6f2d6c6172676560801b604482015260640161062b565b8161ffff16600114156139875750816138e6565b6040805180820190915260008082526020820181905284906001905b8161ffff168661ffff16106139f057600161ffff871660ff83161c811614156139d3576139d08484613451565b93505b6139dd8384613451565b92506201fffe600192831b1691016139a3565b509195945050505050565b60408051808201909152600080825260208201528151158015613a2057506020820151155b15613a3e575050604080518082019091526000808252602082015290565b60405180604001604052808360000151815260200160008051602061555f8339815191528460200151613a719190614e0b565b613a899060008051602061555f833981519152615459565b905292915050565b919050565b6033546001600160a01b03163314612e0c5760405162461bcd60e51b815260206004820181905260248201527f4f776e61626c653a2063616c6c6572206973206e6f7420746865206f776e6572604482015260640161062b565b603380546001600160a01b038381166001600160a01b0319831681179093556040519116919082907f8be0079c531659141344cd1fd0a4f28419497f9722a3daafe3b4186f6b6457e090600090a35050565b6060600080613b50846138ec565b61ffff166001600160401b03811115613b6b57613b6b6140d4565b6040519080825280601f01601f191660200182016040528015613b95576020820181803683370190505b5090506000805b825182108015613bad575061010081105b15613c04576001811b935085841615613bf4578060f81b838381518110613bd657613bd6614df5565b60200101906001600160f81b031916908160001a9053508160010191505b613bfd81614efc565b9050613b9c565b5090949350505050565b6065546001600160a01b0316158015613c2f57506001600160a01b03821615155b613cb15760405162461bcd60e51b815260206004820152604760248201527f5061757361626c652e5f696e697469616c697a655061757365723a205f696e6960448201527f7469616c697a6550617573657228292063616e206f6e6c792062652063616c6c6064820152666564206f6e636560c81b608482015260a40161062b565b606681905560405181815233907fab40a374bc51de372200a8bc981af8c9ecdc08dfdaef0bb6e09f88f3c616ef3d9060200160405180910390a2613cf4826132c3565b5050565b6000808060008051602061555f833981519152600360008051602061555f8339815191528660008051602061555f833981519152888909090890506000613d6e827f0c19139cb84c680a6e14116da060561765e05aa45a1c72a34f082305b61f3f5260008051602061555f833981519152613f07565b91959194509092505050565b600061010082511115613e035760405162461bcd60e51b8152602060048201526044602482018190527f4269746d61705574696c732e6f72646572656442797465734172726179546f42908201527f69746d61703a206f7264657265644279746573417272617920697320746f6f206064820152636c6f6e6760e01b608482015260a40161062b565b8151613e1157506000919050565b60008083600081518110613e2757613e27614df5565b0160200151600160f89190911c81901b92505b8451811015613efe57848181518110613e5557613e55614df5565b0160200151600160f89190911c1b9150828211613eea5760405162461bcd60e51b815260206004820152604760248201527f4269746d61705574696c732e6f72646572656442797465734172726179546f4260448201527f69746d61703a206f72646572656442797465734172726179206973206e6f74206064820152661bdc99195c995960ca1b608482015260a40161062b565b91811791613ef781614efc565b9050613e3a565b50909392505050565b600080613f1261402f565b613f1a61404d565b602080825281810181905260408201819052606082018890526080820187905260a082018690528260c08360056107d05a03fa9250828015613409575082613fa45760405162461bcd60e51b815260206004820152601a60248201527f424e3235342e6578704d6f643a2063616c6c206661696c757265000000000000604482015260640161062b565b505195945050505050565b60405180606001604052806003906020820280368337509192915050565b60405180608001604052806004906020820280368337509192915050565b6040518060400160405280613ffe61406b565b815260200161400b61406b565b905290565b604051806101800160405280600c906020820280368337509192915050565b60405180602001604052806001906020820280368337509192915050565b6040518060c001604052806006906020820280368337509192915050565b60405180604001604052806002906020820280368337509192915050565b6001600160a01b038116811461032057600080fd5b6000602082840312156140b057600080fd5b81356138e381614089565b6000602082840312156140cd57600080fd5b5035919050565b634e487b7160e01b600052604160045260246000fd5b604080519081016001600160401b038111828210171561410c5761410c6140d4565b60405290565b60405161010081016001600160401b038111828210171561410c5761410c6140d4565b604051601f8201601f191681016001600160401b038111828210171561415d5761415d6140d4565b604052919050565b60006040828403121561417757600080fd5b61417f6140ea565b9050813581526020820135602082015292915050565b600082601f8301126141a657600080fd5b604051604081018181106001600160401b03821117156141c8576141c86140d4565b80604052508060408401858111156141df57600080fd5b845b818110156139f05780358352602092830192016141e1565b60006080828403121561420b57600080fd5b6142136140ea565b905061421f8383614195565b815261422e8360408401614195565b602082015292915050565b600080600080610120858703121561425057600080fd5b843593506142618660208701614165565b925061427086606087016141f9565b915061427f8660e08701614165565b905092959194509250565b63ffffffff8116811461032057600080fd5b8035613a918161428a565b6000602082840312156142b957600080fd5b81356138e38161428a565b6000806000606084860312156142d957600080fd5b83356142e481614089565b92506020848101356001600160401b038082111561430157600080fd5b818701915087601f83011261431557600080fd5b813581811115614327576143276140d4565b614339601f8201601f19168501614135565b9150808252888482850101111561434f57600080fd5b80848401858401376000848284010152508094505050506143726040850161429c565b90509250925092565b600081518084526020808501808196508360051b810191508286016000805b86811015614411578385038a52825180518087529087019087870190845b818110156143fc57835180516001600160a01b031684528a8101518b8501526040908101516001600160601b031690840152928901926060909201916001016143b8565b50509a87019a9550509185019160010161439a565b509298975050505050505050565b602081526000614432602083018461437b565b9392505050565b801515811461032057600080fd5b60006020828403121561445957600080fd5b81356138e381614439565b600060e0828403121561447657600080fd5b50919050565b60006020828403121561448e57600080fd5b81356001600160401b038111156144a457600080fd5b6144b084828501614464565b949350505050565b60006001600160401b038211156144d1576144d16140d4565b5060051b60200190565b600082601f8301126144ec57600080fd5b813560206145016144fc836144b8565b614135565b82815260059290921b8401810191818101908684111561452057600080fd5b8286015b848110156145445780356145378161428a565b8352918301918301614524565b509695505050505050565b600082601f83011261456057600080fd5b813560206145706144fc836144b8565b82815260069290921b8401810191818101908684111561458f57600080fd5b8286015b84811015614544576145a58882614165565b835291830191604001614593565b600082601f8301126145c457600080fd5b813560206145d46144fc836144b8565b82815260059290921b840181019181810190868411156145f357600080fd5b8286015b848110156145445780356001600160401b038111156146165760008081fd5b6146248986838b01016144db565b8452509183019183016145f7565b6000610180828403121561464557600080fd5b61464d614112565b905081356001600160401b038082111561466657600080fd5b614672858386016144db565b8352602084013591508082111561468857600080fd5b6146948583860161454f565b602084015260408401359150808211156146ad57600080fd5b6146b98583860161454f565b60408401526146cb85606086016141f9565b60608401526146dd8560e08601614165565b60808401526101208401359150808211156146f757600080fd5b614703858386016144db565b60a084015261014084013591508082111561471d57600080fd5b614729858386016144db565b60c084015261016084013591508082111561474357600080fd5b50614750848285016145b3565b60e08301525092915050565b60008060006060848603121561477157600080fd5b83356001600160401b038082111561478857600080fd5b908501906080828803121561479c57600080fd5b909350602085013590808211156147b257600080fd5b6147be87838801614464565b935060408601359150808211156147d457600080fd5b506147e186828701614632565b9150509250925092565b60008083601f8401126147fd57600080fd5b5081356001600160401b0381111561481457600080fd5b60208301915083602082850101111561482c57600080fd5b9250929050565b6000806000806000806080878903121561484c57600080fd5b863561485781614089565b955060208701356148678161428a565b945060408701356001600160401b038082111561488357600080fd5b61488f8a838b016147eb565b909650945060608901359150808211156148a857600080fd5b818901915089601f8301126148bc57600080fd5b8135818111156148cb57600080fd5b8a60208260051b85010111156148e057600080fd5b6020830194508093505050509295509295509295565b600081518084526020808501945080840160005b8381101561492c57815163ffffffff168752958201959082019060010161490a565b509495945050505050565b60006020808352835160808285015261495360a08501826148f6565b905081850151601f198086840301604087015261497083836148f6565b9250604087015191508086840301606087015261498d83836148f6565b60608801518782038301608089015280518083529194508501925084840190600581901b8501860160005b828110156149e457848783030184526149d28287516148f6565b958801959388019391506001016149b8565b509998505050505050505050565b60ff8116811461032057600080fd5b600060208284031215614a1357600080fd5b81356138e3816149f2565b600080600060608486031215614a3357600080fd5b8335614a3e81614089565b92506020848101356001600160401b03811115614a5a57600080fd5b8501601f81018713614a6b57600080fd5b8035614a796144fc826144b8565b81815260059190911b82018301908381019089831115614a9857600080fd5b928401925b82841015614ab657833582529284019290840190614a9d565b80965050505050506143726040850161429c565b6020808252825182820181905260009190848201906040850190845b81811015614b0257835183529284019291840191600101614ae6565b50909695505050505050565b60008060008060608587031215614b2457600080fd5b843593506020850135614b368161428a565b925060408501356001600160401b03811115614b5157600080fd5b614b5d878288016147eb565b95989497509550505050565b600080600080600060808688031215614b8157600080fd5b8535945060208601356001600160401b0380821115614b9f57600080fd5b614bab89838a016147eb565b909650945060408801359150614bc08261428a565b90925060608701359080821115614bd657600080fd5b50614be388828901614632565b9150509295509295909350565b600081518084526020808501945080840160005b8381101561492c5781516001600160601b031687529582019590820190600101614c04565b6040815260008351604080840152614c446080840182614bf0565b90506020850151603f19848303016060850152614c618282614bf0565b925050508260208301529392505050565b600080600060608486031215614c8757600080fd5b8335614c9281614089565b9250602084013591506040840135614ca98161428a565b809150509250925092565b8281526040602082015260006144b0604083018461437b565b60008060008060808587031215614ce357600080fd5b8435614cee81614089565b93506020850135614cfe81614089565b92506040850135614d0e81614089565b91506060850135614d1e81614089565b939692955090935050565b600060208284031215614d3b57600080fd5b81516138e381614089565b6020808252602a908201527f6d73672e73656e646572206973206e6f74207065726d697373696f6e6564206160408201526939903ab73830bab9b2b960b11b606082015260800190565b600060208284031215614da257600080fd5b81516138e381614439565b60208082526028908201527f6d73672e73656e646572206973206e6f74207065726d697373696f6e6564206160408201526739903830bab9b2b960c11b606082015260800190565b634e487b7160e01b600052603260045260246000fd5b600082614e2857634e487b7160e01b600052601260045260246000fd5b500690565b60006020808385031215614e4057600080fd5b82516001600160401b03811115614e5657600080fd5b8301601f81018513614e6757600080fd5b8051614e756144fc826144b8565b81815260059190911b82018301908381019087831115614e9457600080fd5b928401925b82841015614eb257835182529284019290840190614e99565b979650505050505050565b600060208284031215614ecf57600080fd5b81516001600160601b03811681146138e357600080fd5b634e487b7160e01b600052601160045260246000fd5b6000600019821415614f1057614f10614ee6565b5060010190565b6000808335601e19843603018112614f2e57600080fd5b8301803591506001600160401b03821115614f4857600080fd5b60200191503681900382131561482c57600080fd5b81835281816020850137506000828201602090810191909152601f909101601f19169091010190565b602081528135602082015260006020830135614fa18161428a565b63ffffffff81166040840152506040830135601e19843603018112614fc557600080fd5b830180356001600160401b03811115614fdd57600080fd5b803603851315614fec57600080fd5b6080606085015261500460a085018260208501614f5d565b9150506150136060850161429c565b63ffffffff81166080850152509392505050565b600063ffffffff80831681851680830382111561504657615046614ee6565b01949350505050565b81835260006001600160fb1b0383111561506857600080fd5b8260051b8083602087013760009401602001938452509192915050565b600081356150928161428a565b63ffffffff811684525060208201356020840152604082013560408401526060820135601e198336030181126150c757600080fd5b820180356001600160401b038111156150df57600080fd5b8060051b36038413156150f157600080fd5b60e0606086015261510960e08601826020850161504f565b9150506080830135608085015260a083013560a085015260c083013560c08501528091505092915050565b6020815260006144326020830184615085565b60408152600061515a6040830185615085565b828103602084015263ffffffff84511681526020840151602082015260408401516080604083015261518f6080830182614bf0565b905060608501518282036060840152614eb28282614bf0565b60006001600160601b03808316818516818304811182151516156151ce576151ce614ee6565b02949350505050565b60008160001904831182151516156151f1576151f1614ee6565b500290565b63ffffffff8416815260406020820152600061521660408301848661504f565b95945050505050565b6000602080838503121561523257600080fd5b82516001600160401b0381111561524857600080fd5b8301601f8101851361525957600080fd5b80516152676144fc826144b8565b81815260059190911b8201830190838101908783111561528657600080fd5b928401925b82841015614eb257835161529e8161428a565b8252928401929084019061528b565b63ffffffff84168152604060208201526000615216604083018486614f5d565b6000602082840312156152df57600080fd5b81516001600160c01b03811681146138e357600080fd5b60006020828403121561530857600080fd5b81516138e38161428a565b600060ff821660ff81141561532a5761532a614ee6565b60010192915050565b604081526000615347604083018587614f5d565b905063ffffffff83166020830152949350505050565b60006040820163ffffffff851683526020604081850152818551808452606086019150828701935060005b818110156153a457845183529383019391830191600101615388565b5090979650505050505050565b6000602080835283518184015263ffffffff8185015116604084015260408401516080606085015280518060a086015260005b818110156154005782810184015186820160c0015283016153e4565b8181111561541257600060c083880101525b50606086015163ffffffff811660808701529250601f01601f19169390930160c001949350505050565b60006020828403121561544e57600080fd5b81516138e3816149f2565b60008282101561546b5761546b614ee6565b500390565b60006020828403121561548257600080fd5b5051919050565b6000821982111561549c5761549c614ee6565b500190565b6000602082840312156154b357600080fd5b815167ffffffffffffffff19811681146138e357600080fd5b60006001600160601b03838116908316818110156154ec576154ec614ee6565b039392505050565b63ffffffff60e01b8360e01b1681526000600482018351602080860160005b8381101561552f57815185529382019390820190600101615513565b5092979650505050505050565b600061ffff8083168181141561555457615554614ee6565b600101939250505056fe30644e72e131a029b85045b68181585d97816a916871ca8d3c208c16d87cfd47424c535369676e6174757265436865636b65722e636865636b5369676e617475a26469706673582212205e389011074160c5a15e91dad224f98ef72e26583638d0f9542cdcc3bf6f094464736f6c634300080c0033","linkReferences":{}},"methodIdentifiers":{"aggregator()":"245a7bfc","allTaskHashes(uint32)":"2d89f6fc","allTaskResponses(uint32)":"2cb223d5","blsApkRegistry()":"5df45946","checkSignatures(bytes32,bytes,uint32,(uint32[],(uint256,uint256)[],(uint256,uint256)[],(uint256[2],uint256[2]),(uint256,uint256),uint32[],uint32[],uint32[][]))":"6efb4636","createNewTask(uint256,uint32,bytes)":"6b92787e","delegation()":"df5cf723","dummyForTaskResponseType((uint32,uint256,uint256,bytes32[],bytes32,bytes32,bytes32))":"4c7c09fe","generator()":"7afa1eed","getCheckSignaturesIndices(address,uint32,bytes,bytes32[])":"4f739f74","getLatestPendingStateHash()":"0373408d","getOperatorState(address,bytes,uint32)":"3563b0d1","getOperatorState(address,bytes32,uint32)":"cefdc1d4","getQuorumBitmapsAtBlockNumber(address,bytes32[],uint32)":"5c155662","getTaskResponseWindowBlock()":"f5c9899d","initialize(address,address,address,address)":"f8c8765e","latestTaskNum()":"8b00ce7c","owner()":"8da5cb5b","pause(uint256)":"136439dd","pauseAll()":"595c6a67","paused()":"5c975abb","paused(uint8)":"5ac86ab7","pauserRegistry()":"886f1195","registryCoordinator()":"6d14a987","renounceOwnership()":"715018a6","respondToTask((uint256,uint32,bytes,uint32),(uint32,uint256,uint256,bytes32[],bytes32,bytes32,bytes32),(uint32[],(uint256,uint256)[],(uint256,uint256)[],(uint256[2],uint256[2]),(uint256,uint256),uint32[],uint32[],uint32[][]))":"4f46f44c","setPauserRegistry(address)":"10d67a2f","setStaleStakesForbidden(bool)":"416c7e5e","stakeRegistry()":"68304835","staleStakesForbidden()":"b98d0908","taskNumber()":"72d18e8d","transferOwnership(address)":"f2fde38b","trySignatureAndApkVerification(bytes32,(uint256,uint256),(uint256[2],uint256[2]),(uint256,uint256))":"171f1d5b","unpause(uint256)":"fabc1cbc"},"id":125}