{"abi":[{"type":"constructor","inputs":[{"name":"_registryCoordinator","type":"address","internalType":"contract IRegistryCoordinator"},{"name":"_taskResponseWindowBlock","type":"uint32","internalType":"uint32"}],"stateMutability":"nonpayable"},{"type":"function","name":"aggregator","inputs":[],"outputs":[{"name":"","type":"address","internalType":"address"}],"stateMutability":"view"},{"type":"function","name":"allTaskHashes","inputs":[{"name":"","type":"uint32","internalType":"uint32"}],"outputs":[{"name":"","type":"bytes32","internalType":"bytes32"}],"stateMutability":"view"},{"type":"function","name":"allTaskResponses","inputs":[{"name":"","type":"uint32","internalType":"uint32"}],"outputs":[{"name":"","type":"bytes32","internalType":"bytes32"}],"stateMutability":"view"},{"type":"function","name":"blsApkRegistry","inputs":[],"outputs":[{"name":"","type":"address","internalType":"contract IBLSApkRegistry"}],"stateMutability":"view"},{"type":"function","name":"checkSignatures","inputs":[{"name":"msgHash","type":"bytes32","internalType":"bytes32"},{"name":"quorumNumbers","type":"bytes","internalType":"bytes"},{"name":"referenceBlockNumber","type":"uint32","internalType":"uint32"},{"name":"params","type":"tuple","internalType":"struct IBLSSignatureChecker.NonSignerStakesAndSignature","components":[{"name":"nonSignerQuorumBitmapIndices","type":"uint32[]","internalType":"uint32[]"},{"name":"nonSignerPubkeys","type":"tuple[]","internalType":"struct BN254.G1Point[]","components":[{"name":"X","type":"uint256","internalType":"uint256"},{"name":"Y","type":"uint256","internalType":"uint256"}]},{"name":"quorumApks","type":"tuple[]","internalType":"struct BN254.G1Point[]","components":[{"name":"X","type":"uint256","internalType":"uint256"},{"name":"Y","type":"uint256","internalType":"uint256"}]},{"name":"apkG2","type":"tuple","internalType":"struct BN254.G2Point","components":[{"name":"X","type":"uint256[2]","internalType":"uint256[2]"},{"name":"Y","type":"uint256[2]","internalType":"uint256[2]"}]},{"name":"sigma","type":"tuple","internalType":"struct BN254.G1Point","components":[{"name":"X","type":"uint256","internalType":"uint256"},{"name":"Y","type":"uint256","internalType":"uint256"}]},{"name":"quorumApkIndices","type":"uint32[]","internalType":"uint32[]"},{"name":"totalStakeIndices","type":"uint32[]","internalType":"uint32[]"},{"name":"nonSignerStakeIndices","type":"uint32[][]","internalType":"uint32[][]"}]}],"outputs":[{"name":"","type":"tuple","internalType":"struct IBLSSignatureChecker.QuorumStakeTotals","components":[{"name":"signedStakeForQuorum","type":"uint96[]","internalType":"uint96[]"},{"name":"totalStakeForQuorum","type":"uint96[]","internalType":"uint96[]"}]},{"name":"","type":"bytes32","internalType":"bytes32"}],"stateMutability":"view"},{"type":"function","name":"createNewTask","inputs":[{"name":"blockNumber","type":"uint256","internalType":"uint256"},{"name":"quorumThresholdPercentage","type":"uint32","internalType":"uint32"},{"name":"quorumNumbers","type":"bytes","internalType":"bytes"}],"outputs":[],"stateMutability":"nonpayable"},{"type":"function","name":"delegation","inputs":[],"outputs":[{"name":"","type":"address","internalType":"contract IDelegationManager"}],"stateMutability":"view"},{"type":"function","name":"dummyForOperatorStateInfoType","inputs":[{"name":"_operatorStateInfo","type":"tuple","internalType":"struct IGaspMultiRollupServicePrimitives.OperatorStateInfo","components":[{"name":"operatorsStateChanged","type":"bool","internalType":"bool"},{"name":"quorumsRemoved","type":"uint8[]","internalType":"uint8[]"},{"name":"quorumsAdded","type":"tuple[]","internalType":"struct IGaspMultiRollupServicePrimitives.QuorumsAdded[]","components":[{"name":"quorumNumber","type":"uint8","internalType":"uint8"},{"name":"quorumStake","type":"uint96","internalType":"uint96"},{"name":"quorumApk","type":"tuple","internalType":"struct BN254.G1Point","components":[{"name":"X","type":"uint256","internalType":"uint256"},{"name":"Y","type":"uint256","internalType":"uint256"}]}]},{"name":"quorumsStakeUpdate","type":"tuple[]","internalType":"struct IGaspMultiRollupServicePrimitives.QuorumsStakeUpdate[]","components":[{"name":"quorumNumber","type":"uint8","internalType":"uint8"},{"name":"quorumStake","type":"uint96","internalType":"uint96"}]},{"name":"quorumsApkUpdate","type":"tuple[]","internalType":"struct IGaspMultiRollupServicePrimitives.QuorumsApkUpdate[]","components":[{"name":"quorumNumber","type":"uint8","internalType":"uint8"},{"name":"quorumApk","type":"tuple","internalType":"struct BN254.G1Point","components":[{"name":"X","type":"uint256","internalType":"uint256"},{"name":"Y","type":"uint256","internalType":"uint256"}]}]},{"name":"operatorsRemoved","type":"bytes32[]","internalType":"bytes32[]"},{"name":"operatorsAdded","type":"tuple[]","internalType":"struct IGaspMultiRollupServicePrimitives.OperatorsAdded[]","components":[{"name":"operatorId","type":"bytes32","internalType":"bytes32"},{"name":"quorumForStakes","type":"uint8[]","internalType":"uint8[]"},{"name":"quorumStakes","type":"uint96[]","internalType":"uint96[]"},{"name":"quorumCount","type":"uint8","internalType":"uint8"}]},{"name":"operatorsStakeUpdate","type":"tuple[]","internalType":"struct IGaspMultiRollupServicePrimitives.OperatorsStakeUpdate[]","components":[{"name":"operatorId","type":"bytes32","internalType":"bytes32"},{"name":"quorumForStakes","type":"uint8[]","internalType":"uint8[]"},{"name":"quorumStakes","type":"uint96[]","internalType":"uint96[]"}]},{"name":"operatorsQuorumCountUpdate","type":"tuple[]","internalType":"struct IGaspMultiRollupServicePrimitives.OperatorsQuorumCountUpdate[]","components":[{"name":"operatorId","type":"bytes32","internalType":"bytes32"},{"name":"quorumCount","type":"uint8","internalType":"uint8"}]}]}],"outputs":[],"stateMutability":"view"},{"type":"function","name":"dummyForTaskResponse","inputs":[{"name":"_taskResponse","type":"tuple","internalType":"struct IFinalizerTaskManager.TaskResponse","components":[{"name":"referenceTaskIndex","type":"uint32","internalType":"uint32"},{"name":"referenceTaskHash","type":"bytes32","internalType":"bytes32"},{"name":"hashes","type":"bytes32[][]","internalType":"bytes32[][]"},{"name":"operatorsStateInfoHash","type":"bytes32","internalType":"bytes32"},{"name":"blockHash","type":"bytes32","internalType":"bytes32"},{"name":"storageProofHash","type":"bytes32","internalType":"bytes32"},{"name":"pendingStateHash","type":"bytes32","internalType":"bytes32"}]}],"outputs":[],"stateMutability":"view"},{"type":"function","name":"dummyForTaskResponseTest","inputs":[{"name":"_taskResponseTest","type":"tuple","internalType":"struct IFinalizerTaskManager.TaskResponseTest","components":[{"name":"referenceTaskIndex","type":"uint32","internalType":"uint32"},{"name":"referenceTaskHash","type":"bytes32","internalType":"bytes32"},{"name":"hashes","type":"bytes32[]","internalType":"bytes32[]"},{"name":"taskTest","type":"tuple","internalType":"struct IFinalizerTaskManager.Task","components":[{"name":"taskNum","type":"uint32","internalType":"uint32"},{"name":"blockNumber","type":"uint256","internalType":"uint256"},{"name":"taskCreatedBlock","type":"uint32","internalType":"uint32"},{"name":"lastCompletedTaskCreatedBlock","type":"uint32","internalType":"uint32"},{"name":"quorumNumbers","type":"bytes","internalType":"bytes"},{"name":"quorumThresholdPercentage","type":"uint32","internalType":"uint32"},{"name":"lastCompletedTaskQuorumNumbers","type":"bytes","internalType":"bytes"},{"name":"lastCompletedTaskQuorumThresholdPercentage","type":"uint32","internalType":"uint32"}]},{"name":"operatorsStateInfoHash","type":"bytes32","internalType":"bytes32"},{"name":"blockHash","type":"bytes32","internalType":"bytes32"},{"name":"storageProofHash","type":"bytes32","internalType":"bytes32"},{"name":"pendingStateHash","type":"bytes32","internalType":"bytes32"}]}],"outputs":[],"stateMutability":"view"},{"type":"function","name":"generator","inputs":[],"outputs":[{"name":"","type":"address","internalType":"address"}],"stateMutability":"view"},{"type":"function","name":"getCheckSignaturesIndices","inputs":[{"name":"registryCoordinator","type":"address","internalType":"contract IRegistryCoordinator"},{"name":"referenceBlockNumber","type":"uint32","internalType":"uint32"},{"name":"quorumNumbers","type":"bytes","internalType":"bytes"},{"name":"nonSignerOperatorIds","type":"bytes32[]","internalType":"bytes32[]"}],"outputs":[{"name":"","type":"tuple","internalType":"struct OperatorStateRetriever.CheckSignaturesIndices","components":[{"name":"nonSignerQuorumBitmapIndices","type":"uint32[]","internalType":"uint32[]"},{"name":"quorumApkIndices","type":"uint32[]","internalType":"uint32[]"},{"name":"totalStakeIndices","type":"uint32[]","internalType":"uint32[]"},{"name":"nonSignerStakeIndices","type":"uint32[][]","internalType":"uint32[][]"}]}],"stateMutability":"view"},{"type":"function","name":"getLatestPendingStateHash","inputs":[],"outputs":[{"name":"","type":"bytes32","internalType":"bytes32"}],"stateMutability":"view"},{"type":"function","name":"getOperatorState","inputs":[{"name":"registryCoordinator","type":"address","internalType":"contract IRegistryCoordinator"},{"name":"quorumNumbers","type":"bytes","internalType":"bytes"},{"name":"blockNumber","type":"uint32","internalType":"uint32"}],"outputs":[{"name":"","type":"tuple[][]","internalType":"struct OperatorStateRetriever.Operator[][]","components":[{"name":"operator","type":"address","internalType":"address"},{"name":"operatorId","type":"bytes32","internalType":"bytes32"},{"name":"stake","type":"uint96","internalType":"uint96"}]}],"stateMutability":"view"},{"type":"function","name":"getOperatorState","inputs":[{"name":"registryCoordinator","type":"address","internalType":"contract IRegistryCoordinator"},{"name":"operatorId","type":"bytes32","internalType":"bytes32"},{"name":"blockNumber","type":"uint32","internalType":"uint32"}],"outputs":[{"name":"","type":"uint256","internalType":"uint256"},{"name":"","type":"tuple[][]","internalType":"struct OperatorStateRetriever.Operator[][]","components":[{"name":"operator","type":"address","internalType":"address"},{"name":"operatorId","type":"bytes32","internalType":"bytes32"},{"name":"stake","type":"uint96","internalType":"uint96"}]}],"stateMutability":"view"},{"type":"function","name":"getQuorumBitmapsAtBlockNumber","inputs":[{"name":"registryCoordinator","type":"address","internalType":"contract IRegistryCoordinator"},{"name":"operatorIds","type":"bytes32[]","internalType":"bytes32[]"},{"name":"blockNumber","type":"uint32","internalType":"uint32"}],"outputs":[{"name":"","type":"uint256[]","internalType":"uint256[]"}],"stateMutability":"view"},{"type":"function","name":"getTaskResponseWindowBlock","inputs":[],"outputs":[{"name":"","type":"uint32","internalType":"uint32"}],"stateMutability":"view"},{"type":"function","name":"indexToTaskStatus","inputs":[{"name":"","type":"uint32","internalType":"uint32"}],"outputs":[{"name":"","type":"uint8","internalType":"enum FinalizerTaskManager.TaskStatus"}],"stateMutability":"view"},{"type":"function","name":"initialize","inputs":[{"name":"_pauserRegistry","type":"address","internalType":"contract IPauserRegistry"},{"name":"initialOwner","type":"address","internalType":"address"},{"name":"_aggregator","type":"address","internalType":"address"},{"name":"_generator","type":"address","internalType":"address"}],"outputs":[],"stateMutability":"nonpayable"},{"type":"function","name":"lastCompletedTaskCreatedBlock","inputs":[],"outputs":[{"name":"","type":"uint32","internalType":"uint32"}],"stateMutability":"view"},{"type":"function","name":"lastCompletedTaskNum","inputs":[],"outputs":[{"name":"","type":"uint32","internalType":"uint32"}],"stateMutability":"view"},{"type":"function","name":"lastCompletedTaskQuorumNumbers","inputs":[],"outputs":[{"name":"","type":"bytes","internalType":"bytes"}],"stateMutability":"view"},{"type":"function","name":"lastCompletedTaskQuorumThresholdPercentage","inputs":[],"outputs":[{"name":"","type":"uint32","internalType":"uint32"}],"stateMutability":"view"},{"type":"function","name":"latestPendingStateHash","inputs":[],"outputs":[{"name":"","type":"bytes32","internalType":"bytes32"}],"stateMutability":"view"},{"type":"function","name":"latestTaskNum","inputs":[],"outputs":[{"name":"","type":"uint32","internalType":"uint32"}],"stateMutability":"view"},{"type":"function","name":"owner","inputs":[],"outputs":[{"name":"","type":"address","internalType":"address"}],"stateMutability":"view"},{"type":"function","name":"pause","inputs":[{"name":"newPausedStatus","type":"uint256","internalType":"uint256"}],"outputs":[],"stateMutability":"nonpayable"},{"type":"function","name":"pauseAll","inputs":[],"outputs":[],"stateMutability":"nonpayable"},{"type":"function","name":"paused","inputs":[{"name":"index","type":"uint8","internalType":"uint8"}],"outputs":[{"name":"","type":"bool","internalType":"bool"}],"stateMutability":"view"},{"type":"function","name":"paused","inputs":[],"outputs":[{"name":"","type":"uint256","internalType":"uint256"}],"stateMutability":"view"},{"type":"function","name":"pauserRegistry","inputs":[],"outputs":[{"name":"","type":"address","internalType":"contract IPauserRegistry"}],"stateMutability":"view"},{"type":"function","name":"registryCoordinator","inputs":[],"outputs":[{"name":"","type":"address","internalType":"contract IRegistryCoordinator"}],"stateMutability":"view"},{"type":"function","name":"renounceOwnership","inputs":[],"outputs":[],"stateMutability":"nonpayable"},{"type":"function","name":"respondToTask","inputs":[{"name":"task","type":"tuple","internalType":"struct IFinalizerTaskManager.Task","components":[{"name":"taskNum","type":"uint32","internalType":"uint32"},{"name":"blockNumber","type":"uint256","internalType":"uint256"},{"name":"taskCreatedBlock","type":"uint32","internalType":"uint32"},{"name":"lastCompletedTaskCreatedBlock","type":"uint32","internalType":"uint32"},{"name":"quorumNumbers","type":"bytes","internalType":"bytes"},{"name":"quorumThresholdPercentage","type":"uint32","internalType":"uint32"},{"name":"lastCompletedTaskQuorumNumbers","type":"bytes","internalType":"bytes"},{"name":"lastCompletedTaskQuorumThresholdPercentage","type":"uint32","internalType":"uint32"}]},{"name":"taskResponse","type":"tuple","internalType":"struct IFinalizerTaskManager.TaskResponse","components":[{"name":"referenceTaskIndex","type":"uint32","internalType":"uint32"},{"name":"referenceTaskHash","type":"bytes32","internalType":"bytes32"},{"name":"hashes","type":"bytes32[][]","internalType":"bytes32[][]"},{"name":"operatorsStateInfoHash","type":"bytes32","internalType":"bytes32"},{"name":"blockHash","type":"bytes32","internalType":"bytes32"},{"name":"storageProofHash","type":"bytes32","internalType":"bytes32"},{"name":"pendingStateHash","type":"bytes32","internalType":"bytes32"}]},{"name":"nonSignerStakesAndSignature","type":"tuple","internalType":"struct IBLSSignatureChecker.NonSignerStakesAndSignature","components":[{"name":"nonSignerQuorumBitmapIndices","type":"uint32[]","internalType":"uint32[]"},{"name":"nonSignerPubkeys","type":"tuple[]","internalType":"struct BN254.G1Point[]","components":[{"name":"X","type":"uint256","internalType":"uint256"},{"name":"Y","type":"uint256","internalType":"uint256"}]},{"name":"quorumApks","type":"tuple[]","internalType":"struct BN254.G1Point[]","components":[{"name":"X","type":"uint256","internalType":"uint256"},{"name":"Y","type":"uint256","internalType":"uint256"}]},{"name":"apkG2","type":"tuple","internalType":"struct BN254.G2Point","components":[{"name":"X","type":"uint256[2]","internalType":"uint256[2]"},{"name":"Y","type":"uint256[2]","internalType":"uint256[2]"}]},{"name":"sigma","type":"tuple","internalType":"struct BN254.G1Point","components":[{"name":"X","type":"uint256","internalType":"uint256"},{"name":"Y","type":"uint256","internalType":"uint256"}]},{"name":"quorumApkIndices","type":"uint32[]","internalType":"uint32[]"},{"name":"totalStakeIndices","type":"uint32[]","internalType":"uint32[]"},{"name":"nonSignerStakeIndices","type":"uint32[][]","internalType":"uint32[][]"}]},{"name":"NonSignerStakesAndSignatureForOldState","type":"tuple","internalType":"struct IGaspMultiRollupServicePrimitives.NonSignerStakesAndSignatureForOldState","components":[{"name":"nonSignerG1PubkeysForOldState","type":"tuple[]","internalType":"struct BN254.G1Point[]","components":[{"name":"X","type":"uint256","internalType":"uint256"},{"name":"Y","type":"uint256","internalType":"uint256"}]},{"name":"apkG2ForOldState","type":"tuple","internalType":"struct BN254.G2Point","components":[{"name":"X","type":"uint256[2]","internalType":"uint256[2]"},{"name":"Y","type":"uint256[2]","internalType":"uint256[2]"}]},{"name":"sigmaForOldState","type":"tuple","internalType":"struct BN254.G1Point","components":[{"name":"X","type":"uint256","internalType":"uint256"},{"name":"Y","type":"uint256","internalType":"uint256"}]}]}],"outputs":[],"stateMutability":"nonpayable"},{"type":"function","name":"setPauserRegistry","inputs":[{"name":"newPauserRegistry","type":"address","internalType":"contract IPauserRegistry"}],"outputs":[],"stateMutability":"nonpayable"},{"type":"function","name":"setStaleStakesForbidden","inputs":[{"name":"value","type":"bool","internalType":"bool"}],"outputs":[],"stateMutability":"nonpayable"},{"type":"function","name":"stakeRegistry","inputs":[],"outputs":[{"name":"","type":"address","internalType":"contract IStakeRegistry"}],"stateMutability":"view"},{"type":"function","name":"staleStakesForbidden","inputs":[],"outputs":[{"name":"","type":"bool","internalType":"bool"}],"stateMutability":"view"},{"type":"function","name":"taskNumber","inputs":[],"outputs":[{"name":"","type":"uint32","internalType":"uint32"}],"stateMutability":"view"},{"type":"function","name":"transferOwnership","inputs":[{"name":"newOwner","type":"address","internalType":"address"}],"outputs":[],"stateMutability":"nonpayable"},{"type":"function","name":"trySignatureAndApkVerification","inputs":[{"name":"msgHash","type":"bytes32","internalType":"bytes32"},{"name":"apk","type":"tuple","internalType":"struct BN254.G1Point","components":[{"name":"X","type":"uint256","internalType":"uint256"},{"name":"Y","type":"uint256","internalType":"uint256"}]},{"name":"apkG2","type":"tuple","internalType":"struct BN254.G2Point","components":[{"name":"X","type":"uint256[2]","internalType":"uint256[2]"},{"name":"Y","type":"uint256[2]","internalType":"uint256[2]"}]},{"name":"sigma","type":"tuple","internalType":"struct BN254.G1Point","components":[{"name":"X","type":"uint256","internalType":"uint256"},{"name":"Y","type":"uint256","internalType":"uint256"}]}],"outputs":[{"name":"pairingSuccessful","type":"bool","internalType":"bool"},{"name":"siganatureIsValid","type":"bool","internalType":"bool"}],"stateMutability":"view"},{"type":"function","name":"unpause","inputs":[{"name":"newPausedStatus","type":"uint256","internalType":"uint256"}],"outputs":[],"stateMutability":"nonpayable"},{"type":"event","name":"Initialized","inputs":[{"name":"version","type":"uint8","indexed":false,"internalType":"uint8"}],"anonymous":false},{"type":"event","name":"NewTaskCreated","inputs":[{"name":"taskIndex","type":"uint32","indexed":true,"internalType":"uint32"},{"name":"task","type":"tuple","indexed":false,"internalType":"struct IFinalizerTaskManager.Task","components":[{"name":"taskNum","type":"uint32","internalType":"uint32"},{"name":"blockNumber","type":"uint256","internalType":"uint256"},{"name":"taskCreatedBlock","type":"uint32","internalType":"uint32"},{"name":"lastCompletedTaskCreatedBlock","type":"uint32","internalType":"uint32"},{"name":"quorumNumbers","type":"bytes","internalType":"bytes"},{"name":"quorumThresholdPercentage","type":"uint32","internalType":"uint32"},{"name":"lastCompletedTaskQuorumNumbers","type":"bytes","internalType":"bytes"},{"name":"lastCompletedTaskQuorumThresholdPercentage","type":"uint32","internalType":"uint32"}]}],"anonymous":false},{"type":"event","name":"OwnershipTransferred","inputs":[{"name":"previousOwner","type":"address","indexed":true,"internalType":"address"},{"name":"newOwner","type":"address","indexed":true,"internalType":"address"}],"anonymous":false},{"type":"event","name":"Paused","inputs":[{"name":"account","type":"address","indexed":true,"internalType":"address"},{"name":"newPausedStatus","type":"uint256","indexed":false,"internalType":"uint256"}],"anonymous":false},{"type":"event","name":"PauserRegistrySet","inputs":[{"name":"pauserRegistry","type":"address","indexed":false,"internalType":"contract IPauserRegistry"},{"name":"newPauserRegistry","type":"address","indexed":false,"internalType":"contract IPauserRegistry"}],"anonymous":false},{"type":"event","name":"StaleStakesForbiddenUpdate","inputs":[{"name":"value","type":"bool","indexed":false,"internalType":"bool"}],"anonymous":false},{"type":"event","name":"TaskCompleted","inputs":[{"name":"taskIndex","type":"uint32","indexed":true,"internalType":"uint32"},{"name":"blockHash","type":"bytes32","indexed":true,"internalType":"bytes32"},{"name":"taskResponse","type":"tuple","indexed":false,"internalType":"struct IFinalizerTaskManager.TaskResponse","components":[{"name":"referenceTaskIndex","type":"uint32","internalType":"uint32"},{"name":"referenceTaskHash","type":"bytes32","internalType":"bytes32"},{"name":"hashes","type":"bytes32[][]","internalType":"bytes32[][]"},{"name":"operatorsStateInfoHash","type":"bytes32","internalType":"bytes32"},{"name":"blockHash","type":"bytes32","internalType":"bytes32"},{"name":"storageProofHash","type":"bytes32","internalType":"bytes32"},{"name":"pendingStateHash","type":"bytes32","internalType":"bytes32"}]}],"anonymous":false},{"type":"event","name":"TaskResponded","inputs":[{"name":"taskIndex","type":"uint32","indexed":true,"internalType":"uint32"},{"name":"taskResponse","type":"tuple","indexed":false,"internalType":"struct IFinalizerTaskManager.TaskResponse","components":[{"name":"referenceTaskIndex","type":"uint32","internalType":"uint32"},{"name":"referenceTaskHash","type":"bytes32","internalType":"bytes32"},{"name":"hashes","type":"bytes32[][]","internalType":"bytes32[][]"},{"name":"operatorsStateInfoHash","type":"bytes32","internalType":"bytes32"},{"name":"blockHash","type":"bytes32","internalType":"bytes32"},{"name":"storageProofHash","type":"bytes32","internalType":"bytes32"},{"name":"pendingStateHash","type":"bytes32","internalType":"bytes32"}]},{"name":"taskResponseMetadata","type":"tuple","indexed":false,"internalType":"struct IFinalizerTaskManager.TaskResponseMetadata","components":[{"name":"taskResponsedBlock","type":"uint32","internalType":"uint32"},{"name":"hashOfNonSigners","type":"bytes32","internalType":"bytes32"},{"name":"quroumStakeTotals","type":"uint96[]","internalType":"uint96[]"},{"name":"quroumStakeSigned","type":"uint96[]","internalType":"uint96[]"}]}],"anonymous":false},{"type":"event","name":"Unpaused","inputs":[{"name":"account","type":"address","indexed":true,"internalType":"address"},{"name":"newPausedStatus","type":"uint256","indexed":false,"internalType":"uint256"}],"anonymous":false}],"bytecode":{"object":"0x6101206040523480156200001257600080fd5b5060405162006103380380620061038339810160408190526200003591620001f7565b81806001600160a01b03166080816001600160a01b031681525050806001600160a01b031663683048356040518163ffffffff1660e01b8152600401602060405180830381865afa1580156200008f573d6000803e3d6000fd5b505050506040513d601f19601f82011682018060405250810190620000b591906200023e565b6001600160a01b031660a0816001600160a01b031681525050806001600160a01b0316635df459466040518163ffffffff1660e01b8152600401602060405180830381865afa1580156200010d573d6000803e3d6000fd5b505050506040513d601f19601f820116820180604052508101906200013391906200023e565b6001600160a01b031660c0816001600160a01b03168152505060a0516001600160a01b031663df5cf7236040518163ffffffff1660e01b8152600401602060405180830381865afa1580156200018d573d6000803e3d6000fd5b505050506040513d601f19601f82011682018060405250810190620001b391906200023e565b6001600160a01b031660e052506097805460ff1916600117905563ffffffff16610100525062000265565b6001600160a01b0381168114620001f457600080fd5b50565b600080604083850312156200020b57600080fd5b82516200021881620001de565b602084015190925063ffffffff811681146200023357600080fd5b809150509250929050565b6000602082840312156200025157600080fd5b81516200025e81620001de565b9392505050565b60805160a05160c05160e05161010051615e1a620002e96000396000818161063e0152610c8e0152600081816106070152612a0b0152600081816104930152612bee0152600081816104ca01528181612dc40152612f86015260008181610504015281816114ae015281816126d60152818161286e0152612aa80152615e1a6000f3fe608060405234801561001057600080fd5b506004361061025e5760003560e01c80635c975abb11610146578063886f1195116100c3578063cefdc1d411610087578063cefdc1d4146105e1578063df5cf72314610602578063f2fde38b14610629578063f5c9899d1461063c578063f8c8765e14610662578063fabc1cbc1461067557600080fd5b8063886f1195146105705780638b00ce7c146105835780638da5cb5b1461059357806399dba0c4146105a4578063b98d0908146105d457600080fd5b80636d14a9871161010a5780636d14a987146104ff5780636efb463614610526578063715018a61461054757806372d18e8d1461054f5780637afa1eed1461055d57600080fd5b80635c975abb146104865780635df459461461048e57806366e4a1ca146104b557806368304835146104c55780636b92787e146104ec57600080fd5b806332ca286e116101df5780634f739f74116101a35780634f739f74146103ef57806354d127de1461040f57806355a504441461041d578063595c6a671461042b5780635ac86ab7146104335780635c1556621461046657600080fd5b806332ca286e146103905780633563b0d1146103a3578063416c7e5e146103c357806344d6ef39146103d65780634ae6b203146103e657600080fd5b80631840da42116102265780631840da42146102e15780631ce7b2e5146102f2578063245a7bfc1461031e5780632cb223d5146103505780632d89f6fc1461037057600080fd5b80630373408d146102635780630e8e77c41461027a57806310d67a2f1461028f578063136439dd146102a4578063171f1d5b146102b7575b600080fd5b60d1545b6040519081526020015b60405180910390f35b610282610688565b60405161027191906145c4565b6102a261029d3660046145f3565b610716565b005b6102a26102b2366004614610565b6107cf565b6102ca6102c53660046147b0565b61090e565b604080519215158352901515602083015201610271565b6102a26102ef366004614819565b50565b60cd5461030990600160201b900463ffffffff1681565b60405163ffffffff9091168152602001610271565b60cf5461033890600160201b90046001600160a01b031681565b6040516001600160a01b039091168152602001610271565b61026761035e366004614872565b60cb6020526000908152604090205481565b61026761037e366004614872565b60ca6020526000908152604090205481565b6102a261039e366004614b46565b610a98565b6103b66103b1366004614c44565b611016565b6040516102719190614da2565b6102a26103d1366004614dc3565b6114ac565b60cf546103099063ffffffff1681565b61026760d15481565b6104026103fd366004614e28565b611621565b6040516102719190614f2c565b6102a26102ef366004614fe7565b6102a26102ef366004615022565b6102a2611d47565b610456610441366004615065565b606654600160ff9092169190911b9081161490565b6040519015158152602001610271565b610479610474366004615082565b611e0e565b604051610271919061512e565b606654610267565b6103387f000000000000000000000000000000000000000000000000000000000000000081565b60cd546103099063ffffffff1681565b6103387f000000000000000000000000000000000000000000000000000000000000000081565b6102a26104fa366004615172565b611fd6565b6103387f000000000000000000000000000000000000000000000000000000000000000081565b6105396105343660046151cd565b612323565b60405161027192919061528d565b6102a261323b565b60c95463ffffffff16610309565b60d054610338906001600160a01b031681565b606554610338906001600160a01b031681565b60c9546103099063ffffffff1681565b6033546001600160a01b0316610338565b6105c76105b2366004614872565b60cc6020526000908152604090205460ff1681565b60405161027191906152ec565b6097546104569060ff1681565b6105f46105ef366004615314565b61324f565b604051610271929190615356565b6103387f000000000000000000000000000000000000000000000000000000000000000081565b6102a26106373660046145f3565b6133e1565b7f0000000000000000000000000000000000000000000000000000000000000000610309565b6102a261067036600461536f565b613457565b6102a2610683366004614610565b6135bc565b60ce8054610695906153cb565b80601f01602080910402602001604051908101604052809291908181526020018280546106c1906153cb565b801561070e5780601f106106e35761010080835404028352916020019161070e565b820191906000526020600020905b8154815290600101906020018083116106f157829003601f168201915b505050505081565b606560009054906101000a90046001600160a01b03166001600160a01b031663eab66d7a6040518163ffffffff1660e01b8152600401602060405180830381865afa158015610769573d6000803e3d6000fd5b505050506040513d601f19601f8201168201806040525081019061078d9190615400565b6001600160a01b0316336001600160a01b0316146107c65760405162461bcd60e51b81526004016107bd9061541d565b60405180910390fd5b6102ef81613718565b60655460405163237dfb4760e11b81523360048201526001600160a01b03909116906346fbf68e90602401602060405180830381865afa158015610817573d6000803e3d6000fd5b505050506040513d601f19601f8201168201806040525081019061083b9190615467565b6108575760405162461bcd60e51b81526004016107bd90615484565b606654818116146108d05760405162461bcd60e51b815260206004820152603860248201527f5061757361626c652e70617573653a20696e76616c696420617474656d70742060448201527f746f20756e70617573652066756e6374696f6e616c697479000000000000000060648201526084016107bd565b606681905560405181815233907fab40a374bc51de372200a8bc981af8c9ecdc08dfdaef0bb6e09f88f3c616ef3d906020015b60405180910390a250565b60008060007f30644e72e131a029b85045b68181585d2833e84879b9709143e1f593f000000187876000015188602001518860000151600060028110610956576109566154cc565b60200201518951600160200201518a6020015160006002811061097b5761097b6154cc565b60200201518b60200151600160028110610997576109976154cc565b602090810291909101518c518d8301516040516109f49a99989796959401988952602089019790975260408801959095526060870193909352608086019190915260a085015260c084015260e08301526101008201526101200190565b6040516020818303038152906040528051906020012060001c610a1791906154e2565b9050610a8a610a30610a29888461380f565b86906138a6565b610a3861393a565b610a80610a7185610a6b604080518082018252600080825260209182015281518083019092526001825260029082015290565b9061380f565b610a7a8c6139fa565b906138a6565b886201d4c0613a8a565b909890975095505050505050565b60cf54600160201b90046001600160a01b03163314610ae15760405162461bcd60e51b8152602060048201526005602482015264041757468360dc1b60448201526064016107bd565b6000610af36060860160408701614872565b9050366000610b056080880188615504565b90925090506000610b1c60c0890160a08a01614872565b905060ca6000610b2f60208a018a614872565b63ffffffff1663ffffffff1681526020019081526020016000205488604051602001610b5b91906155b8565b6040516020818303038152906040528051906020012014610be45760405162461bcd60e51b815260206004820152603d60248201527f737570706c696564207461736b20646f6573206e6f74206d617463682074686560448201527f206f6e65207265636f7264656420696e2074686520636f6e747261637400000060648201526084016107bd565b600160cc6000610bf760208b018b614872565b63ffffffff16815260208101919091526040016000205460ff166003811115610c2257610c226152d6565b14610c3f5760405162461bcd60e51b81526004016107bd9061569a565b600060cb81610c5160208b018b614872565b63ffffffff1663ffffffff1681526020019081526020016000205414610c895760405162461bcd60e51b81526004016107bd9061569a565b610cb37f0000000000000000000000000000000000000000000000000000000000000000856156fc565b63ffffffff164363ffffffff161115610d245760405162461bcd60e51b815260206004820152602d60248201527f41676772656761746f722068617320726573706f6e64656420746f207468652060448201526c7461736b20746f6f206c61746560981b60648201526084016107bd565b600087604051602001610d379190615863565b604051602081830303815290604052805190602001209050600080610d5f8387878a8d612323565b6040805160808101825263ffffffff43168152602080820184905280850151828401528451606083015291519395509193509091610da1918d91849101615876565b6040516020818303038152906040528051906020012060cb60008d6000016020810190610dce9190614872565b63ffffffff16815260208082019290925260400160002091909155610df5908d018d614872565b63ffffffff167f12b317541621869791c8c5bcc493e23a92cf134f0e19436c5ace9a03d2d254948c83604051610e2c929190615876565b60405180910390a260005b86811015610ecd578560ff1684602001518281518110610e5957610e596154cc565b6020026020010151610e6b91906158e2565b6001600160601b0316606485600001518381518110610e8c57610e8c6154cc565b60200260200101516001600160601b0316610ea79190615911565b1015610ebb57505050505050505050611010565b80610ec581615930565b915050610e37565b5060c08b013560d155600360cc6000610ee960208f018f614872565b63ffffffff16815260208101919091526040016000205460ff166003811115610f1457610f146152d6565b50610f27905060608d0160408e01614872565b60cd805463ffffffff92909216600160201b0267ffffffff0000000019909216919091179055610f5a60808d018d615504565b610f669160ce91614404565b50610f7760c08d0160a08e01614872565b60cf805463ffffffff191663ffffffff92909216919091179055610f9e60208d018d614872565b60cd805463ffffffff191663ffffffff9290921691909117905560808b0135610fca60208d018d614872565b63ffffffff167f34083348b45bc89fb0dec700a90f12b802243347763e4472b39d4b4a6e2615c08d604051610fff9190615863565b60405180910390a350505050505050505b50505050565b60606000846001600160a01b031663683048356040518163ffffffff1660e01b8152600401602060405180830381865afa158015611058573d6000803e3d6000fd5b505050506040513d601f19601f8201168201806040525081019061107c9190615400565b90506000856001600160a01b0316639e9923c26040518163ffffffff1660e01b8152600401602060405180830381865afa1580156110be573d6000803e3d6000fd5b505050506040513d601f19601f820116820180604052508101906110e29190615400565b90506000866001600160a01b0316635df459466040518163ffffffff1660e01b8152600401602060405180830381865afa158015611124573d6000803e3d6000fd5b505050506040513d601f19601f820116820180604052508101906111489190615400565b9050600086516001600160401b0381111561116557611165614629565b60405190808252806020026020018201604052801561119857816020015b60608152602001906001900390816111835790505b50905060005b87518110156114a05760008882815181106111bb576111bb6154cc565b0160200151604051638902624560e01b815260f89190911c6004820181905263ffffffff8a16602483015291506000906001600160a01b03871690638902624590604401600060405180830381865afa15801561121c573d6000803e3d6000fd5b505050506040513d6000823e601f3d908101601f19168201604052611244919081019061594b565b905080516001600160401b0381111561125f5761125f614629565b6040519080825280602002602001820160405280156112aa57816020015b604080516060810182526000808252602080830182905292820152825260001990920191018161127d5790505b508484815181106112bd576112bd6154cc565b602002602001018190525060005b815181101561148a576040518060600160405280876001600160a01b03166347b314e8858581518110611300576113006154cc565b60200260200101516040518263ffffffff1660e01b815260040161132691815260200190565b602060405180830381865afa158015611343573d6000803e3d6000fd5b505050506040513d601f19601f820116820180604052508101906113679190615400565b6001600160a01b03168152602001838381518110611387576113876154cc565b60200260200101518152602001896001600160a01b031663fa28c6278585815181106113b5576113b56154cc565b60209081029190910101516040516001600160e01b031960e084901b168152600481019190915260ff8816602482015263ffffffff8f166044820152606401602060405180830381865afa158015611411573d6000803e3d6000fd5b505050506040513d601f19601f8201168201806040525081019061143591906159d0565b6001600160601b0316815250858581518110611453576114536154cc565b6020026020010151828151811061146c5761146c6154cc565b6020026020010181905250808061148290615930565b9150506112cb565b505050808061149890615930565b91505061119e565b50979650505050505050565b7f00000000000000000000000000000000000000000000000000000000000000006001600160a01b0316638da5cb5b6040518163ffffffff1660e01b8152600401602060405180830381865afa15801561150a573d6000803e3d6000fd5b505050506040513d601f19601f8201168201806040525081019061152e9190615400565b6001600160a01b0316336001600160a01b0316146115da5760405162461bcd60e51b815260206004820152605c60248201527f424c535369676e6174757265436865636b65722e6f6e6c79436f6f7264696e6160448201527f746f724f776e65723a2063616c6c6572206973206e6f7420746865206f776e6560648201527f72206f6620746865207265676973747279436f6f7264696e61746f7200000000608482015260a4016107bd565b6097805460ff19168215159081179091556040519081527f40e4ed880a29e0f6ddce307457fb75cddf4feef7d3ecb0301bfdf4976a0e2dfc9060200160405180910390a150565b61164c6040518060800160405280606081526020016060815260200160608152602001606081525090565b6000876001600160a01b031663683048356040518163ffffffff1660e01b8152600401602060405180830381865afa15801561168c573d6000803e3d6000fd5b505050506040513d601f19601f820116820180604052508101906116b09190615400565b90506116dd6040518060800160405280606081526020016060815260200160608152602001606081525090565b6040516361c8a12f60e11b81526001600160a01b038a169063c391425e9061170d908b90899089906004016159f9565b600060405180830381865afa15801561172a573d6000803e3d6000fd5b505050506040513d6000823e601f3d908101601f191682016040526117529190810190615a22565b81526040516340e03a8160e11b81526001600160a01b038316906381c0750290611784908b908b908b90600401615ab0565b600060405180830381865afa1580156117a1573d6000803e3d6000fd5b505050506040513d6000823e601f3d908101601f191682016040526117c99190810190615a22565b6040820152856001600160401b038111156117e6576117e6614629565b60405190808252806020026020018201604052801561181957816020015b60608152602001906001900390816118045790505b50606082015260005b60ff8116871115611c58576000856001600160401b0381111561184757611847614629565b604051908082528060200260200182016040528015611870578160200160208202803683370190505b5083606001518360ff168151811061188a5761188a6154cc565b602002602001018190525060005b86811015611b585760008c6001600160a01b03166304ec63518a8a858181106118c3576118c36154cc565b905060200201358e886000015186815181106118e1576118e16154cc565b60200260200101516040518463ffffffff1660e01b815260040161191e9392919092835263ffffffff918216602084015216604082015260600190565b602060405180830381865afa15801561193b573d6000803e3d6000fd5b505050506040513d601f19601f8201168201806040525081019061195f9190615ad0565b90506001600160c01b038116611a035760405162461bcd60e51b815260206004820152605c60248201527f4f70657261746f7253746174655265747269657665722e676574436865636b5360448201527f69676e617475726573496e64696365733a206f70657261746f72206d7573742060648201527f6265207265676973746572656420617420626c6f636b6e756d62657200000000608482015260a4016107bd565b8a8a8560ff16818110611a1857611a186154cc565b6001600160c01b03841692013560f81c9190911c600190811614159050611b4557856001600160a01b031663dd9846b98a8a85818110611a5a57611a5a6154cc565b905060200201358d8d8860ff16818110611a7657611a766154cc565b6040516001600160e01b031960e087901b1681526004810194909452919091013560f81c60248301525063ffffffff8f166044820152606401602060405180830381865afa158015611acc573d6000803e3d6000fd5b505050506040513d601f19601f82011682018060405250810190611af09190615af9565b85606001518560ff1681518110611b0957611b096154cc565b60200260200101518481518110611b2257611b226154cc565b63ffffffff9092166020928302919091019091015282611b4181615930565b9350505b5080611b5081615930565b915050611898565b506000816001600160401b03811115611b7357611b73614629565b604051908082528060200260200182016040528015611b9c578160200160208202803683370190505b50905060005b82811015611c1d5784606001518460ff1681518110611bc357611bc36154cc565b60200260200101518181518110611bdc57611bdc6154cc565b6020026020010151828281518110611bf657611bf66154cc565b63ffffffff9092166020928302919091019091015280611c1581615930565b915050611ba2565b508084606001518460ff1681518110611c3857611c386154cc565b602002602001018190525050508080611c5090615b16565b915050611822565b506000896001600160a01b0316635df459466040518163ffffffff1660e01b8152600401602060405180830381865afa158015611c99573d6000803e3d6000fd5b505050506040513d601f19601f82011682018060405250810190611cbd9190615400565b60405163354952a360e21b81529091506001600160a01b0382169063d5254a8c90611cf0908b908b908e90600401615b36565b600060405180830381865afa158015611d0d573d6000803e3d6000fd5b505050506040513d6000823e601f3d908101601f19168201604052611d359190810190615a22565b60208301525098975050505050505050565b60655460405163237dfb4760e11b81523360048201526001600160a01b03909116906346fbf68e90602401602060405180830381865afa158015611d8f573d6000803e3d6000fd5b505050506040513d601f19601f82011682018060405250810190611db39190615467565b611dcf5760405162461bcd60e51b81526004016107bd90615484565b600019606681905560405190815233907fab40a374bc51de372200a8bc981af8c9ecdc08dfdaef0bb6e09f88f3c616ef3d9060200160405180910390a2565b60606000846001600160a01b031663c391425e84866040518363ffffffff1660e01b8152600401611e40929190615b60565b600060405180830381865afa158015611e5d573d6000803e3d6000fd5b505050506040513d6000823e601f3d908101601f19168201604052611e859190810190615a22565b9050600084516001600160401b03811115611ea257611ea2614629565b604051908082528060200260200182016040528015611ecb578160200160208202803683370190505b50905060005b8551811015611fcc57866001600160a01b03166304ec6351878381518110611efb57611efb6154cc565b602002602001015187868581518110611f1657611f166154cc565b60200260200101516040518463ffffffff1660e01b8152600401611f539392919092835263ffffffff918216602084015216604082015260600190565b602060405180830381865afa158015611f70573d6000803e3d6000fd5b505050506040513d601f19601f82011682018060405250810190611f949190615ad0565b6001600160c01b0316828281518110611faf57611faf6154cc565b602090810291909101015280611fc481615930565b915050611ed1565b5095945050505050565b60d0546001600160a01b031633146120185760405162461bcd60e51b8152602060048201526005602482015264417574683160d81b60448201526064016107bd565b60cd5463ffffffff600160201b90910416431480159061203757504315155b6120a95760405162461bcd60e51b815260206004820152603960248201527f43616e2774206372656174652061207461736b20696e207468652073616d652060448201527f626c6f636b206173206120636f6d706c65746564207461736b0000000000000060648201526084016107bd565b6040805161010081018252600060608083018290526080830181905260c083015260e082015260c95463ffffffff908116825260208083018890524382168385015290861660a08301528251601f85018290048202810182019093528383529091908490849081908401838280828437600092019190915250505050608082015260cd54600160201b900463ffffffff16606082015260ce805461214c906153cb565b80601f0160208091040260200160405190810160405280929190818152602001828054612178906153cb565b80156121c55780601f1061219a576101008083540402835291602001916121c5565b820191906000526020600020905b8154815290600101906020018083116121a857829003601f168201915b505050505060c082015260cf5463ffffffff90811660e083015260c95416156122575760c9546000906122009060019063ffffffff16615bb4565b9050600163ffffffff8216600090815260cc602052604090205460ff16600381111561222e5761222e6152d6565b14156122555763ffffffff8116600090815260cc60205260409020805460ff191660021790555b505b806040516020016122689190615bd9565b60408051808303601f19018152828252805160209182012060c9805463ffffffff908116600090815260ca85528581209390935581548116835260cc909352929020805460ff19166001179055905416907f840101e40ed68f9364ac588df45a8f81d45874b1c10a496d0a2129be9134639d906122e6908490615bd9565b60405180910390a260c9546123029063ffffffff1660016156fc565b60c9805463ffffffff191663ffffffff929092169190911790555050505050565b604080518082019091526060808252602082015260008461239a5760405162461bcd60e51b81526020600482015260376024820152600080516020615dc583398151915260448201527f7265733a20656d7074792071756f72756d20696e70757400000000000000000060648201526084016107bd565b604083015151851480156123b2575060a08301515185145b80156123c2575060c08301515185145b80156123d2575060e08301515185145b61243c5760405162461bcd60e51b81526020600482015260416024820152600080516020615dc583398151915260448201527f7265733a20696e7075742071756f72756d206c656e677468206d69736d6174636064820152600d60fb1b608482015260a4016107bd565b825151602084015151146124b45760405162461bcd60e51b815260206004820152604460248201819052600080516020615dc5833981519152908201527f7265733a20696e707574206e6f6e7369676e6572206c656e677468206d69736d6064820152630c2e8c6d60e31b608482015260a4016107bd565b4363ffffffff168463ffffffff16106125235760405162461bcd60e51b815260206004820152603c6024820152600080516020615dc583398151915260448201527f7265733a20696e76616c6964207265666572656e636520626c6f636b0000000060648201526084016107bd565b6040805180820182526000808252602080830191909152825180840190935260608084529083015290866001600160401b0381111561256457612564614629565b60405190808252806020026020018201604052801561258d578160200160208202803683370190505b506020820152866001600160401b038111156125ab576125ab614629565b6040519080825280602002602001820160405280156125d4578160200160208202803683370190505b50815260408051808201909152606080825260208201528560200151516001600160401b0381111561260857612608614629565b604051908082528060200260200182016040528015612631578160200160208202803683370190505b5081526020860151516001600160401b0381111561265157612651614629565b60405190808252806020026020018201604052801561267a578160200160208202803683370190505b508160200181905250600061274c8a8a8080601f0160208091040260200160405190810160405280939291908181526020018383808284376000920191909152505060408051639aa1653d60e01b815290516001600160a01b037f0000000000000000000000000000000000000000000000000000000000000000169350639aa1653d925060048083019260209291908290030181865afa158015612723573d6000803e3d6000fd5b505050506040513d601f19601f820116820180604052508101906127479190615c8a565b613cae565b905060005b8760200151518110156129e75761279688602001518281518110612777576127776154cc565b6020026020010151805160009081526020918201519091526040902090565b836020015182815181106127ac576127ac6154cc565b6020908102919091010152801561286c5760208301516127cd600183615ca7565b815181106127dd576127dd6154cc565b602002602001015160001c836020015182815181106127fe576127fe6154cc565b602002602001015160001c1161286c576040805162461bcd60e51b8152602060048201526024810191909152600080516020615dc583398151915260448201527f7265733a206e6f6e5369676e65725075626b657973206e6f7420736f7274656460648201526084016107bd565b7f00000000000000000000000000000000000000000000000000000000000000006001600160a01b03166304ec6351846020015183815181106128b1576128b16154cc565b60200260200101518b8b6000015185815181106128d0576128d06154cc565b60200260200101516040518463ffffffff1660e01b815260040161290d9392919092835263ffffffff918216602084015216604082015260600190565b602060405180830381865afa15801561292a573d6000803e3d6000fd5b505050506040513d601f19601f8201168201806040525081019061294e9190615ad0565b6001600160c01b03168360000151828151811061296d5761296d6154cc565b6020026020010181815250506129d3610a296129a78486600001518581518110612999576129996154cc565b602002602001015116613d41565b8a6020015184815181106129bd576129bd6154cc565b6020026020010151613d6c90919063ffffffff16565b9450806129df81615930565b915050612751565b50506129f283613e50565b60975490935060ff16600081612a09576000612a8b565b7f00000000000000000000000000000000000000000000000000000000000000006001600160a01b031663c448feb86040518163ffffffff1660e01b8152600401602060405180830381865afa158015612a67573d6000803e3d6000fd5b505050506040513d601f19601f82011682018060405250810190612a8b9190615cbe565b905060005b8a81101561310a578215612bec578963ffffffff16827f00000000000000000000000000000000000000000000000000000000000000006001600160a01b031663249a0c428f8f86818110612ae757612ae76154cc565b60405160e085901b6001600160e01b031916815292013560f81c600483015250602401602060405180830381865afa158015612b27573d6000803e3d6000fd5b505050506040513d601f19601f82011682018060405250810190612b4b9190615cbe565b612b559190615cd7565b1015612bec5760405162461bcd60e51b81526020600482015260666024820152600080516020615dc583398151915260448201527f7265733a205374616b6552656769737472792075706461746573206d7573742060648201527f62652077697468696e207769746864726177616c44656c6179426c6f636b732060848201526577696e646f7760d01b60a482015260c4016107bd565b7f00000000000000000000000000000000000000000000000000000000000000006001600160a01b03166368bccaac8d8d84818110612c2d57612c2d6154cc565b9050013560f81c60f81b60f81c8c8c60a001518581518110612c5157612c516154cc565b60209081029190910101516040516001600160e01b031960e086901b16815260ff909316600484015263ffffffff9182166024840152166044820152606401602060405180830381865afa158015612cad573d6000803e3d6000fd5b505050506040513d601f19601f82011682018060405250810190612cd19190615cef565b6001600160401b031916612cf48a604001518381518110612777576127776154cc565b67ffffffffffffffff191614612d905760405162461bcd60e51b81526020600482015260616024820152600080516020615dc583398151915260448201527f7265733a2071756f72756d41706b206861736820696e2073746f72616765206460648201527f6f6573206e6f74206d617463682070726f76696465642071756f72756d2061706084820152606b60f81b60a482015260c4016107bd565b612dc089604001518281518110612da957612da96154cc565b6020026020010151876138a690919063ffffffff16565b95507f00000000000000000000000000000000000000000000000000000000000000006001600160a01b031663c8294c568d8d84818110612e0357612e036154cc565b9050013560f81c60f81b60f81c8c8c60c001518581518110612e2757612e276154cc565b60209081029190910101516040516001600160e01b031960e086901b16815260ff909316600484015263ffffffff9182166024840152166044820152606401602060405180830381865afa158015612e83573d6000803e3d6000fd5b505050506040513d601f19601f82011682018060405250810190612ea791906159d0565b85602001518281518110612ebd57612ebd6154cc565b6001600160601b03909216602092830291909101820152850151805182908110612ee957612ee96154cc565b602002602001015185600001518281518110612f0757612f076154cc565b60200260200101906001600160601b031690816001600160601b0316815250506000805b8a60200151518110156130f557612f7f86600001518281518110612f5157612f516154cc565b60200260200101518f8f86818110612f6b57612f6b6154cc565b600192013560f81c9290921c811614919050565b156130e3577f00000000000000000000000000000000000000000000000000000000000000006001600160a01b031663f2be94ae8f8f86818110612fc557612fc56154cc565b9050013560f81c60f81b60f81c8e89602001518581518110612fe957612fe96154cc565b60200260200101518f60e001518881518110613007576130076154cc565b60200260200101518781518110613020576130206154cc565b60209081029190910101516040516001600160e01b031960e087901b16815260ff909416600485015263ffffffff92831660248501526044840191909152166064820152608401602060405180830381865afa158015613084573d6000803e3d6000fd5b505050506040513d601f19601f820116820180604052508101906130a891906159d0565b87518051859081106130bc576130bc6154cc565b602002602001018181516130d09190615d1a565b6001600160601b03169052506001909101905b806130ed81615930565b915050612f2b565b5050808061310290615930565b915050612a90565b5050506000806131248c868a606001518b6080015161090e565b91509150816131955760405162461bcd60e51b81526020600482015260436024820152600080516020615dc583398151915260448201527f7265733a2070616972696e6720707265636f6d70696c652063616c6c206661696064820152621b195960ea1b608482015260a4016107bd565b806131f65760405162461bcd60e51b81526020600482015260396024820152600080516020615dc583398151915260448201527f7265733a207369676e617475726520697320696e76616c69640000000000000060648201526084016107bd565b50506000878260200151604051602001613211929190615d3a565b60408051808303601f190181529190528051602090910120929b929a509198505050505050505050565b613243613eeb565b61324d6000613f45565b565b604080516001808252818301909252600091606091839160208083019080368337019050509050848160008151811061328a5761328a6154cc565b60209081029190910101526040516361c8a12f60e11b81526000906001600160a01b0388169063c391425e906132c69088908690600401615b60565b600060405180830381865afa1580156132e3573d6000803e3d6000fd5b505050506040513d6000823e601f3d908101601f1916820160405261330b9190810190615a22565b60008151811061331d5761331d6154cc565b60209081029190910101516040516304ec635160e01b81526004810188905263ffffffff87811660248301529091166044820181905291506000906001600160a01b038916906304ec635190606401602060405180830381865afa158015613389573d6000803e3d6000fd5b505050506040513d601f19601f820116820180604052508101906133ad9190615ad0565b6001600160c01b0316905060006133c382613f97565b9050816133d18a838a611016565b9550955050505050935093915050565b6133e9613eeb565b6001600160a01b03811661344e5760405162461bcd60e51b815260206004820152602660248201527f4f776e61626c653a206e6577206f776e657220697320746865207a65726f206160448201526564647265737360d01b60648201526084016107bd565b6102ef81613f45565b600054610100900460ff16158080156134775750600054600160ff909116105b806134915750303b158015613491575060005460ff166001145b6134f45760405162461bcd60e51b815260206004820152602e60248201527f496e697469616c697a61626c653a20636f6e747261637420697320616c72656160448201526d191e481a5b9a5d1a585b1a5e995960921b60648201526084016107bd565b6000805460ff191660011790558015613517576000805461ff0019166101001790555b613522856000614063565b61352b84613f45565b60cf8054640100000000600160c01b031916600160201b6001600160a01b03868116919091029190911790915560d080546001600160a01b03191691841691909117905580156135b5576000805461ff0019169055604051600181527f7f26b83ff96e1f2b6a682f133852f6798a09c465da95921460cefb38474024989060200160405180910390a15b5050505050565b606560009054906101000a90046001600160a01b03166001600160a01b031663eab66d7a6040518163ffffffff1660e01b8152600401602060405180830381865afa15801561360f573d6000803e3d6000fd5b505050506040513d601f19601f820116820180604052508101906136339190615400565b6001600160a01b0316336001600160a01b0316146136635760405162461bcd60e51b81526004016107bd9061541d565b6066541981196066541916146136e15760405162461bcd60e51b815260206004820152603860248201527f5061757361626c652e756e70617573653a20696e76616c696420617474656d7060448201527f7420746f2070617573652066756e6374696f6e616c697479000000000000000060648201526084016107bd565b606681905560405181815233907f3582d1828e26bf56bd801502bc021ac0bc8afb57c826e4986b45593c8fad389c90602001610903565b6001600160a01b0381166137a65760405162461bcd60e51b815260206004820152604960248201527f5061757361626c652e5f73657450617573657252656769737472793a206e657760448201527f50617573657252656769737472792063616e6e6f7420626520746865207a65726064820152686f206164647265737360b81b608482015260a4016107bd565b606554604080516001600160a01b03928316815291831660208301527f6e9fcd539896fca60e8b0f01dd580233e48a6b0f7df013b89ba7f565869acdb6910160405180910390a1606580546001600160a01b0319166001600160a01b0392909216919091179055565b604080518082019091526000808252602082015261382b614488565b835181526020808501519082015260408082018490526000908360608460076107d05a03fa905080801561385e57613860565bfe5b508061389e5760405162461bcd60e51b815260206004820152600d60248201526c1958cb5b5d5b0b59985a5b1959609a1b60448201526064016107bd565b505092915050565b60408051808201909152600080825260208201526138c26144a6565b835181526020808501518183015283516040808401919091529084015160608301526000908360808460066107d05a03fa905080801561385e57508061389e5760405162461bcd60e51b815260206004820152600d60248201526c1958cb5859190b59985a5b1959609a1b60448201526064016107bd565b6139426144c4565b50604080516080810182527f198e9393920d483a7260bfb731fb5d25f1aa493335a9e71297e485b7aef312c28183019081527f1800deef121f1e76426a00665e5c4479674322d4f75edadd46debd5cd992f6ed6060830152815281518083019092527f275dc4a288d1afb3cbb1ac09187524c7db36395df7be3b99e673b13a075a65ec82527f1d9befcd05a5323e6da4d435f3b617cdb3af83285c2df711ef39c01571827f9d60208381019190915281019190915290565b604080518082019091526000808252602082015260008080613a2a600080516020615da5833981519152866154e2565b90505b613a368161414d565b9093509150600080516020615da5833981519152828309831415613a70576040805180820190915290815260208101919091529392505050565b600080516020615da5833981519152600182089050613a2d565b604080518082018252868152602080820186905282518084019093528683528201849052600091829190613abc6144e9565b60005b6002811015613c81576000613ad5826006615911565b9050848260028110613ae957613ae96154cc565b60200201515183613afb836000615cd7565b600c8110613b0b57613b0b6154cc565b6020020152848260028110613b2257613b226154cc565b60200201516020015183826001613b399190615cd7565b600c8110613b4957613b496154cc565b6020020152838260028110613b6057613b606154cc565b6020020151515183613b73836002615cd7565b600c8110613b8357613b836154cc565b6020020152838260028110613b9a57613b9a6154cc565b6020020151516001602002015183613bb3836003615cd7565b600c8110613bc357613bc36154cc565b6020020152838260028110613bda57613bda6154cc565b602002015160200151600060028110613bf557613bf56154cc565b602002015183613c06836004615cd7565b600c8110613c1657613c166154cc565b6020020152838260028110613c2d57613c2d6154cc565b602002015160200151600160028110613c4857613c486154cc565b602002015183613c59836005615cd7565b600c8110613c6957613c696154cc565b60200201525080613c7981615930565b915050613abf565b50613c8a614508565b60006020826101808560088cfa9151919c9115159b50909950505050505050505050565b600080613cba846141cf565b9050808360ff166001901b11613d385760405162461bcd60e51b815260206004820152603f60248201527f4269746d61705574696c732e6f72646572656442797465734172726179546f4260448201527f69746d61703a206269746d61702065786365656473206d61782076616c75650060648201526084016107bd565b90505b92915050565b6000805b8215613d3b57613d56600184615ca7565b9092169180613d6481615d82565b915050613d45565b60408051808201909152600080825260208201526102008261ffff1610613dc85760405162461bcd60e51b815260206004820152601060248201526f7363616c61722d746f6f2d6c6172676560801b60448201526064016107bd565b8161ffff1660011415613ddc575081613d3b565b6040805180820190915260008082526020820181905284906001905b8161ffff168661ffff1610613e4557600161ffff871660ff83161c81161415613e2857613e2584846138a6565b93505b613e3283846138a6565b92506201fffe600192831b169101613df8565b509195945050505050565b60408051808201909152600080825260208201528151158015613e7557506020820151155b15613e93575050604080518082019091526000808252602082015290565b604051806040016040528083600001518152602001600080516020615da58339815191528460200151613ec691906154e2565b613ede90600080516020615da5833981519152615ca7565b905292915050565b919050565b6033546001600160a01b0316331461324d5760405162461bcd60e51b815260206004820181905260248201527f4f776e61626c653a2063616c6c6572206973206e6f7420746865206f776e657260448201526064016107bd565b603380546001600160a01b038381166001600160a01b0319831681179093556040519116919082907f8be0079c531659141344cd1fd0a4f28419497f9722a3daafe3b4186f6b6457e090600090a35050565b6060600080613fa584613d41565b61ffff166001600160401b03811115613fc057613fc0614629565b6040519080825280601f01601f191660200182016040528015613fea576020820181803683370190505b5090506000805b825182108015614002575061010081105b15614059576001811b935085841615614049578060f81b83838151811061402b5761402b6154cc565b60200101906001600160f81b031916908160001a9053508160010191505b61405281615930565b9050613ff1565b5090949350505050565b6065546001600160a01b031615801561408457506001600160a01b03821615155b6141065760405162461bcd60e51b815260206004820152604760248201527f5061757361626c652e5f696e697469616c697a655061757365723a205f696e6960448201527f7469616c697a6550617573657228292063616e206f6e6c792062652063616c6c6064820152666564206f6e636560c81b608482015260a4016107bd565b606681905560405181815233907fab40a374bc51de372200a8bc981af8c9ecdc08dfdaef0bb6e09f88f3c616ef3d9060200160405180910390a261414982613718565b5050565b60008080600080516020615da58339815191526003600080516020615da583398151915286600080516020615da58339815191528889090908905060006141c3827f0c19139cb84c680a6e14116da060561765e05aa45a1c72a34f082305b61f3f52600080516020615da583398151915261435c565b91959194509092505050565b6000610100825111156142585760405162461bcd60e51b8152602060048201526044602482018190527f4269746d61705574696c732e6f72646572656442797465734172726179546f42908201527f69746d61703a206f7264657265644279746573417272617920697320746f6f206064820152636c6f6e6760e01b608482015260a4016107bd565b815161426657506000919050565b6000808360008151811061427c5761427c6154cc565b0160200151600160f89190911c81901b92505b8451811015614353578481815181106142aa576142aa6154cc565b0160200151600160f89190911c1b915082821161433f5760405162461bcd60e51b815260206004820152604760248201527f4269746d61705574696c732e6f72646572656442797465734172726179546f4260448201527f69746d61703a206f72646572656442797465734172726179206973206e6f74206064820152661bdc99195c995960ca1b608482015260a4016107bd565b9181179161434c81615930565b905061428f565b50909392505050565b600080614367614508565b61436f614526565b602080825281810181905260408201819052606082018890526080820187905260a082018690528260c08360056107d05a03fa925082801561385e5750826143f95760405162461bcd60e51b815260206004820152601a60248201527f424e3235342e6578704d6f643a2063616c6c206661696c75726500000000000060448201526064016107bd565b505195945050505050565b828054614410906153cb565b90600052602060002090601f0160209004810192826144325760008555614478565b82601f1061444b5782800160ff19823516178555614478565b82800160010185558215614478579182015b8281111561447857823582559160200191906001019061445d565b50614484929150614544565b5090565b60405180606001604052806003906020820280368337509192915050565b60405180608001604052806004906020820280368337509192915050565b60405180604001604052806144d7614559565b81526020016144e4614559565b905290565b604051806101800160405280600c906020820280368337509192915050565b60405180602001604052806001906020820280368337509192915050565b6040518060c001604052806006906020820280368337509192915050565b5b808211156144845760008155600101614545565b60405180604001604052806002906020820280368337509192915050565b6000815180845260005b8181101561459d57602081850181015186830182015201614581565b818111156145af576000602083870101525b50601f01601f19169290920160200192915050565b6020815260006145d76020830184614577565b9392505050565b6001600160a01b03811681146102ef57600080fd5b60006020828403121561460557600080fd5b8135613d38816145de565b60006020828403121561462257600080fd5b5035919050565b634e487b7160e01b600052604160045260246000fd5b604080519081016001600160401b038111828210171561466157614661614629565b60405290565b60405161010081016001600160401b038111828210171561466157614661614629565b604051606081016001600160401b038111828210171561466157614661614629565b604051601f8201601f191681016001600160401b03811182821017156146d4576146d4614629565b604052919050565b6000604082840312156146ee57600080fd5b6146f661463f565b9050813581526020820135602082015292915050565b600082601f83011261471d57600080fd5b604051604081018181106001600160401b038211171561473f5761473f614629565b806040525080604084018581111561475657600080fd5b845b81811015613e45578035835260209283019201614758565b60006080828403121561478257600080fd5b61478a61463f565b9050614796838361470c565b81526147a5836040840161470c565b602082015292915050565b60008060008061012085870312156147c757600080fd5b843593506147d886602087016146dc565b92506147e78660608701614770565b91506147f68660e087016146dc565b905092959194509250565b600060e0828403121561481357600080fd5b50919050565b60006020828403121561482b57600080fd5b81356001600160401b0381111561484157600080fd5b61484d84828501614801565b949350505050565b63ffffffff811681146102ef57600080fd5b8035613ee681614855565b60006020828403121561488457600080fd5b8135613d3881614855565b6000610100828403121561481357600080fd5b60006001600160401b038211156148bb576148bb614629565b5060051b60200190565b600082601f8301126148d657600080fd5b813560206148eb6148e6836148a2565b6146ac565b82815260059290921b8401810191818101908684111561490a57600080fd5b8286015b8481101561492e57803561492181614855565b835291830191830161490e565b509695505050505050565b600082601f83011261494a57600080fd5b8135602061495a6148e6836148a2565b82815260069290921b8401810191818101908684111561497957600080fd5b8286015b8481101561492e5761498f88826146dc565b83529183019160400161497d565b600082601f8301126149ae57600080fd5b813560206149be6148e6836148a2565b82815260059290921b840181019181810190868411156149dd57600080fd5b8286015b8481101561492e5780356001600160401b03811115614a005760008081fd5b614a0e8986838b01016148c5565b8452509183019183016149e1565b60006101808284031215614a2f57600080fd5b614a37614667565b905081356001600160401b0380821115614a5057600080fd5b614a5c858386016148c5565b83526020840135915080821115614a7257600080fd5b614a7e85838601614939565b60208401526040840135915080821115614a9757600080fd5b614aa385838601614939565b6040840152614ab58560608601614770565b6060840152614ac78560e086016146dc565b6080840152610120840135915080821115614ae157600080fd5b614aed858386016148c5565b60a0840152610140840135915080821115614b0757600080fd5b614b13858386016148c5565b60c0840152610160840135915080821115614b2d57600080fd5b50614b3a8482850161499d565b60e08301525092915050565b60008060008060808587031215614b5c57600080fd5b84356001600160401b0380821115614b7357600080fd5b614b7f8883890161488f565b95506020870135915080821115614b9557600080fd5b614ba188838901614801565b94506040870135915080821115614bb757600080fd5b614bc388838901614a1c565b93506060870135915080821115614bd957600080fd5b9086019060e08289031215614bed57600080fd5b614bf561468a565b823582811115614c0457600080fd5b614c108a828601614939565b825250614c208960208501614770565b6020820152614c328960a085016146dc565b60408201529598949750929550505050565b600080600060608486031215614c5957600080fd5b8335614c64816145de565b92506020848101356001600160401b0380821115614c8157600080fd5b818701915087601f830112614c9557600080fd5b813581811115614ca757614ca7614629565b614cb9601f8201601f191685016146ac565b91508082528884828501011115614ccf57600080fd5b8084840185840137600084828401015250809450505050614cf260408501614867565b90509250925092565b600082825180855260208086019550808260051b8401018186016000805b85811015614d9457868403601f19018a52825180518086529086019086860190845b81811015614d7f57835180516001600160a01b03168452898101518a8501526040908101516001600160601b03169084015292880192606090920191600101614d3b565b50509a86019a94505091840191600101614d19565b509198975050505050505050565b6020815260006145d76020830184614cfb565b80151581146102ef57600080fd5b600060208284031215614dd557600080fd5b8135613d3881614db5565b60008083601f840112614df257600080fd5b5081356001600160401b03811115614e0957600080fd5b602083019150836020828501011115614e2157600080fd5b9250929050565b60008060008060008060808789031215614e4157600080fd5b8635614e4c816145de565b95506020870135614e5c81614855565b945060408701356001600160401b0380821115614e7857600080fd5b614e848a838b01614de0565b90965094506060890135915080821115614e9d57600080fd5b818901915089601f830112614eb157600080fd5b813581811115614ec057600080fd5b8a60208260051b8501011115614ed557600080fd5b6020830194508093505050509295509295509295565b600081518084526020808501945080840160005b83811015614f2157815163ffffffff1687529582019590820190600101614eff565b509495945050505050565b600060208083528351608082850152614f4860a0850182614eeb565b905081850151601f1980868403016040870152614f658383614eeb565b92506040870151915080868403016060870152614f828383614eeb565b60608801518782038301608089015280518083529194508501925084840190600581901b8501860160005b82811015614fd95784878303018452614fc7828751614eeb565b95880195938801939150600101614fad565b509998505050505050505050565b600060208284031215614ff957600080fd5b81356001600160401b0381111561500f57600080fd5b82016101208185031215613d3857600080fd5b60006020828403121561503457600080fd5b81356001600160401b0381111561504a57600080fd5b61484d8482850161488f565b60ff811681146102ef57600080fd5b60006020828403121561507757600080fd5b8135613d3881615056565b60008060006060848603121561509757600080fd5b83356150a2816145de565b92506020848101356001600160401b038111156150be57600080fd5b8501601f810187136150cf57600080fd5b80356150dd6148e6826148a2565b81815260059190911b820183019083810190898311156150fc57600080fd5b928401925b8284101561511a57833582529284019290840190615101565b8096505050505050614cf260408501614867565b6020808252825182820181905260009190848201906040850190845b818110156151665783518352928401929184019160010161514a565b50909695505050505050565b6000806000806060858703121561518857600080fd5b84359350602085013561519a81614855565b925060408501356001600160401b038111156151b557600080fd5b6151c187828801614de0565b95989497509550505050565b6000806000806000608086880312156151e557600080fd5b8535945060208601356001600160401b038082111561520357600080fd5b61520f89838a01614de0565b90965094506040880135915061522482614855565b9092506060870135908082111561523a57600080fd5b5061524788828901614a1c565b9150509295509295909350565b600081518084526020808501945080840160005b83811015614f215781516001600160601b031687529582019590820190600101615268565b60408152600083516040808401526152a86080840182615254565b90506020850151603f198483030160608501526152c58282615254565b925050508260208301529392505050565b634e487b7160e01b600052602160045260246000fd5b602081016004831061530e57634e487b7160e01b600052602160045260246000fd5b91905290565b60008060006060848603121561532957600080fd5b8335615334816145de565b925060208401359150604084013561534b81614855565b809150509250925092565b82815260406020820152600061484d6040830184614cfb565b6000806000806080858703121561538557600080fd5b8435615390816145de565b935060208501356153a0816145de565b925060408501356153b0816145de565b915060608501356153c0816145de565b939692955090935050565b600181811c908216806153df57607f821691505b6020821081141561481357634e487b7160e01b600052602260045260246000fd5b60006020828403121561541257600080fd5b8151613d38816145de565b6020808252602a908201527f6d73672e73656e646572206973206e6f74207065726d697373696f6e6564206160408201526939903ab73830bab9b2b960b11b606082015260800190565b60006020828403121561547957600080fd5b8151613d3881614db5565b60208082526028908201527f6d73672e73656e646572206973206e6f74207065726d697373696f6e6564206160408201526739903830bab9b2b960c11b606082015260800190565b634e487b7160e01b600052603260045260246000fd5b6000826154ff57634e487b7160e01b600052601260045260246000fd5b500690565b6000808335601e1984360301811261551b57600080fd5b8301803591506001600160401b0382111561553557600080fd5b602001915036819003821315614e2157600080fd5b6000808335601e1984360301811261556157600080fd5b83016020810192503590506001600160401b0381111561558057600080fd5b803603831315614e2157600080fd5b81835281816020850137506000828201602090810191909152601f909101601f19169091010190565b60208152600082356155c981614855565b63ffffffff8116602084015250602083013560408301526155ec60408401614867565b63ffffffff811660608401525061560560608401614867565b63ffffffff811660808401525061561f608084018461554a565b6101008060a08601526156376101208601838561558f565b925061564560a08701614867565b63ffffffff811660c0870152915061566060c087018761554a565b868503601f190160e0880152925061567984848361558f565b93505061568860e08701614867565b63ffffffff8116868301529150614059565b6020808252602c908201527f41676772656761746f722068617320616c726561647920726573706f6e64656460408201526b20746f20746865207461736b60a01b606082015260800190565b634e487b7160e01b600052601160045260246000fd5b600063ffffffff80831681851680830382111561571b5761571b6156e6565b01949350505050565b6000808335601e1984360301811261573b57600080fd5b83016020810192503590506001600160401b0381111561575a57600080fd5b8060051b3603831315614e2157600080fd5b81835260006001600160fb1b0383111561578557600080fd5b8260051b8083602087013760009401602001938452509192915050565b600060e0830182356157b381614855565b63ffffffff168452602083810135818601526157d26040850185615724565b60e0604088015292839052610100600584901b87018101939087018260005b8381101561582b5789870360ff1901835261580c8286615724565b61581789828461576c565b9850505091850191908501906001016157f1565b505050505050606083013560608501526080830135608085015260a083013560a085015260c083013560c08501528091505092915050565b6020815260006145d760208301846157a2565b60408152600061588960408301856157a2565b828103602084015263ffffffff8451168152602084015160208201526040840151608060408301526158be6080830182615254565b9050606085015182820360608401526158d78282615254565b979650505050505050565b60006001600160601b0380831681851681830481118215151615615908576159086156e6565b02949350505050565b600081600019048311821515161561592b5761592b6156e6565b500290565b6000600019821415615944576159446156e6565b5060010190565b6000602080838503121561595e57600080fd5b82516001600160401b0381111561597457600080fd5b8301601f8101851361598557600080fd5b80516159936148e6826148a2565b81815260059190911b820183019083810190878311156159b257600080fd5b928401925b828410156158d7578351825292840192908401906159b7565b6000602082840312156159e257600080fd5b81516001600160601b0381168114613d3857600080fd5b63ffffffff84168152604060208201526000615a1960408301848661576c565b95945050505050565b60006020808385031215615a3557600080fd5b82516001600160401b03811115615a4b57600080fd5b8301601f81018513615a5c57600080fd5b8051615a6a6148e6826148a2565b81815260059190911b82018301908381019087831115615a8957600080fd5b928401925b828410156158d7578351615aa181614855565b82529284019290840190615a8e565b63ffffffff84168152604060208201526000615a1960408301848661558f565b600060208284031215615ae257600080fd5b81516001600160c01b0381168114613d3857600080fd5b600060208284031215615b0b57600080fd5b8151613d3881614855565b600060ff821660ff811415615b2d57615b2d6156e6565b60010192915050565b604081526000615b4a60408301858761558f565b905063ffffffff83166020830152949350505050565b60006040820163ffffffff851683526020604081850152818551808452606086019150828701935060005b81811015615ba757845183529383019391830191600101615b8b565b5090979650505050505050565b600063ffffffff83811690831681811015615bd157615bd16156e6565b039392505050565b6020815263ffffffff82511660208201526020820151604082015260006040830151615c0d606084018263ffffffff169052565b50606083015163ffffffff811660808401525060808301516101008060a0850152615c3c610120850183614577565b915060a0850151615c5560c086018263ffffffff169052565b5060c0850151848303601f190160e0860152615c718382614577565b92505060e08501516140598286018263ffffffff169052565b600060208284031215615c9c57600080fd5b8151613d3881615056565b600082821015615cb957615cb96156e6565b500390565b600060208284031215615cd057600080fd5b5051919050565b60008219821115615cea57615cea6156e6565b500190565b600060208284031215615d0157600080fd5b815167ffffffffffffffff1981168114613d3857600080fd5b60006001600160601b0383811690831681811015615bd157615bd16156e6565b63ffffffff60e01b8360e01b1681526000600482018351602080860160005b83811015615d7557815185529382019390820190600101615d59565b5092979650505050505050565b600061ffff80831681811415615d9a57615d9a6156e6565b600101939250505056fe30644e72e131a029b85045b68181585d97816a916871ca8d3c208c16d87cfd47424c535369676e6174757265436865636b65722e636865636b5369676e617475a26469706673582212205da09cdca844a6ca90fa7edfba1f1495235fc38cd1a8bf41cf8d7752e171d2c964736f6c634300080c0033","linkReferences":{}},"methodIdentifiers":{"aggregator()":"245a7bfc","allTaskHashes(uint32)":"2d89f6fc","allTaskResponses(uint32)":"2cb223d5","blsApkRegistry()":"5df45946","checkSignatures(bytes32,bytes,uint32,(uint32[],(uint256,uint256)[],(uint256,uint256)[],(uint256[2],uint256[2]),(uint256,uint256),uint32[],uint32[],uint32[][]))":"6efb4636","createNewTask(uint256,uint32,bytes)":"6b92787e","delegation()":"df5cf723","dummyForOperatorStateInfoType((bool,uint8[],(uint8,uint96,(uint256,uint256))[],(uint8,uint96)[],(uint8,(uint256,uint256))[],bytes32[],(bytes32,uint8[],uint96[],uint8)[],(bytes32,uint8[],uint96[])[],(bytes32,uint8)[]))":"54d127de","dummyForTaskResponse((uint32,bytes32,bytes32[][],bytes32,bytes32,bytes32,bytes32))":"1840da42","dummyForTaskResponseTest((uint32,bytes32,bytes32[],(uint32,uint256,uint32,uint32,bytes,uint32,bytes,uint32),bytes32,bytes32,bytes32,bytes32))":"55a50444","generator()":"7afa1eed","getCheckSignaturesIndices(address,uint32,bytes,bytes32[])":"4f739f74","getLatestPendingStateHash()":"0373408d","getOperatorState(address,bytes,uint32)":"3563b0d1","getOperatorState(address,bytes32,uint32)":"cefdc1d4","getQuorumBitmapsAtBlockNumber(address,bytes32[],uint32)":"5c155662","getTaskResponseWindowBlock()":"f5c9899d","indexToTaskStatus(uint32)":"99dba0c4","initialize(address,address,address,address)":"f8c8765e","lastCompletedTaskCreatedBlock()":"1ce7b2e5","lastCompletedTaskNum()":"66e4a1ca","lastCompletedTaskQuorumNumbers()":"0e8e77c4","lastCompletedTaskQuorumThresholdPercentage()":"44d6ef39","latestPendingStateHash()":"4ae6b203","latestTaskNum()":"8b00ce7c","owner()":"8da5cb5b","pause(uint256)":"136439dd","pauseAll()":"595c6a67","paused()":"5c975abb","paused(uint8)":"5ac86ab7","pauserRegistry()":"886f1195","registryCoordinator()":"6d14a987","renounceOwnership()":"715018a6","respondToTask((uint32,uint256,uint32,uint32,bytes,uint32,bytes,uint32),(uint32,bytes32,bytes32[][],bytes32,bytes32,bytes32,bytes32),(uint32[],(uint256,uint256)[],(uint256,uint256)[],(uint256[2],uint256[2]),(uint256,uint256),uint32[],uint32[],uint32[][]),((uint256,uint256)[],(uint256[2],uint256[2]),(uint256,uint256)))":"32ca286e","setPauserRegistry(address)":"10d67a2f","setStaleStakesForbidden(bool)":"416c7e5e","stakeRegistry()":"68304835","staleStakesForbidden()":"b98d0908","taskNumber()":"72d18e8d","transferOwnership(address)":"f2fde38b","trySignatureAndApkVerification(bytes32,(uint256,uint256),(uint256[2],uint256[2]),(uint256,uint256))":"171f1d5b","unpause(uint256)":"fabc1cbc"},"id":125}