{"abi":[{"type":"constructor","inputs":[{"name":"_registryCoordinator","type":"address","internalType":"contract IRegistryCoordinator"},{"name":"_taskResponseWindowBlock","type":"uint32","internalType":"uint32"}],"stateMutability":"nonpayable"},{"type":"function","name":"aggregator","inputs":[],"outputs":[{"name":"","type":"address","internalType":"address"}],"stateMutability":"view"},{"type":"function","name":"allTaskHashes","inputs":[{"name":"","type":"uint32","internalType":"uint32"}],"outputs":[{"name":"","type":"bytes32","internalType":"bytes32"}],"stateMutability":"view"},{"type":"function","name":"allTaskResponses","inputs":[{"name":"","type":"uint32","internalType":"uint32"}],"outputs":[{"name":"","type":"bytes32","internalType":"bytes32"}],"stateMutability":"view"},{"type":"function","name":"blsApkRegistry","inputs":[],"outputs":[{"name":"","type":"address","internalType":"contract IBLSApkRegistry"}],"stateMutability":"view"},{"type":"function","name":"checkSignatures","inputs":[{"name":"msgHash","type":"bytes32","internalType":"bytes32"},{"name":"quorumNumbers","type":"bytes","internalType":"bytes"},{"name":"referenceBlockNumber","type":"uint32","internalType":"uint32"},{"name":"params","type":"tuple","internalType":"struct IBLSSignatureChecker.NonSignerStakesAndSignature","components":[{"name":"nonSignerQuorumBitmapIndices","type":"uint32[]","internalType":"uint32[]"},{"name":"nonSignerPubkeys","type":"tuple[]","internalType":"struct BN254.G1Point[]","components":[{"name":"X","type":"uint256","internalType":"uint256"},{"name":"Y","type":"uint256","internalType":"uint256"}]},{"name":"quorumApks","type":"tuple[]","internalType":"struct BN254.G1Point[]","components":[{"name":"X","type":"uint256","internalType":"uint256"},{"name":"Y","type":"uint256","internalType":"uint256"}]},{"name":"apkG2","type":"tuple","internalType":"struct BN254.G2Point","components":[{"name":"X","type":"uint256[2]","internalType":"uint256[2]"},{"name":"Y","type":"uint256[2]","internalType":"uint256[2]"}]},{"name":"sigma","type":"tuple","internalType":"struct BN254.G1Point","components":[{"name":"X","type":"uint256","internalType":"uint256"},{"name":"Y","type":"uint256","internalType":"uint256"}]},{"name":"quorumApkIndices","type":"uint32[]","internalType":"uint32[]"},{"name":"totalStakeIndices","type":"uint32[]","internalType":"uint32[]"},{"name":"nonSignerStakeIndices","type":"uint32[][]","internalType":"uint32[][]"}]}],"outputs":[{"name":"","type":"tuple","internalType":"struct IBLSSignatureChecker.QuorumStakeTotals","components":[{"name":"signedStakeForQuorum","type":"uint96[]","internalType":"uint96[]"},{"name":"totalStakeForQuorum","type":"uint96[]","internalType":"uint96[]"}]},{"name":"","type":"bytes32","internalType":"bytes32"}],"stateMutability":"view"},{"type":"function","name":"createNewTask","inputs":[{"name":"blockNumber","type":"uint256","internalType":"uint256"},{"name":"quorumThresholdPercentage","type":"uint32","internalType":"uint32"},{"name":"quorumNumbers","type":"bytes","internalType":"bytes"}],"outputs":[],"stateMutability":"nonpayable"},{"type":"function","name":"delegation","inputs":[],"outputs":[{"name":"","type":"address","internalType":"contract IDelegationManager"}],"stateMutability":"view"},{"type":"function","name":"dummyForTaskResponseType","inputs":[{"name":"taskResponse","type":"tuple","internalType":"struct IFinalizerTaskManager.TaskResponse","components":[{"name":"referenceTaskIndex","type":"uint32","internalType":"uint32"},{"name":"test","type":"bytes","internalType":"bytes"},{"name":"quorumApkUpdateG1X","type":"uint256","internalType":"uint256"},{"name":"quorumApkUpdateG1Y","type":"uint256","internalType":"uint256"},{"name":"blockHash","type":"bytes32","internalType":"bytes32"},{"name":"storageProofHash","type":"bytes32","internalType":"bytes32"},{"name":"pendingStateHash","type":"bytes32","internalType":"bytes32"}]}],"outputs":[],"stateMutability":"view"},{"type":"function","name":"generator","inputs":[],"outputs":[{"name":"","type":"address","internalType":"address"}],"stateMutability":"view"},{"type":"function","name":"getCheckSignaturesIndices","inputs":[{"name":"registryCoordinator","type":"address","internalType":"contract IRegistryCoordinator"},{"name":"referenceBlockNumber","type":"uint32","internalType":"uint32"},{"name":"quorumNumbers","type":"bytes","internalType":"bytes"},{"name":"nonSignerOperatorIds","type":"bytes32[]","internalType":"bytes32[]"}],"outputs":[{"name":"","type":"tuple","internalType":"struct OperatorStateRetriever.CheckSignaturesIndices","components":[{"name":"nonSignerQuorumBitmapIndices","type":"uint32[]","internalType":"uint32[]"},{"name":"quorumApkIndices","type":"uint32[]","internalType":"uint32[]"},{"name":"totalStakeIndices","type":"uint32[]","internalType":"uint32[]"},{"name":"nonSignerStakeIndices","type":"uint32[][]","internalType":"uint32[][]"}]}],"stateMutability":"view"},{"type":"function","name":"getLatestPendingStateHash","inputs":[],"outputs":[{"name":"","type":"bytes32","internalType":"bytes32"}],"stateMutability":"view"},{"type":"function","name":"getOperatorState","inputs":[{"name":"registryCoordinator","type":"address","internalType":"contract IRegistryCoordinator"},{"name":"quorumNumbers","type":"bytes","internalType":"bytes"},{"name":"blockNumber","type":"uint32","internalType":"uint32"}],"outputs":[{"name":"","type":"tuple[][]","internalType":"struct OperatorStateRetriever.Operator[][]","components":[{"name":"operator","type":"address","internalType":"address"},{"name":"operatorId","type":"bytes32","internalType":"bytes32"},{"name":"stake","type":"uint96","internalType":"uint96"}]}],"stateMutability":"view"},{"type":"function","name":"getOperatorState","inputs":[{"name":"registryCoordinator","type":"address","internalType":"contract IRegistryCoordinator"},{"name":"operatorId","type":"bytes32","internalType":"bytes32"},{"name":"blockNumber","type":"uint32","internalType":"uint32"}],"outputs":[{"name":"","type":"uint256","internalType":"uint256"},{"name":"","type":"tuple[][]","internalType":"struct OperatorStateRetriever.Operator[][]","components":[{"name":"operator","type":"address","internalType":"address"},{"name":"operatorId","type":"bytes32","internalType":"bytes32"},{"name":"stake","type":"uint96","internalType":"uint96"}]}],"stateMutability":"view"},{"type":"function","name":"getQuorumBitmapsAtBlockNumber","inputs":[{"name":"registryCoordinator","type":"address","internalType":"contract IRegistryCoordinator"},{"name":"operatorIds","type":"bytes32[]","internalType":"bytes32[]"},{"name":"blockNumber","type":"uint32","internalType":"uint32"}],"outputs":[{"name":"","type":"uint256[]","internalType":"uint256[]"}],"stateMutability":"view"},{"type":"function","name":"getTaskResponseWindowBlock","inputs":[],"outputs":[{"name":"","type":"uint32","internalType":"uint32"}],"stateMutability":"view"},{"type":"function","name":"initialize","inputs":[{"name":"_pauserRegistry","type":"address","internalType":"contract IPauserRegistry"},{"name":"initialOwner","type":"address","internalType":"address"},{"name":"_aggregator","type":"address","internalType":"address"},{"name":"_generator","type":"address","internalType":"address"}],"outputs":[],"stateMutability":"nonpayable"},{"type":"function","name":"latestTaskNum","inputs":[],"outputs":[{"name":"","type":"uint32","internalType":"uint32"}],"stateMutability":"view"},{"type":"function","name":"owner","inputs":[],"outputs":[{"name":"","type":"address","internalType":"address"}],"stateMutability":"view"},{"type":"function","name":"pause","inputs":[{"name":"newPausedStatus","type":"uint256","internalType":"uint256"}],"outputs":[],"stateMutability":"nonpayable"},{"type":"function","name":"pauseAll","inputs":[],"outputs":[],"stateMutability":"nonpayable"},{"type":"function","name":"paused","inputs":[{"name":"index","type":"uint8","internalType":"uint8"}],"outputs":[{"name":"","type":"bool","internalType":"bool"}],"stateMutability":"view"},{"type":"function","name":"paused","inputs":[],"outputs":[{"name":"","type":"uint256","internalType":"uint256"}],"stateMutability":"view"},{"type":"function","name":"pauserRegistry","inputs":[],"outputs":[{"name":"","type":"address","internalType":"contract IPauserRegistry"}],"stateMutability":"view"},{"type":"function","name":"registryCoordinator","inputs":[],"outputs":[{"name":"","type":"address","internalType":"contract IRegistryCoordinator"}],"stateMutability":"view"},{"type":"function","name":"renounceOwnership","inputs":[],"outputs":[],"stateMutability":"nonpayable"},{"type":"function","name":"respondToTask","inputs":[{"name":"task","type":"tuple","internalType":"struct IFinalizerTaskManager.Task","components":[{"name":"blockNumber","type":"uint256","internalType":"uint256"},{"name":"taskCreatedBlock","type":"uint32","internalType":"uint32"},{"name":"quorumNumbers","type":"bytes","internalType":"bytes"},{"name":"quorumThresholdPercentage","type":"uint32","internalType":"uint32"}]},{"name":"taskResponse","type":"tuple","internalType":"struct IFinalizerTaskManager.TaskResponse","components":[{"name":"referenceTaskIndex","type":"uint32","internalType":"uint32"},{"name":"test","type":"bytes","internalType":"bytes"},{"name":"quorumApkUpdateG1X","type":"uint256","internalType":"uint256"},{"name":"quorumApkUpdateG1Y","type":"uint256","internalType":"uint256"},{"name":"blockHash","type":"bytes32","internalType":"bytes32"},{"name":"storageProofHash","type":"bytes32","internalType":"bytes32"},{"name":"pendingStateHash","type":"bytes32","internalType":"bytes32"}]},{"name":"nonSignerStakesAndSignature","type":"tuple","internalType":"struct IBLSSignatureChecker.NonSignerStakesAndSignature","components":[{"name":"nonSignerQuorumBitmapIndices","type":"uint32[]","internalType":"uint32[]"},{"name":"nonSignerPubkeys","type":"tuple[]","internalType":"struct BN254.G1Point[]","components":[{"name":"X","type":"uint256","internalType":"uint256"},{"name":"Y","type":"uint256","internalType":"uint256"}]},{"name":"quorumApks","type":"tuple[]","internalType":"struct BN254.G1Point[]","components":[{"name":"X","type":"uint256","internalType":"uint256"},{"name":"Y","type":"uint256","internalType":"uint256"}]},{"name":"apkG2","type":"tuple","internalType":"struct BN254.G2Point","components":[{"name":"X","type":"uint256[2]","internalType":"uint256[2]"},{"name":"Y","type":"uint256[2]","internalType":"uint256[2]"}]},{"name":"sigma","type":"tuple","internalType":"struct BN254.G1Point","components":[{"name":"X","type":"uint256","internalType":"uint256"},{"name":"Y","type":"uint256","internalType":"uint256"}]},{"name":"quorumApkIndices","type":"uint32[]","internalType":"uint32[]"},{"name":"totalStakeIndices","type":"uint32[]","internalType":"uint32[]"},{"name":"nonSignerStakeIndices","type":"uint32[][]","internalType":"uint32[][]"}]}],"outputs":[],"stateMutability":"nonpayable"},{"type":"function","name":"setPauserRegistry","inputs":[{"name":"newPauserRegistry","type":"address","internalType":"contract IPauserRegistry"}],"outputs":[],"stateMutability":"nonpayable"},{"type":"function","name":"setStaleStakesForbidden","inputs":[{"name":"value","type":"bool","internalType":"bool"}],"outputs":[],"stateMutability":"nonpayable"},{"type":"function","name":"stakeRegistry","inputs":[],"outputs":[{"name":"","type":"address","internalType":"contract IStakeRegistry"}],"stateMutability":"view"},{"type":"function","name":"staleStakesForbidden","inputs":[],"outputs":[{"name":"","type":"bool","internalType":"bool"}],"stateMutability":"view"},{"type":"function","name":"taskNumber","inputs":[],"outputs":[{"name":"","type":"uint32","internalType":"uint32"}],"stateMutability":"view"},{"type":"function","name":"transferOwnership","inputs":[{"name":"newOwner","type":"address","internalType":"address"}],"outputs":[],"stateMutability":"nonpayable"},{"type":"function","name":"trySignatureAndApkVerification","inputs":[{"name":"msgHash","type":"bytes32","internalType":"bytes32"},{"name":"apk","type":"tuple","internalType":"struct BN254.G1Point","components":[{"name":"X","type":"uint256","internalType":"uint256"},{"name":"Y","type":"uint256","internalType":"uint256"}]},{"name":"apkG2","type":"tuple","internalType":"struct BN254.G2Point","components":[{"name":"X","type":"uint256[2]","internalType":"uint256[2]"},{"name":"Y","type":"uint256[2]","internalType":"uint256[2]"}]},{"name":"sigma","type":"tuple","internalType":"struct BN254.G1Point","components":[{"name":"X","type":"uint256","internalType":"uint256"},{"name":"Y","type":"uint256","internalType":"uint256"}]}],"outputs":[{"name":"pairingSuccessful","type":"bool","internalType":"bool"},{"name":"siganatureIsValid","type":"bool","internalType":"bool"}],"stateMutability":"view"},{"type":"function","name":"unpause","inputs":[{"name":"newPausedStatus","type":"uint256","internalType":"uint256"}],"outputs":[],"stateMutability":"nonpayable"},{"type":"event","name":"Initialized","inputs":[{"name":"version","type":"uint8","indexed":false,"internalType":"uint8"}],"anonymous":false},{"type":"event","name":"NewTaskCreated","inputs":[{"name":"taskIndex","type":"uint32","indexed":true,"internalType":"uint32"},{"name":"task","type":"tuple","indexed":false,"internalType":"struct IFinalizerTaskManager.Task","components":[{"name":"blockNumber","type":"uint256","internalType":"uint256"},{"name":"taskCreatedBlock","type":"uint32","internalType":"uint32"},{"name":"quorumNumbers","type":"bytes","internalType":"bytes"},{"name":"quorumThresholdPercentage","type":"uint32","internalType":"uint32"}]}],"anonymous":false},{"type":"event","name":"OwnershipTransferred","inputs":[{"name":"previousOwner","type":"address","indexed":true,"internalType":"address"},{"name":"newOwner","type":"address","indexed":true,"internalType":"address"}],"anonymous":false},{"type":"event","name":"Paused","inputs":[{"name":"account","type":"address","indexed":true,"internalType":"address"},{"name":"newPausedStatus","type":"uint256","indexed":false,"internalType":"uint256"}],"anonymous":false},{"type":"event","name":"PauserRegistrySet","inputs":[{"name":"pauserRegistry","type":"address","indexed":false,"internalType":"contract IPauserRegistry"},{"name":"newPauserRegistry","type":"address","indexed":false,"internalType":"contract IPauserRegistry"}],"anonymous":false},{"type":"event","name":"StaleStakesForbiddenUpdate","inputs":[{"name":"value","type":"bool","indexed":false,"internalType":"bool"}],"anonymous":false},{"type":"event","name":"TaskCompleted","inputs":[{"name":"taskIndex","type":"uint32","indexed":true,"internalType":"uint32"},{"name":"blockHash","type":"bytes32","indexed":true,"internalType":"bytes32"}],"anonymous":false},{"type":"event","name":"TaskResponded","inputs":[{"name":"taskResponse","type":"tuple","indexed":false,"internalType":"struct IFinalizerTaskManager.TaskResponse","components":[{"name":"referenceTaskIndex","type":"uint32","internalType":"uint32"},{"name":"test","type":"bytes","internalType":"bytes"},{"name":"quorumApkUpdateG1X","type":"uint256","internalType":"uint256"},{"name":"quorumApkUpdateG1Y","type":"uint256","internalType":"uint256"},{"name":"blockHash","type":"bytes32","internalType":"bytes32"},{"name":"storageProofHash","type":"bytes32","internalType":"bytes32"},{"name":"pendingStateHash","type":"bytes32","internalType":"bytes32"}]},{"name":"taskResponseMetadata","type":"tuple","indexed":false,"internalType":"struct IFinalizerTaskManager.TaskResponseMetadata","components":[{"name":"taskResponsedBlock","type":"uint32","internalType":"uint32"},{"name":"hashOfNonSigners","type":"bytes32","internalType":"bytes32"},{"name":"quroumStakeTotals","type":"uint96[]","internalType":"uint96[]"},{"name":"quroumStakeSigned","type":"uint96[]","internalType":"uint96[]"}]}],"anonymous":false},{"type":"event","name":"Unpaused","inputs":[{"name":"account","type":"address","indexed":true,"internalType":"address"},{"name":"newPausedStatus","type":"uint256","indexed":false,"internalType":"uint256"}],"anonymous":false}],"bytecode":{"object":"0x6101206040523480156200001257600080fd5b506040516200588a3803806200588a8339810160408190526200003591620001f7565b81806001600160a01b03166080816001600160a01b031681525050806001600160a01b031663683048356040518163ffffffff1660e01b8152600401602060405180830381865afa1580156200008f573d6000803e3d6000fd5b505050506040513d601f19601f82011682018060405250810190620000b591906200023e565b6001600160a01b031660a0816001600160a01b031681525050806001600160a01b0316635df459466040518163ffffffff1660e01b8152600401602060405180830381865afa1580156200010d573d6000803e3d6000fd5b505050506040513d601f19601f820116820180604052508101906200013391906200023e565b6001600160a01b031660c0816001600160a01b03168152505060a0516001600160a01b031663df5cf7236040518163ffffffff1660e01b8152600401602060405180830381865afa1580156200018d573d6000803e3d6000fd5b505050506040513d601f19601f82011682018060405250810190620001b391906200023e565b6001600160a01b031660e052506097805460ff1916600117905563ffffffff16610100525062000265565b6001600160a01b0381168114620001f457600080fd5b50565b600080604083850312156200020b57600080fd5b82516200021881620001de565b602084015190925063ffffffff811681146200023357600080fd5b809150509250929050565b6000602082840312156200025157600080fd5b81516200025e81620001de565b9392505050565b60805160a05160c05160e051610100516155a1620002e96000396000818161053a015261182801526000818161050301526125ca0152600081816103be01526127ad0152600081816103e5015281816129830152612b4501526000818161041f01528181610d9e015281816122950152818161242d015261266701526155a16000f3fe608060405234801561001057600080fd5b50600436106102065760003560e01c8063683048351161011a5780638b00ce7c116100ad578063df5cf7231161007c578063df5cf723146104fe578063f2fde38b14610525578063f5c9899d14610538578063f8c8765e1461055e578063fabc1cbc1461057157600080fd5b80638b00ce7c146104af5780638da5cb5b146104bf578063b98d0908146104d0578063cefdc1d4146104dd57600080fd5b8063715018a6116100e9578063715018a61461046257806372d18e8d1461046a5780637afa1eed14610489578063886f11951461049c57600080fd5b806368304835146103e05780636b92787e146104075780636d14a9871461041a5780636efb46361461044157600080fd5b80633563b0d11161019d578063595c6a671161016c578063595c6a67146103565780635ac86ab71461035e5780635c155662146103915780635c975abb146103b15780635df45946146103b957600080fd5b80633563b0d1146102f0578063416c7e5e146103105780634f739f741461032357806356c5db631461034357600080fd5b8063171f1d5b116101d9578063171f1d5b1461025b578063245a7bfc146102855780632cb223d5146102b05780632d89f6fc146102d057600080fd5b80630373408d1461020b57806310d67a2f14610222578063136439dd146102375780631366aad71461024a575b600080fd5b60ce545b6040519081526020015b60405180910390f35b61023561023036600461409e565b610584565b005b6102356102453660046140bb565b61063d565b6102356102583660046140ec565b50565b61026e61026936600461428d565b61077c565b604080519215158352901515602083015201610219565b60cc54610298906001600160a01b031681565b6040516001600160a01b039091168152602001610219565b61020f6102be3660046142fb565b60cb6020526000908152604090205481565b61020f6102de3660046142fb565b60ca6020526000908152604090205481565b6103036102fe366004614318565b610906565b6040516102199190614473565b61023561031e36600461449b565b610d9c565b610336610331366004614500565b610f11565b6040516102199190614604565b610235610351366004614963565b611637565b610235611ab2565b61038161036c366004614a01565b606654600160ff9092169190911b9081161490565b6040519015158152602001610219565b6103a461039f366004614a1e565b611b79565b6040516102199190614aca565b60665461020f565b6102987f000000000000000000000000000000000000000000000000000000000000000081565b6102987f000000000000000000000000000000000000000000000000000000000000000081565b610235610415366004614b0e565b611d41565b6102987f000000000000000000000000000000000000000000000000000000000000000081565b61045461044f366004614b69565b611ee2565b604051610219929190614c29565b610235612dfa565b60c95463ffffffff165b60405163ffffffff9091168152602001610219565b60cd54610298906001600160a01b031681565b606554610298906001600160a01b031681565b60c9546104749063ffffffff1681565b6033546001600160a01b0316610298565b6097546103819060ff1681565b6104f06104eb366004614c72565b612e0e565b604051610219929190614cb4565b6102987f000000000000000000000000000000000000000000000000000000000000000081565b61023561053336600461409e565b612fa0565b7f0000000000000000000000000000000000000000000000000000000000000000610474565b61023561056c366004614ccd565b613016565b61023561057f3660046140bb565b613167565b606560009054906101000a90046001600160a01b03166001600160a01b031663eab66d7a6040518163ffffffff1660e01b8152600401602060405180830381865afa1580156105d7573d6000803e3d6000fd5b505050506040513d601f19601f820116820180604052508101906105fb9190614d29565b6001600160a01b0316336001600160a01b0316146106345760405162461bcd60e51b815260040161062b90614d46565b60405180910390fd5b610258816132c3565b60655460405163237dfb4760e11b81523360048201526001600160a01b03909116906346fbf68e90602401602060405180830381865afa158015610685573d6000803e3d6000fd5b505050506040513d601f19601f820116820180604052508101906106a99190614d90565b6106c55760405162461bcd60e51b815260040161062b90614dad565b6066548181161461073e5760405162461bcd60e51b815260206004820152603860248201527f5061757361626c652e70617573653a20696e76616c696420617474656d70742060448201527f746f20756e70617573652066756e6374696f6e616c6974790000000000000000606482015260840161062b565b606681905560405181815233907fab40a374bc51de372200a8bc981af8c9ecdc08dfdaef0bb6e09f88f3c616ef3d906020015b60405180910390a250565b60008060007f30644e72e131a029b85045b68181585d2833e84879b9709143e1f593f0000001878760000151886020015188600001516000600281106107c4576107c4614df5565b60200201518951600160200201518a602001516000600281106107e9576107e9614df5565b60200201518b6020015160016002811061080557610805614df5565b602090810291909101518c518d8301516040516108629a99989796959401988952602089019790975260408801959095526060870193909352608086019190915260a085015260c084015260e08301526101008201526101200190565b6040516020818303038152906040528051906020012060001c6108859190614e0b565b90506108f861089e61089788846133ba565b8690613451565b6108a66134e5565b6108ee6108df856108d9604080518082018252600080825260209182015281518083019092526001825260029082015290565b906133ba565b6108e88c6135a5565b90613451565b886201d4c0613635565b909890975095505050505050565b60606000846001600160a01b031663683048356040518163ffffffff1660e01b8152600401602060405180830381865afa158015610948573d6000803e3d6000fd5b505050506040513d601f19601f8201168201806040525081019061096c9190614d29565b90506000856001600160a01b0316639e9923c26040518163ffffffff1660e01b8152600401602060405180830381865afa1580156109ae573d6000803e3d6000fd5b505050506040513d601f19601f820116820180604052508101906109d29190614d29565b90506000866001600160a01b0316635df459466040518163ffffffff1660e01b8152600401602060405180830381865afa158015610a14573d6000803e3d6000fd5b505050506040513d601f19601f82011682018060405250810190610a389190614d29565b9050600086516001600160401b03811115610a5557610a55614128565b604051908082528060200260200182016040528015610a8857816020015b6060815260200190600190039081610a735790505b50905060005b8751811015610d90576000888281518110610aab57610aab614df5565b0160200151604051638902624560e01b815260f89190911c6004820181905263ffffffff8a16602483015291506000906001600160a01b03871690638902624590604401600060405180830381865afa158015610b0c573d6000803e3d6000fd5b505050506040513d6000823e601f3d908101601f19168201604052610b349190810190614e2d565b905080516001600160401b03811115610b4f57610b4f614128565b604051908082528060200260200182016040528015610b9a57816020015b6040805160608101825260008082526020808301829052928201528252600019909201910181610b6d5790505b50848481518110610bad57610bad614df5565b602002602001018190525060005b8151811015610d7a576040518060600160405280876001600160a01b03166347b314e8858581518110610bf057610bf0614df5565b60200260200101516040518263ffffffff1660e01b8152600401610c1691815260200190565b602060405180830381865afa158015610c33573d6000803e3d6000fd5b505050506040513d601f19601f82011682018060405250810190610c579190614d29565b6001600160a01b03168152602001838381518110610c7757610c77614df5565b60200260200101518152602001896001600160a01b031663fa28c627858581518110610ca557610ca5614df5565b60209081029190910101516040516001600160e01b031960e084901b168152600481019190915260ff8816602482015263ffffffff8f166044820152606401602060405180830381865afa158015610d01573d6000803e3d6000fd5b505050506040513d601f19601f82011682018060405250810190610d259190614ebd565b6001600160601b0316815250858581518110610d4357610d43614df5565b60200260200101518281518110610d5c57610d5c614df5565b60200260200101819052508080610d7290614efc565b915050610bbb565b5050508080610d8890614efc565b915050610a8e565b50979650505050505050565b7f00000000000000000000000000000000000000000000000000000000000000006001600160a01b0316638da5cb5b6040518163ffffffff1660e01b8152600401602060405180830381865afa158015610dfa573d6000803e3d6000fd5b505050506040513d601f19601f82011682018060405250810190610e1e9190614d29565b6001600160a01b0316336001600160a01b031614610eca5760405162461bcd60e51b815260206004820152605c60248201527f424c535369676e6174757265436865636b65722e6f6e6c79436f6f7264696e6160448201527f746f724f776e65723a2063616c6c6572206973206e6f7420746865206f776e6560648201527f72206f6620746865207265676973747279436f6f7264696e61746f7200000000608482015260a40161062b565b6097805460ff19168215159081179091556040519081527f40e4ed880a29e0f6ddce307457fb75cddf4feef7d3ecb0301bfdf4976a0e2dfc9060200160405180910390a150565b610f3c6040518060800160405280606081526020016060815260200160608152602001606081525090565b6000876001600160a01b031663683048356040518163ffffffff1660e01b8152600401602060405180830381865afa158015610f7c573d6000803e3d6000fd5b505050506040513d601f19601f82011682018060405250810190610fa09190614d29565b9050610fcd6040518060800160405280606081526020016060815260200160608152602001606081525090565b6040516361c8a12f60e11b81526001600160a01b038a169063c391425e90610ffd908b9089908990600401614f17565b600060405180830381865afa15801561101a573d6000803e3d6000fd5b505050506040513d6000823e601f3d908101601f191682016040526110429190810190614f61565b81526040516340e03a8160e11b81526001600160a01b038316906381c0750290611074908b908b908b90600401615018565b600060405180830381865afa158015611091573d6000803e3d6000fd5b505050506040513d6000823e601f3d908101601f191682016040526110b99190810190614f61565b6040820152856001600160401b038111156110d6576110d6614128565b60405190808252806020026020018201604052801561110957816020015b60608152602001906001900390816110f45790505b50606082015260005b60ff8116871115611548576000856001600160401b0381111561113757611137614128565b604051908082528060200260200182016040528015611160578160200160208202803683370190505b5083606001518360ff168151811061117a5761117a614df5565b602002602001018190525060005b868110156114485760008c6001600160a01b03166304ec63518a8a858181106111b3576111b3614df5565b905060200201358e886000015186815181106111d1576111d1614df5565b60200260200101516040518463ffffffff1660e01b815260040161120e9392919092835263ffffffff918216602084015216604082015260600190565b602060405180830381865afa15801561122b573d6000803e3d6000fd5b505050506040513d601f19601f8201168201806040525081019061124f9190615041565b90506001600160c01b0381166112f35760405162461bcd60e51b815260206004820152605c60248201527f4f70657261746f7253746174655265747269657665722e676574436865636b5360448201527f69676e617475726573496e64696365733a206f70657261746f72206d7573742060648201527f6265207265676973746572656420617420626c6f636b6e756d62657200000000608482015260a40161062b565b8a8a8560ff1681811061130857611308614df5565b6001600160c01b03841692013560f81c9190911c60019081161415905061143557856001600160a01b031663dd9846b98a8a8581811061134a5761134a614df5565b905060200201358d8d8860ff1681811061136657611366614df5565b6040516001600160e01b031960e087901b1681526004810194909452919091013560f81c60248301525063ffffffff8f166044820152606401602060405180830381865afa1580156113bc573d6000803e3d6000fd5b505050506040513d601f19601f820116820180604052508101906113e0919061506a565b85606001518560ff16815181106113f9576113f9614df5565b6020026020010151848151811061141257611412614df5565b63ffffffff909216602092830291909101909101528261143181614efc565b9350505b508061144081614efc565b915050611188565b506000816001600160401b0381111561146357611463614128565b60405190808252806020026020018201604052801561148c578160200160208202803683370190505b50905060005b8281101561150d5784606001518460ff16815181106114b3576114b3614df5565b602002602001015181815181106114cc576114cc614df5565b60200260200101518282815181106114e6576114e6614df5565b63ffffffff909216602092830291909101909101528061150581614efc565b915050611492565b508084606001518460ff168151811061152857611528614df5565b60200260200101819052505050808061154090615087565b915050611112565b506000896001600160a01b0316635df459466040518163ffffffff1660e01b8152600401602060405180830381865afa158015611589573d6000803e3d6000fd5b505050506040513d601f19601f820116820180604052508101906115ad9190614d29565b60405163354952a360e21b81529091506001600160a01b0382169063d5254a8c906115e0908b908b908e906004016150a7565b600060405180830381865afa1580156115fd573d6000803e3d6000fd5b505050506040513d6000823e601f3d908101601f191682016040526116259190810190614f61565b60208301525098975050505050505050565b60cc546001600160a01b031633146116915760405162461bcd60e51b815260206004820152601d60248201527f41676772656761746f72206d757374206265207468652063616c6c6572000000604482015260640161062b565b60006116a360408501602086016142fb565b90503660006116b560408701876150d1565b909250905060006116cc60808801606089016142fb565b905060ca60006116df60208901896142fb565b63ffffffff1663ffffffff168152602001908152602001600020548760405160200161170b919061515c565b60405160208183030381529060405280519060200120146117945760405162461bcd60e51b815260206004820152603d60248201527f737570706c696564207461736b20646f6573206e6f74206d617463682074686560448201527f206f6e65207265636f7264656420696e2074686520636f6e7472616374000000606482015260840161062b565b600060cb816117a660208a018a6142fb565b63ffffffff1663ffffffff16815260200190815260200160002054146118235760405162461bcd60e51b815260206004820152602c60248201527f41676772656761746f722068617320616c726561647920726573706f6e64656460448201526b20746f20746865207461736b60a01b606482015260840161062b565b61184d7f0000000000000000000000000000000000000000000000000000000000000000856151ca565b63ffffffff164363ffffffff1611156118be5760405162461bcd60e51b815260206004820152602d60248201527f41676772656761746f722068617320726573706f6e64656420746f207468652060448201526c7461736b20746f6f206c61746560981b606482015260840161062b565b6000866040516020016118d19190615268565b6040516020818303038152906040528051906020012090506000806118f98387878a8c611ee2565b6040805160808101825263ffffffff4316815260208082018490528085015182840152845160608301529151939550919350909161193b918c9184910161527b565b6040516020818303038152906040528051906020012060cb60008c600001602081019061196891906142fb565b63ffffffff1663ffffffff168152602001908152602001600020819055507f97ae73eedbf8c85273da102b525348110a782f19b498bdbd6c8d67758a32875a8a826040516119b792919061527b565b60405180910390a160005b86811015611a58578560ff16846020015182815181106119e4576119e4614df5565b60200260200101516119f691906152dc565b6001600160601b0316606485600001518381518110611a1757611a17614df5565b60200260200101516001600160601b0316611a32919061530b565b1015611a4657505050505050505050505050565b80611a5081614efc565b9150506119c2565b5060c08a013560ce5560808a0135611a7360208c018c6142fb565b63ffffffff167f8378be8a33cf3a493910a16e275cd96af4f048c5eb1a2c2962d4066e697fea8060405160405180910390a35050505050505050505050565b60655460405163237dfb4760e11b81523360048201526001600160a01b03909116906346fbf68e90602401602060405180830381865afa158015611afa573d6000803e3d6000fd5b505050506040513d601f19601f82011682018060405250810190611b1e9190614d90565b611b3a5760405162461bcd60e51b815260040161062b90614dad565b600019606681905560405190815233907fab40a374bc51de372200a8bc981af8c9ecdc08dfdaef0bb6e09f88f3c616ef3d9060200160405180910390a2565b60606000846001600160a01b031663c391425e84866040518363ffffffff1660e01b8152600401611bab92919061532a565b600060405180830381865afa158015611bc8573d6000803e3d6000fd5b505050506040513d6000823e601f3d908101601f19168201604052611bf09190810190614f61565b9050600084516001600160401b03811115611c0d57611c0d614128565b604051908082528060200260200182016040528015611c36578160200160208202803683370190505b50905060005b8551811015611d3757866001600160a01b03166304ec6351878381518110611c6657611c66614df5565b602002602001015187868581518110611c8157611c81614df5565b60200260200101516040518463ffffffff1660e01b8152600401611cbe9392919092835263ffffffff918216602084015216604082015260600190565b602060405180830381865afa158015611cdb573d6000803e3d6000fd5b505050506040513d601f19601f82011682018060405250810190611cff9190615041565b6001600160c01b0316828281518110611d1a57611d1a614df5565b602090810291909101015280611d2f81614efc565b915050611c3c565b5095945050505050565b60cd546001600160a01b03163314611da55760405162461bcd60e51b815260206004820152602160248201527f5461736b2067656e657261746f72206d757374206265207468652063616c6c656044820152603960f91b606482015260840161062b565b611ddc604051806080016040528060008152602001600063ffffffff16815260200160608152602001600063ffffffff1681525090565b84815263ffffffff438116602080840191909152908516606083015260408051601f850183900483028101830190915283815290849084908190840183828082843760009201919091525050505060408083019190915251611e4290829060200161537e565b60408051601f19818403018152828252805160209182012060c9805463ffffffff908116600090815260ca90945293909220555416907f1695b8d06ec800b4615e745cfb5bd00c1f2875615d42925c3b5afa543bb24c4890611ea590849061537e565b60405180910390a260c954611ec19063ffffffff1660016151ca565b60c9805463ffffffff191663ffffffff929092169190911790555050505050565b6040805180820190915260608082526020820152600084611f595760405162461bcd60e51b8152602060048201526037602482015260008051602061554c83398151915260448201527f7265733a20656d7074792071756f72756d20696e707574000000000000000000606482015260840161062b565b60408301515185148015611f71575060a08301515185145b8015611f81575060c08301515185145b8015611f91575060e08301515185145b611ffb5760405162461bcd60e51b8152602060048201526041602482015260008051602061554c83398151915260448201527f7265733a20696e7075742071756f72756d206c656e677468206d69736d6174636064820152600d60fb1b608482015260a40161062b565b825151602084015151146120735760405162461bcd60e51b81526020600482015260446024820181905260008051602061554c833981519152908201527f7265733a20696e707574206e6f6e7369676e6572206c656e677468206d69736d6064820152630c2e8c6d60e31b608482015260a40161062b565b4363ffffffff168463ffffffff16106120e25760405162461bcd60e51b815260206004820152603c602482015260008051602061554c83398151915260448201527f7265733a20696e76616c6964207265666572656e636520626c6f636b00000000606482015260840161062b565b6040805180820182526000808252602080830191909152825180840190935260608084529083015290866001600160401b0381111561212357612123614128565b60405190808252806020026020018201604052801561214c578160200160208202803683370190505b506020820152866001600160401b0381111561216a5761216a614128565b604051908082528060200260200182016040528015612193578160200160208202803683370190505b50815260408051808201909152606080825260208201528560200151516001600160401b038111156121c7576121c7614128565b6040519080825280602002602001820160405280156121f0578160200160208202803683370190505b5081526020860151516001600160401b0381111561221057612210614128565b604051908082528060200260200182016040528015612239578160200160208202803683370190505b508160200181905250600061230b8a8a8080601f0160208091040260200160405190810160405280939291908181526020018383808284376000920191909152505060408051639aa1653d60e01b815290516001600160a01b037f0000000000000000000000000000000000000000000000000000000000000000169350639aa1653d925060048083019260209291908290030181865afa1580156122e2573d6000803e3d6000fd5b505050506040513d601f19601f820116820180604052508101906123069190615409565b613859565b905060005b8760200151518110156125a6576123558860200151828151811061233657612336614df5565b6020026020010151805160009081526020918201519091526040902090565b8360200151828151811061236b5761236b614df5565b6020908102919091010152801561242b57602083015161238c600183615426565b8151811061239c5761239c614df5565b602002602001015160001c836020015182815181106123bd576123bd614df5565b602002602001015160001c1161242b576040805162461bcd60e51b815260206004820152602481019190915260008051602061554c83398151915260448201527f7265733a206e6f6e5369676e65725075626b657973206e6f7420736f72746564606482015260840161062b565b7f00000000000000000000000000000000000000000000000000000000000000006001600160a01b03166304ec63518460200151838151811061247057612470614df5565b60200260200101518b8b60000151858151811061248f5761248f614df5565b60200260200101516040518463ffffffff1660e01b81526004016124cc9392919092835263ffffffff918216602084015216604082015260600190565b602060405180830381865afa1580156124e9573d6000803e3d6000fd5b505050506040513d601f19601f8201168201806040525081019061250d9190615041565b6001600160c01b03168360000151828151811061252c5761252c614df5565b602002602001018181525050612592610897612566848660000151858151811061255857612558614df5565b6020026020010151166138ec565b8a60200151848151811061257c5761257c614df5565b602002602001015161391790919063ffffffff16565b94508061259e81614efc565b915050612310565b50506125b1836139fb565b60975490935060ff166000816125c857600061264a565b7f00000000000000000000000000000000000000000000000000000000000000006001600160a01b031663c448feb86040518163ffffffff1660e01b8152600401602060405180830381865afa158015612626573d6000803e3d6000fd5b505050506040513d601f19601f8201168201806040525081019061264a919061543d565b905060005b8a811015612cc95782156127ab578963ffffffff16827f00000000000000000000000000000000000000000000000000000000000000006001600160a01b031663249a0c428f8f868181106126a6576126a6614df5565b60405160e085901b6001600160e01b031916815292013560f81c600483015250602401602060405180830381865afa1580156126e6573d6000803e3d6000fd5b505050506040513d601f19601f8201168201806040525081019061270a919061543d565b6127149190615456565b10156127ab5760405162461bcd60e51b8152602060048201526066602482015260008051602061554c83398151915260448201527f7265733a205374616b6552656769737472792075706461746573206d7573742060648201527f62652077697468696e207769746864726177616c44656c6179426c6f636b732060848201526577696e646f7760d01b60a482015260c40161062b565b7f00000000000000000000000000000000000000000000000000000000000000006001600160a01b03166368bccaac8d8d848181106127ec576127ec614df5565b9050013560f81c60f81b60f81c8c8c60a00151858151811061281057612810614df5565b60209081029190910101516040516001600160e01b031960e086901b16815260ff909316600484015263ffffffff9182166024840152166044820152606401602060405180830381865afa15801561286c573d6000803e3d6000fd5b505050506040513d601f19601f82011682018060405250810190612890919061546e565b6001600160401b0319166128b38a60400151838151811061233657612336614df5565b67ffffffffffffffff19161461294f5760405162461bcd60e51b8152602060048201526061602482015260008051602061554c83398151915260448201527f7265733a2071756f72756d41706b206861736820696e2073746f72616765206460648201527f6f6573206e6f74206d617463682070726f76696465642071756f72756d2061706084820152606b60f81b60a482015260c40161062b565b61297f8960400151828151811061296857612968614df5565b60200260200101518761345190919063ffffffff16565b95507f00000000000000000000000000000000000000000000000000000000000000006001600160a01b031663c8294c568d8d848181106129c2576129c2614df5565b9050013560f81c60f81b60f81c8c8c60c0015185815181106129e6576129e6614df5565b60209081029190910101516040516001600160e01b031960e086901b16815260ff909316600484015263ffffffff9182166024840152166044820152606401602060405180830381865afa158015612a42573d6000803e3d6000fd5b505050506040513d601f19601f82011682018060405250810190612a669190614ebd565b85602001518281518110612a7c57612a7c614df5565b6001600160601b03909216602092830291909101820152850151805182908110612aa857612aa8614df5565b602002602001015185600001518281518110612ac657612ac6614df5565b60200260200101906001600160601b031690816001600160601b0316815250506000805b8a6020015151811015612cb457612b3e86600001518281518110612b1057612b10614df5565b60200260200101518f8f86818110612b2a57612b2a614df5565b600192013560f81c9290921c811614919050565b15612ca2577f00000000000000000000000000000000000000000000000000000000000000006001600160a01b031663f2be94ae8f8f86818110612b8457612b84614df5565b9050013560f81c60f81b60f81c8e89602001518581518110612ba857612ba8614df5565b60200260200101518f60e001518881518110612bc657612bc6614df5565b60200260200101518781518110612bdf57612bdf614df5565b60209081029190910101516040516001600160e01b031960e087901b16815260ff909416600485015263ffffffff92831660248501526044840191909152166064820152608401602060405180830381865afa158015612c43573d6000803e3d6000fd5b505050506040513d601f19601f82011682018060405250810190612c679190614ebd565b8751805185908110612c7b57612c7b614df5565b60200260200101818151612c8f9190615499565b6001600160601b03169052506001909101905b80612cac81614efc565b915050612aea565b50508080612cc190614efc565b91505061264f565b505050600080612ce38c868a606001518b6080015161077c565b9150915081612d545760405162461bcd60e51b8152602060048201526043602482015260008051602061554c83398151915260448201527f7265733a2070616972696e6720707265636f6d70696c652063616c6c206661696064820152621b195960ea1b608482015260a40161062b565b80612db55760405162461bcd60e51b8152602060048201526039602482015260008051602061554c83398151915260448201527f7265733a207369676e617475726520697320696e76616c696400000000000000606482015260840161062b565b50506000878260200151604051602001612dd09291906154c1565b60408051808303601f190181529190528051602090910120929b929a509198505050505050505050565b612e02613a96565b612e0c6000613af0565b565b6040805160018082528183019092526000916060918391602080830190803683370190505090508481600081518110612e4957612e49614df5565b60209081029190910101526040516361c8a12f60e11b81526000906001600160a01b0388169063c391425e90612e85908890869060040161532a565b600060405180830381865afa158015612ea2573d6000803e3d6000fd5b505050506040513d6000823e601f3d908101601f19168201604052612eca9190810190614f61565b600081518110612edc57612edc614df5565b60209081029190910101516040516304ec635160e01b81526004810188905263ffffffff87811660248301529091166044820181905291506000906001600160a01b038916906304ec635190606401602060405180830381865afa158015612f48573d6000803e3d6000fd5b505050506040513d601f19601f82011682018060405250810190612f6c9190615041565b6001600160c01b031690506000612f8282613b42565b905081612f908a838a610906565b9550955050505050935093915050565b612fa8613a96565b6001600160a01b03811661300d5760405162461bcd60e51b815260206004820152602660248201527f4f776e61626c653a206e6577206f776e657220697320746865207a65726f206160448201526564647265737360d01b606482015260840161062b565b61025881613af0565b600054610100900460ff16158080156130365750600054600160ff909116105b806130505750303b158015613050575060005460ff166001145b6130b35760405162461bcd60e51b815260206004820152602e60248201527f496e697469616c697a61626c653a20636f6e747261637420697320616c72656160448201526d191e481a5b9a5d1a585b1a5e995960921b606482015260840161062b565b6000805460ff1916600117905580156130d6576000805461ff0019166101001790555b6130e1856000613c0e565b6130ea84613af0565b60cc80546001600160a01b038086166001600160a01b03199283161790925560cd8054928516929091169190911790558015613160576000805461ff0019169055604051600181527f7f26b83ff96e1f2b6a682f133852f6798a09c465da95921460cefb38474024989060200160405180910390a15b5050505050565b606560009054906101000a90046001600160a01b03166001600160a01b031663eab66d7a6040518163ffffffff1660e01b8152600401602060405180830381865afa1580156131ba573d6000803e3d6000fd5b505050506040513d601f19601f820116820180604052508101906131de9190614d29565b6001600160a01b0316336001600160a01b03161461320e5760405162461bcd60e51b815260040161062b90614d46565b60665419811960665419161461328c5760405162461bcd60e51b815260206004820152603860248201527f5061757361626c652e756e70617573653a20696e76616c696420617474656d7060448201527f7420746f2070617573652066756e6374696f6e616c6974790000000000000000606482015260840161062b565b606681905560405181815233907f3582d1828e26bf56bd801502bc021ac0bc8afb57c826e4986b45593c8fad389c90602001610771565b6001600160a01b0381166133515760405162461bcd60e51b815260206004820152604960248201527f5061757361626c652e5f73657450617573657252656769737472793a206e657760448201527f50617573657252656769737472792063616e6e6f7420626520746865207a65726064820152686f206164647265737360b81b608482015260a40161062b565b606554604080516001600160a01b03928316815291831660208301527f6e9fcd539896fca60e8b0f01dd580233e48a6b0f7df013b89ba7f565869acdb6910160405180910390a1606580546001600160a01b0319166001600160a01b0392909216919091179055565b60408051808201909152600080825260208201526133d6613faf565b835181526020808501519082015260408082018490526000908360608460076107d05a03fa90508080156134095761340b565bfe5b50806134495760405162461bcd60e51b815260206004820152600d60248201526c1958cb5b5d5b0b59985a5b1959609a1b604482015260640161062b565b505092915050565b604080518082019091526000808252602082015261346d613fcd565b835181526020808501518183015283516040808401919091529084015160608301526000908360808460066107d05a03fa90508080156134095750806134495760405162461bcd60e51b815260206004820152600d60248201526c1958cb5859190b59985a5b1959609a1b604482015260640161062b565b6134ed613feb565b50604080516080810182527f198e9393920d483a7260bfb731fb5d25f1aa493335a9e71297e485b7aef312c28183019081527f1800deef121f1e76426a00665e5c4479674322d4f75edadd46debd5cd992f6ed6060830152815281518083019092527f275dc4a288d1afb3cbb1ac09187524c7db36395df7be3b99e673b13a075a65ec82527f1d9befcd05a5323e6da4d435f3b617cdb3af83285c2df711ef39c01571827f9d60208381019190915281019190915290565b6040805180820190915260008082526020820152600080806135d560008051602061552c83398151915286614e0b565b90505b6135e181613cf8565b909350915060008051602061552c83398151915282830983141561361b576040805180820190915290815260208101919091529392505050565b60008051602061552c8339815191526001820890506135d8565b604080518082018252868152602080820186905282518084019093528683528201849052600091829190613667614010565b60005b600281101561382c57600061368082600661530b565b905084826002811061369457613694614df5565b602002015151836136a6836000615456565b600c81106136b6576136b6614df5565b60200201528482600281106136cd576136cd614df5565b602002015160200151838260016136e49190615456565b600c81106136f4576136f4614df5565b602002015283826002811061370b5761370b614df5565b602002015151518361371e836002615456565b600c811061372e5761372e614df5565b602002015283826002811061374557613745614df5565b602002015151600160200201518361375e836003615456565b600c811061376e5761376e614df5565b602002015283826002811061378557613785614df5565b6020020151602001516000600281106137a0576137a0614df5565b6020020151836137b1836004615456565b600c81106137c1576137c1614df5565b60200201528382600281106137d8576137d8614df5565b6020020151602001516001600281106137f3576137f3614df5565b602002015183613804836005615456565b600c811061381457613814614df5565b6020020152508061382481614efc565b91505061366a565b5061383561402f565b60006020826101808560088cfa9151919c9115159b50909950505050505050505050565b60008061386584613d7a565b9050808360ff166001901b116138e35760405162461bcd60e51b815260206004820152603f60248201527f4269746d61705574696c732e6f72646572656442797465734172726179546f4260448201527f69746d61703a206269746d61702065786365656473206d61782076616c756500606482015260840161062b565b90505b92915050565b6000805b82156138e657613901600184615426565b909216918061390f81615509565b9150506138f0565b60408051808201909152600080825260208201526102008261ffff16106139735760405162461bcd60e51b815260206004820152601060248201526f7363616c61722d746f6f2d6c6172676560801b604482015260640161062b565b8161ffff16600114156139875750816138e6565b6040805180820190915260008082526020820181905284906001905b8161ffff168661ffff16106139f057600161ffff871660ff83161c811614156139d3576139d08484613451565b93505b6139dd8384613451565b92506201fffe600192831b1691016139a3565b509195945050505050565b60408051808201909152600080825260208201528151158015613a2057506020820151155b15613a3e575050604080518082019091526000808252602082015290565b60405180604001604052808360000151815260200160008051602061552c8339815191528460200151613a719190614e0b565b613a899060008051602061552c833981519152615426565b905292915050565b919050565b6033546001600160a01b03163314612e0c5760405162461bcd60e51b815260206004820181905260248201527f4f776e61626c653a2063616c6c6572206973206e6f7420746865206f776e6572604482015260640161062b565b603380546001600160a01b038381166001600160a01b0319831681179093556040519116919082907f8be0079c531659141344cd1fd0a4f28419497f9722a3daafe3b4186f6b6457e090600090a35050565b6060600080613b50846138ec565b61ffff166001600160401b03811115613b6b57613b6b614128565b6040519080825280601f01601f191660200182016040528015613b95576020820181803683370190505b5090506000805b825182108015613bad575061010081105b15613c04576001811b935085841615613bf4578060f81b838381518110613bd657613bd6614df5565b60200101906001600160f81b031916908160001a9053508160010191505b613bfd81614efc565b9050613b9c565b5090949350505050565b6065546001600160a01b0316158015613c2f57506001600160a01b03821615155b613cb15760405162461bcd60e51b815260206004820152604760248201527f5061757361626c652e5f696e697469616c697a655061757365723a205f696e6960448201527f7469616c697a6550617573657228292063616e206f6e6c792062652063616c6c6064820152666564206f6e636560c81b608482015260a40161062b565b606681905560405181815233907fab40a374bc51de372200a8bc981af8c9ecdc08dfdaef0bb6e09f88f3c616ef3d9060200160405180910390a2613cf4826132c3565b5050565b6000808060008051602061552c833981519152600360008051602061552c8339815191528660008051602061552c833981519152888909090890506000613d6e827f0c19139cb84c680a6e14116da060561765e05aa45a1c72a34f082305b61f3f5260008051602061552c833981519152613f07565b91959194509092505050565b600061010082511115613e035760405162461bcd60e51b8152602060048201526044602482018190527f4269746d61705574696c732e6f72646572656442797465734172726179546f42908201527f69746d61703a206f7264657265644279746573417272617920697320746f6f206064820152636c6f6e6760e01b608482015260a40161062b565b8151613e1157506000919050565b60008083600081518110613e2757613e27614df5565b0160200151600160f89190911c81901b92505b8451811015613efe57848181518110613e5557613e55614df5565b0160200151600160f89190911c1b9150828211613eea5760405162461bcd60e51b815260206004820152604760248201527f4269746d61705574696c732e6f72646572656442797465734172726179546f4260448201527f69746d61703a206f72646572656442797465734172726179206973206e6f74206064820152661bdc99195c995960ca1b608482015260a40161062b565b91811791613ef781614efc565b9050613e3a565b50909392505050565b600080613f1261402f565b613f1a61404d565b602080825281810181905260408201819052606082018890526080820187905260a082018690528260c08360056107d05a03fa9250828015613409575082613fa45760405162461bcd60e51b815260206004820152601a60248201527f424e3235342e6578704d6f643a2063616c6c206661696c757265000000000000604482015260640161062b565b505195945050505050565b60405180606001604052806003906020820280368337509192915050565b60405180608001604052806004906020820280368337509192915050565b6040518060400160405280613ffe61406b565b815260200161400b61406b565b905290565b604051806101800160405280600c906020820280368337509192915050565b60405180602001604052806001906020820280368337509192915050565b6040518060c001604052806006906020820280368337509192915050565b60405180604001604052806002906020820280368337509192915050565b6001600160a01b038116811461025857600080fd5b6000602082840312156140b057600080fd5b81356138e381614089565b6000602082840312156140cd57600080fd5b5035919050565b600060e082840312156140e657600080fd5b50919050565b6000602082840312156140fe57600080fd5b81356001600160401b0381111561411457600080fd5b614120848285016140d4565b949350505050565b634e487b7160e01b600052604160045260246000fd5b604080519081016001600160401b038111828210171561416057614160614128565b60405290565b60405161010081016001600160401b038111828210171561416057614160614128565b604051601f8201601f191681016001600160401b03811182821017156141b1576141b1614128565b604052919050565b6000604082840312156141cb57600080fd5b6141d361413e565b9050813581526020820135602082015292915050565b600082601f8301126141fa57600080fd5b604051604081018181106001600160401b038211171561421c5761421c614128565b806040525080604084018581111561423357600080fd5b845b818110156139f0578035835260209283019201614235565b60006080828403121561425f57600080fd5b61426761413e565b905061427383836141e9565b815261428283604084016141e9565b602082015292915050565b60008060008061012085870312156142a457600080fd5b843593506142b586602087016141b9565b92506142c4866060870161424d565b91506142d38660e087016141b9565b905092959194509250565b63ffffffff8116811461025857600080fd5b8035613a91816142de565b60006020828403121561430d57600080fd5b81356138e3816142de565b60008060006060848603121561432d57600080fd5b833561433881614089565b92506020848101356001600160401b038082111561435557600080fd5b818701915087601f83011261436957600080fd5b81358181111561437b5761437b614128565b61438d601f8201601f19168501614189565b915080825288848285010111156143a357600080fd5b80848401858401376000848284010152508094505050506143c6604085016142f0565b90509250925092565b600081518084526020808501808196508360051b810191508286016000805b86811015614465578385038a52825180518087529087019087870190845b8181101561445057835180516001600160a01b031684528a8101518b8501526040908101516001600160601b0316908401529289019260609092019160010161440c565b50509a87019a955050918501916001016143ee565b509298975050505050505050565b60208152600061448660208301846143cf565b9392505050565b801515811461025857600080fd5b6000602082840312156144ad57600080fd5b81356138e38161448d565b60008083601f8401126144ca57600080fd5b5081356001600160401b038111156144e157600080fd5b6020830191508360208285010111156144f957600080fd5b9250929050565b6000806000806000806080878903121561451957600080fd5b863561452481614089565b95506020870135614534816142de565b945060408701356001600160401b038082111561455057600080fd5b61455c8a838b016144b8565b9096509450606089013591508082111561457557600080fd5b818901915089601f83011261458957600080fd5b81358181111561459857600080fd5b8a60208260051b85010111156145ad57600080fd5b6020830194508093505050509295509295509295565b600081518084526020808501945080840160005b838110156145f957815163ffffffff16875295820195908201906001016145d7565b509495945050505050565b60006020808352835160808285015261462060a08501826145c3565b905081850151601f198086840301604087015261463d83836145c3565b9250604087015191508086840301606087015261465a83836145c3565b60608801518782038301608089015280518083529194508501925084840190600581901b8501860160005b828110156146b1578487830301845261469f8287516145c3565b95880195938801939150600101614685565b509998505050505050505050565b60006001600160401b038211156146d8576146d8614128565b5060051b60200190565b600082601f8301126146f357600080fd5b81356020614708614703836146bf565b614189565b82815260059290921b8401810191818101908684111561472757600080fd5b8286015b8481101561474b57803561473e816142de565b835291830191830161472b565b509695505050505050565b600082601f83011261476757600080fd5b81356020614777614703836146bf565b82815260069290921b8401810191818101908684111561479657600080fd5b8286015b8481101561474b576147ac88826141b9565b83529183019160400161479a565b600082601f8301126147cb57600080fd5b813560206147db614703836146bf565b82815260059290921b840181019181810190868411156147fa57600080fd5b8286015b8481101561474b5780356001600160401b0381111561481d5760008081fd5b61482b8986838b01016146e2565b8452509183019183016147fe565b6000610180828403121561484c57600080fd5b614854614166565b905081356001600160401b038082111561486d57600080fd5b614879858386016146e2565b8352602084013591508082111561488f57600080fd5b61489b85838601614756565b602084015260408401359150808211156148b457600080fd5b6148c085838601614756565b60408401526148d2856060860161424d565b60608401526148e48560e086016141b9565b60808401526101208401359150808211156148fe57600080fd5b61490a858386016146e2565b60a084015261014084013591508082111561492457600080fd5b614930858386016146e2565b60c084015261016084013591508082111561494a57600080fd5b50614957848285016147ba565b60e08301525092915050565b60008060006060848603121561497857600080fd5b83356001600160401b038082111561498f57600080fd5b90850190608082880312156149a357600080fd5b909350602085013590808211156149b957600080fd5b6149c5878388016140d4565b935060408601359150808211156149db57600080fd5b506149e886828701614839565b9150509250925092565b60ff8116811461025857600080fd5b600060208284031215614a1357600080fd5b81356138e3816149f2565b600080600060608486031215614a3357600080fd5b8335614a3e81614089565b92506020848101356001600160401b03811115614a5a57600080fd5b8501601f81018713614a6b57600080fd5b8035614a79614703826146bf565b81815260059190911b82018301908381019089831115614a9857600080fd5b928401925b82841015614ab657833582529284019290840190614a9d565b80965050505050506143c6604085016142f0565b6020808252825182820181905260009190848201906040850190845b81811015614b0257835183529284019291840191600101614ae6565b50909695505050505050565b60008060008060608587031215614b2457600080fd5b843593506020850135614b36816142de565b925060408501356001600160401b03811115614b5157600080fd5b614b5d878288016144b8565b95989497509550505050565b600080600080600060808688031215614b8157600080fd5b8535945060208601356001600160401b0380821115614b9f57600080fd5b614bab89838a016144b8565b909650945060408801359150614bc0826142de565b90925060608701359080821115614bd657600080fd5b50614be388828901614839565b9150509295509295909350565b600081518084526020808501945080840160005b838110156145f95781516001600160601b031687529582019590820190600101614c04565b6040815260008351604080840152614c446080840182614bf0565b90506020850151603f19848303016060850152614c618282614bf0565b925050508260208301529392505050565b600080600060608486031215614c8757600080fd5b8335614c9281614089565b9250602084013591506040840135614ca9816142de565b809150509250925092565b82815260406020820152600061412060408301846143cf565b60008060008060808587031215614ce357600080fd5b8435614cee81614089565b93506020850135614cfe81614089565b92506040850135614d0e81614089565b91506060850135614d1e81614089565b939692955090935050565b600060208284031215614d3b57600080fd5b81516138e381614089565b6020808252602a908201527f6d73672e73656e646572206973206e6f74207065726d697373696f6e6564206160408201526939903ab73830bab9b2b960b11b606082015260800190565b600060208284031215614da257600080fd5b81516138e38161448d565b60208082526028908201527f6d73672e73656e646572206973206e6f74207065726d697373696f6e6564206160408201526739903830bab9b2b960c11b606082015260800190565b634e487b7160e01b600052603260045260246000fd5b600082614e2857634e487b7160e01b600052601260045260246000fd5b500690565b60006020808385031215614e4057600080fd5b82516001600160401b03811115614e5657600080fd5b8301601f81018513614e6757600080fd5b8051614e75614703826146bf565b81815260059190911b82018301908381019087831115614e9457600080fd5b928401925b82841015614eb257835182529284019290840190614e99565b979650505050505050565b600060208284031215614ecf57600080fd5b81516001600160601b03811681146138e357600080fd5b634e487b7160e01b600052601160045260246000fd5b6000600019821415614f1057614f10614ee6565b5060010190565b63ffffffff84168152604060208201819052810182905260006001600160fb1b03831115614f4457600080fd5b8260051b8085606085013760009201606001918252509392505050565b60006020808385031215614f7457600080fd5b82516001600160401b03811115614f8a57600080fd5b8301601f81018513614f9b57600080fd5b8051614fa9614703826146bf565b81815260059190911b82018301908381019087831115614fc857600080fd5b928401925b82841015614eb2578351614fe0816142de565b82529284019290840190614fcd565b81835281816020850137506000828201602090810191909152601f909101601f19169091010190565b63ffffffff84168152604060208201526000615038604083018486614fef565b95945050505050565b60006020828403121561505357600080fd5b81516001600160c01b03811681146138e357600080fd5b60006020828403121561507c57600080fd5b81516138e3816142de565b600060ff821660ff81141561509e5761509e614ee6565b60010192915050565b6040815260006150bb604083018587614fef565b905063ffffffff83166020830152949350505050565b6000808335601e198436030181126150e857600080fd5b8301803591506001600160401b0382111561510257600080fd5b6020019150368190038213156144f957600080fd5b6000808335601e1984360301811261512e57600080fd5b83016020810192503590506001600160401b0381111561514d57600080fd5b8036038313156144f957600080fd5b602081528135602082015260006020830135615177816142de565b63ffffffff80821660408501526151916040860186615117565b9250608060608601526151a860a086018483614fef565b92505060608501356151b9816142de565b166080939093019290925250919050565b600063ffffffff8083168185168083038211156151e9576151e9614ee6565b01949350505050565b600081356151ff816142de565b63ffffffff1683526152146020830183615117565b60e0602086015261522960e086018284614fef565b91505060408301356040850152606083013560608501526080830135608085015260a083013560a085015260c083013560c08501528091505092915050565b60208152600061448660208301846151f2565b60408152600061528e60408301856151f2565b828103602084015263ffffffff8451168152602084015160208201526040840151608060408301526152c36080830182614bf0565b905060608501518282036060840152614eb28282614bf0565b60006001600160601b038083168185168183048111821515161561530257615302614ee6565b02949350505050565b600081600019048311821515161561532557615325614ee6565b500290565b60006040820163ffffffff851683526020604081850152818551808452606086019150828701935060005b8181101561537157845183529383019391830191600101615355565b5090979650505050505050565b6000602080835283518184015263ffffffff8185015116604084015260408401516080606085015280518060a086015260005b818110156153cd5782810184015186820160c0015283016153b1565b818111156153df57600060c083880101525b50606086015163ffffffff811660808701529250601f01601f19169390930160c001949350505050565b60006020828403121561541b57600080fd5b81516138e3816149f2565b60008282101561543857615438614ee6565b500390565b60006020828403121561544f57600080fd5b5051919050565b6000821982111561546957615469614ee6565b500190565b60006020828403121561548057600080fd5b815167ffffffffffffffff19811681146138e357600080fd5b60006001600160601b03838116908316818110156154b9576154b9614ee6565b039392505050565b63ffffffff60e01b8360e01b1681526000600482018351602080860160005b838110156154fc578151855293820193908201906001016154e0565b5092979650505050505050565b600061ffff8083168181141561552157615521614ee6565b600101939250505056fe30644e72e131a029b85045b68181585d97816a916871ca8d3c208c16d87cfd47424c535369676e6174757265436865636b65722e636865636b5369676e617475a2646970667358221220d353a3114e64a30b6d1560d67a7079ee6e719e830b336ada5d225b8904f89ea664736f6c634300080c0033","linkReferences":{}},"methodIdentifiers":{"aggregator()":"245a7bfc","allTaskHashes(uint32)":"2d89f6fc","allTaskResponses(uint32)":"2cb223d5","blsApkRegistry()":"5df45946","checkSignatures(bytes32,bytes,uint32,(uint32[],(uint256,uint256)[],(uint256,uint256)[],(uint256[2],uint256[2]),(uint256,uint256),uint32[],uint32[],uint32[][]))":"6efb4636","createNewTask(uint256,uint32,bytes)":"6b92787e","delegation()":"df5cf723","dummyForTaskResponseType((uint32,bytes,uint256,uint256,bytes32,bytes32,bytes32))":"1366aad7","generator()":"7afa1eed","getCheckSignaturesIndices(address,uint32,bytes,bytes32[])":"4f739f74","getLatestPendingStateHash()":"0373408d","getOperatorState(address,bytes,uint32)":"3563b0d1","getOperatorState(address,bytes32,uint32)":"cefdc1d4","getQuorumBitmapsAtBlockNumber(address,bytes32[],uint32)":"5c155662","getTaskResponseWindowBlock()":"f5c9899d","initialize(address,address,address,address)":"f8c8765e","latestTaskNum()":"8b00ce7c","owner()":"8da5cb5b","pause(uint256)":"136439dd","pauseAll()":"595c6a67","paused()":"5c975abb","paused(uint8)":"5ac86ab7","pauserRegistry()":"886f1195","registryCoordinator()":"6d14a987","renounceOwnership()":"715018a6","respondToTask((uint256,uint32,bytes,uint32),(uint32,bytes,uint256,uint256,bytes32,bytes32,bytes32),(uint32[],(uint256,uint256)[],(uint256,uint256)[],(uint256[2],uint256[2]),(uint256,uint256),uint32[],uint32[],uint32[][]))":"56c5db63","setPauserRegistry(address)":"10d67a2f","setStaleStakesForbidden(bool)":"416c7e5e","stakeRegistry()":"68304835","staleStakesForbidden()":"b98d0908","taskNumber()":"72d18e8d","transferOwnership(address)":"f2fde38b","trySignatureAndApkVerification(bytes32,(uint256,uint256),(uint256[2],uint256[2]),(uint256,uint256))":"171f1d5b","unpause(uint256)":"fabc1cbc"},"id":125}